{
  "_format": "hh-sol-artifact-1",
  "contractName": "AccountRulesV2Impl",
  "sourceName": "contracts/AccountRulesV2Impl.sol",
  "abi": [
    {
      "inputs": [
        {
          "internalType": "contract Organization",
          "name": "orgs",
          "type": "address"
        },
        {
          "internalType": "address[]",
          "name": "accs",
          "type": "address[]"
        },
        {
          "internalType": "contract AdminProxy",
          "name": "adminsProxy",
          "type": "address"
        }
      ],
      "stateMutability": "nonpayable",
      "type": "constructor"
    },
    {
      "inputs": [],
      "name": "AccessControlBadConfirmation",
      "type": "error"
    },
    {
      "inputs": [
        {
          "internalType": "address",
          "name": "account",
          "type": "address"
        },
        {
          "internalType": "bytes32",
          "name": "neededRole",
          "type": "bytes32"
        }
      ],
      "name": "AccessControlUnauthorizedAccount",
      "type": "error"
    },
    {
      "inputs": [
        {
          "internalType": "address",
          "name": "account",
          "type": "address"
        }
      ],
      "name": "AccountNotFound",
      "type": "error"
    },
    {
      "inputs": [
        {
          "internalType": "address",
          "name": "account",
          "type": "address"
        }
      ],
      "name": "DuplicateAccount",
      "type": "error"
    },
    {
      "inputs": [
        {
          "internalType": "string",
          "name": "message",
          "type": "string"
        }
      ],
      "name": "IllegalState",
      "type": "error"
    },
    {
      "inputs": [
        {
          "internalType": "address",
          "name": "account",
          "type": "address"
        },
        {
          "internalType": "string",
          "name": "message",
          "type": "string"
        }
      ],
      "name": "InactiveAccount",
      "type": "error"
    },
    {
      "inputs": [
        {
          "internalType": "address",
          "name": "account",
          "type": "address"
        },
        {
          "internalType": "string",
          "name": "message",
          "type": "string"
        }
      ],
      "name": "InvalidAccount",
      "type": "error"
    },
    {
      "inputs": [
        {
          "internalType": "string",
          "name": "message",
          "type": "string"
        }
      ],
      "name": "InvalidArgument",
      "type": "error"
    },
    {
      "inputs": [
        {
          "internalType": "bytes32",
          "name": "hash",
          "type": "bytes32"
        },
        {
          "internalType": "string",
          "name": "message",
          "type": "string"
        }
      ],
      "name": "InvalidHash",
      "type": "error"
    },
    {
      "inputs": [
        {
          "internalType": "uint256",
          "name": "orgId",
          "type": "uint256"
        },
        {
          "internalType": "string",
          "name": "message",
          "type": "string"
        }
      ],
      "name": "InvalidOrganization",
      "type": "error"
    },
    {
      "inputs": [
        {
          "internalType": "string",
          "name": "message",
          "type": "string"
        }
      ],
      "name": "InvalidPaginationParameter",
      "type": "error"
    },
    {
      "inputs": [
        {
          "internalType": "bytes32",
          "name": "roleId",
          "type": "bytes32"
        },
        {
          "internalType": "string",
          "name": "message",
          "type": "string"
        }
      ],
      "name": "InvalidRole",
      "type": "error"
    },
    {
      "inputs": [
        {
          "internalType": "address",
          "name": "account",
          "type": "address"
        }
      ],
      "name": "NotLocalAccount",
      "type": "error"
    },
    {
      "inputs": [
        {
          "internalType": "address",
          "name": "account",
          "type": "address"
        }
      ],
      "name": "UnauthorizedAccess",
      "type": "error"
    },
    {
      "anonymous": false,
      "inputs": [
        {
          "indexed": true,
          "internalType": "address",
          "name": "account",
          "type": "address"
        },
        {
          "indexed": true,
          "internalType": "uint256",
          "name": "orgId",
          "type": "uint256"
        },
        {
          "indexed": false,
          "internalType": "bytes32",
          "name": "roleId",
          "type": "bytes32"
        },
        {
          "indexed": false,
          "internalType": "bytes32",
          "name": "dataHash",
          "type": "bytes32"
        }
      ],
      "name": "AccountAdded",
      "type": "event"
    },
    {
      "anonymous": false,
      "inputs": [
        {
          "indexed": true,
          "internalType": "address",
          "name": "account",
          "type": "address"
        },
        {
          "indexed": true,
          "internalType": "uint256",
          "name": "orgId",
          "type": "uint256"
        }
      ],
      "name": "AccountDeleted",
      "type": "event"
    },
    {
      "anonymous": false,
      "inputs": [
        {
          "indexed": true,
          "internalType": "address",
          "name": "account",
          "type": "address"
        },
        {
          "indexed": true,
          "internalType": "uint256",
          "name": "orgId",
          "type": "uint256"
        },
        {
          "indexed": false,
          "internalType": "bool",
          "name": "active",
          "type": "bool"
        }
      ],
      "name": "AccountStatusUpdated",
      "type": "event"
    },
    {
      "anonymous": false,
      "inputs": [
        {
          "indexed": true,
          "internalType": "address",
          "name": "account",
          "type": "address"
        },
        {
          "indexed": true,
          "internalType": "bool",
          "name": "restricted",
          "type": "bool"
        },
        {
          "indexed": false,
          "internalType": "address[]",
          "name": "allowedTargets",
          "type": "address[]"
        }
      ],
      "name": "AccountTargetAccessUpdated",
      "type": "event"
    },
    {
      "anonymous": false,
      "inputs": [
        {
          "indexed": true,
          "internalType": "address",
          "name": "account",
          "type": "address"
        },
        {
          "indexed": true,
          "internalType": "uint256",
          "name": "orgId",
          "type": "uint256"
        },
        {
          "indexed": false,
          "internalType": "bytes32",
          "name": "roleId",
          "type": "bytes32"
        },
        {
          "indexed": false,
          "internalType": "bytes32",
          "name": "dataHash",
          "type": "bytes32"
        }
      ],
      "name": "AccountUpdated",
      "type": "event"
    },
    {
      "anonymous": false,
      "inputs": [
        {
          "indexed": true,
          "internalType": "bytes32",
          "name": "role",
          "type": "bytes32"
        },
        {
          "indexed": true,
          "internalType": "bytes32",
          "name": "previousAdminRole",
          "type": "bytes32"
        },
        {
          "indexed": true,
          "internalType": "bytes32",
          "name": "newAdminRole",
          "type": "bytes32"
        }
      ],
      "name": "RoleAdminChanged",
      "type": "event"
    },
    {
      "anonymous": false,
      "inputs": [
        {
          "indexed": true,
          "internalType": "bytes32",
          "name": "role",
          "type": "bytes32"
        },
        {
          "indexed": true,
          "internalType": "address",
          "name": "account",
          "type": "address"
        },
        {
          "indexed": true,
          "internalType": "address",
          "name": "sender",
          "type": "address"
        }
      ],
      "name": "RoleGranted",
      "type": "event"
    },
    {
      "anonymous": false,
      "inputs": [
        {
          "indexed": true,
          "internalType": "bytes32",
          "name": "role",
          "type": "bytes32"
        },
        {
          "indexed": true,
          "internalType": "address",
          "name": "account",
          "type": "address"
        },
        {
          "indexed": true,
          "internalType": "address",
          "name": "sender",
          "type": "address"
        }
      ],
      "name": "RoleRevoked",
      "type": "event"
    },
    {
      "anonymous": false,
      "inputs": [
        {
          "indexed": true,
          "internalType": "address",
          "name": "smartContract",
          "type": "address"
        },
        {
          "indexed": true,
          "internalType": "bool",
          "name": "restricted",
          "type": "bool"
        },
        {
          "indexed": false,
          "internalType": "address[]",
          "name": "allowedSenders",
          "type": "address[]"
        }
      ],
      "name": "SmartContractSenderAccessUpdated",
      "type": "event"
    },
    {
      "inputs": [],
      "name": "DEFAULT_ADMIN_ROLE",
      "outputs": [
        {
          "internalType": "bytes32",
          "name": "",
          "type": "bytes32"
        }
      ],
      "stateMutability": "view",
      "type": "function"
    },
    {
      "inputs": [
        {
          "internalType": "address",
          "name": "",
          "type": "address"
        }
      ],
      "name": "accounts",
      "outputs": [
        {
          "internalType": "uint256",
          "name": "orgId",
          "type": "uint256"
        },
        {
          "internalType": "address",
          "name": "account",
          "type": "address"
        },
        {
          "internalType": "bytes32",
          "name": "roleId",
          "type": "bytes32"
        },
        {
          "internalType": "bytes32",
          "name": "dataHash",
          "type": "bytes32"
        },
        {
          "internalType": "bool",
          "name": "active",
          "type": "bool"
        }
      ],
      "stateMutability": "view",
      "type": "function"
    },
    {
      "inputs": [
        {
          "internalType": "address",
          "name": "account",
          "type": "address"
        },
        {
          "internalType": "uint256",
          "name": "orgId",
          "type": "uint256"
        },
        {
          "internalType": "bytes32",
          "name": "roleId",
          "type": "bytes32"
        },
        {
          "internalType": "bytes32",
          "name": "dataHash",
          "type": "bytes32"
        }
      ],
      "name": "addAccount",
      "outputs": [],
      "stateMutability": "nonpayable",
      "type": "function"
    },
    {
      "inputs": [
        {
          "internalType": "address",
          "name": "account",
          "type": "address"
        },
        {
          "internalType": "bytes32",
          "name": "roleId",
          "type": "bytes32"
        },
        {
          "internalType": "bytes32",
          "name": "dataHash",
          "type": "bytes32"
        }
      ],
      "name": "addLocalAccount",
      "outputs": [],
      "stateMutability": "nonpayable",
      "type": "function"
    },
    {
      "inputs": [],
      "name": "admins",
      "outputs": [
        {
          "internalType": "contract AdminProxy",
          "name": "",
          "type": "address"
        }
      ],
      "stateMutability": "view",
      "type": "function"
    },
    {
      "inputs": [
        {
          "internalType": "address",
          "name": "account",
          "type": "address"
        }
      ],
      "name": "deleteAccount",
      "outputs": [],
      "stateMutability": "nonpayable",
      "type": "function"
    },
    {
      "inputs": [
        {
          "internalType": "address",
          "name": "account",
          "type": "address"
        }
      ],
      "name": "deleteLocalAccount",
      "outputs": [],
      "stateMutability": "nonpayable",
      "type": "function"
    },
    {
      "inputs": [
        {
          "internalType": "address",
          "name": "account",
          "type": "address"
        }
      ],
      "name": "getAccount",
      "outputs": [
        {
          "components": [
            {
              "internalType": "uint256",
              "name": "orgId",
              "type": "uint256"
            },
            {
              "internalType": "address",
              "name": "account",
              "type": "address"
            },
            {
              "internalType": "bytes32",
              "name": "roleId",
              "type": "bytes32"
            },
            {
              "internalType": "bytes32",
              "name": "dataHash",
              "type": "bytes32"
            },
            {
              "internalType": "bool",
              "name": "active",
              "type": "bool"
            }
          ],
          "internalType": "struct AccountRulesV2.AccountData",
          "name": "",
          "type": "tuple"
        }
      ],
      "stateMutability": "view",
      "type": "function"
    },
    {
      "inputs": [
        {
          "internalType": "address",
          "name": "account",
          "type": "address"
        }
      ],
      "name": "getAccountTargetAccess",
      "outputs": [
        {
          "internalType": "bool",
          "name": "restricted",
          "type": "bool"
        },
        {
          "internalType": "address[]",
          "name": "",
          "type": "address[]"
        }
      ],
      "stateMutability": "view",
      "type": "function"
    },
    {
      "inputs": [
        {
          "internalType": "uint256",
          "name": "pageNumber",
          "type": "uint256"
        },
        {
          "internalType": "uint256",
          "name": "pageSize",
          "type": "uint256"
        }
      ],
      "name": "getAccounts",
      "outputs": [
        {
          "components": [
            {
              "internalType": "uint256",
              "name": "orgId",
              "type": "uint256"
            },
            {
              "internalType": "address",
              "name": "account",
              "type": "address"
            },
            {
              "internalType": "bytes32",
              "name": "roleId",
              "type": "bytes32"
            },
            {
              "internalType": "bytes32",
              "name": "dataHash",
              "type": "bytes32"
            },
            {
              "internalType": "bool",
              "name": "active",
              "type": "bool"
            }
          ],
          "internalType": "struct AccountRulesV2.AccountData[]",
          "name": "",
          "type": "tuple[]"
        }
      ],
      "stateMutability": "view",
      "type": "function"
    },
    {
      "inputs": [
        {
          "internalType": "uint256",
          "name": "orgId",
          "type": "uint256"
        },
        {
          "internalType": "uint256",
          "name": "pageNumber",
          "type": "uint256"
        },
        {
          "internalType": "uint256",
          "name": "pageSize",
          "type": "uint256"
        }
      ],
      "name": "getAccountsByOrg",
      "outputs": [
        {
          "components": [
            {
              "internalType": "uint256",
              "name": "orgId",
              "type": "uint256"
            },
            {
              "internalType": "address",
              "name": "account",
              "type": "address"
            },
            {
              "internalType": "bytes32",
              "name": "roleId",
              "type": "bytes32"
            },
            {
              "internalType": "bytes32",
              "name": "dataHash",
              "type": "bytes32"
            },
            {
              "internalType": "bool",
              "name": "active",
              "type": "bool"
            }
          ],
          "internalType": "struct AccountRulesV2.AccountData[]",
          "name": "",
          "type": "tuple[]"
        }
      ],
      "stateMutability": "view",
      "type": "function"
    },
    {
      "inputs": [],
      "name": "getNumberOfAccounts",
      "outputs": [
        {
          "internalType": "uint256",
          "name": "",
          "type": "uint256"
        }
      ],
      "stateMutability": "view",
      "type": "function"
    },
    {
      "inputs": [
        {
          "internalType": "uint256",
          "name": "orgId",
          "type": "uint256"
        }
      ],
      "name": "getNumberOfAccountsByOrg",
      "outputs": [
        {
          "internalType": "uint256",
          "name": "",
          "type": "uint256"
        }
      ],
      "stateMutability": "view",
      "type": "function"
    },
    {
      "inputs": [],
      "name": "getNumberOfRestrictedAccounts",
      "outputs": [
        {
          "internalType": "uint256",
          "name": "",
          "type": "uint256"
        }
      ],
      "stateMutability": "view",
      "type": "function"
    },
    {
      "inputs": [],
      "name": "getNumberOfRestrictedSmartContracts",
      "outputs": [
        {
          "internalType": "uint256",
          "name": "",
          "type": "uint256"
        }
      ],
      "stateMutability": "view",
      "type": "function"
    },
    {
      "inputs": [
        {
          "internalType": "uint256",
          "name": "pageNumber",
          "type": "uint256"
        },
        {
          "internalType": "uint256",
          "name": "pageSize",
          "type": "uint256"
        }
      ],
      "name": "getRestrictedAccounts",
      "outputs": [
        {
          "internalType": "address[]",
          "name": "",
          "type": "address[]"
        }
      ],
      "stateMutability": "view",
      "type": "function"
    },
    {
      "inputs": [
        {
          "internalType": "uint256",
          "name": "pageNumber",
          "type": "uint256"
        },
        {
          "internalType": "uint256",
          "name": "pageSize",
          "type": "uint256"
        }
      ],
      "name": "getRestrictedSmartContracts",
      "outputs": [
        {
          "internalType": "address[]",
          "name": "",
          "type": "address[]"
        }
      ],
      "stateMutability": "view",
      "type": "function"
    },
    {
      "inputs": [
        {
          "internalType": "bytes32",
          "name": "role",
          "type": "bytes32"
        }
      ],
      "name": "getRoleAdmin",
      "outputs": [
        {
          "internalType": "bytes32",
          "name": "",
          "type": "bytes32"
        }
      ],
      "stateMutability": "view",
      "type": "function"
    },
    {
      "inputs": [
        {
          "internalType": "address",
          "name": "smartContract",
          "type": "address"
        }
      ],
      "name": "getSmartContractSenderAccess",
      "outputs": [
        {
          "internalType": "bool",
          "name": "restricted",
          "type": "bool"
        },
        {
          "internalType": "address[]",
          "name": "",
          "type": "address[]"
        }
      ],
      "stateMutability": "view",
      "type": "function"
    },
    {
      "inputs": [
        {
          "internalType": "uint256",
          "name": "",
          "type": "uint256"
        }
      ],
      "name": "globalAdminsCount",
      "outputs": [
        {
          "internalType": "uint256",
          "name": "",
          "type": "uint256"
        }
      ],
      "stateMutability": "view",
      "type": "function"
    },
    {
      "inputs": [
        {
          "internalType": "bytes32",
          "name": "role",
          "type": "bytes32"
        },
        {
          "internalType": "address",
          "name": "account",
          "type": "address"
        }
      ],
      "name": "grantRole",
      "outputs": [],
      "stateMutability": "nonpayable",
      "type": "function"
    },
    {
      "inputs": [
        {
          "internalType": "bytes32",
          "name": "role",
          "type": "bytes32"
        },
        {
          "internalType": "address",
          "name": "account",
          "type": "address"
        }
      ],
      "name": "hasRole",
      "outputs": [
        {
          "internalType": "bool",
          "name": "",
          "type": "bool"
        }
      ],
      "stateMutability": "view",
      "type": "function"
    },
    {
      "inputs": [
        {
          "internalType": "address",
          "name": "account",
          "type": "address"
        }
      ],
      "name": "isAccountActive",
      "outputs": [
        {
          "internalType": "bool",
          "name": "",
          "type": "bool"
        }
      ],
      "stateMutability": "view",
      "type": "function"
    },
    {
      "inputs": [],
      "name": "organizations",
      "outputs": [
        {
          "internalType": "contract Organization",
          "name": "",
          "type": "address"
        }
      ],
      "stateMutability": "view",
      "type": "function"
    },
    {
      "inputs": [
        {
          "internalType": "bytes32",
          "name": "role",
          "type": "bytes32"
        },
        {
          "internalType": "address",
          "name": "callerConfirmation",
          "type": "address"
        }
      ],
      "name": "renounceRole",
      "outputs": [],
      "stateMutability": "nonpayable",
      "type": "function"
    },
    {
      "inputs": [
        {
          "internalType": "address",
          "name": "",
          "type": "address"
        },
        {
          "internalType": "uint256",
          "name": "",
          "type": "uint256"
        }
      ],
      "name": "restrictedAccountsAllowedTargets",
      "outputs": [
        {
          "internalType": "address",
          "name": "",
          "type": "address"
        }
      ],
      "stateMutability": "view",
      "type": "function"
    },
    {
      "inputs": [
        {
          "internalType": "address",
          "name": "",
          "type": "address"
        },
        {
          "internalType": "uint256",
          "name": "",
          "type": "uint256"
        }
      ],
      "name": "restrictedSmartContractsAllowedSenders",
      "outputs": [
        {
          "internalType": "address",
          "name": "",
          "type": "address"
        }
      ],
      "stateMutability": "view",
      "type": "function"
    },
    {
      "inputs": [
        {
          "internalType": "bytes32",
          "name": "role",
          "type": "bytes32"
        },
        {
          "internalType": "address",
          "name": "account",
          "type": "address"
        }
      ],
      "name": "revokeRole",
      "outputs": [],
      "stateMutability": "nonpayable",
      "type": "function"
    },
    {
      "inputs": [
        {
          "internalType": "address",
          "name": "account",
          "type": "address"
        },
        {
          "internalType": "bool",
          "name": "restricted",
          "type": "bool"
        },
        {
          "internalType": "address[]",
          "name": "allowedTargets",
          "type": "address[]"
        }
      ],
      "name": "setAccountTargetAccess",
      "outputs": [],
      "stateMutability": "nonpayable",
      "type": "function"
    },
    {
      "inputs": [
        {
          "internalType": "address",
          "name": "smartContract",
          "type": "address"
        },
        {
          "internalType": "bool",
          "name": "restricted",
          "type": "bool"
        },
        {
          "internalType": "address[]",
          "name": "allowedSenders",
          "type": "address[]"
        }
      ],
      "name": "setSmartContractSenderAccess",
      "outputs": [],
      "stateMutability": "nonpayable",
      "type": "function"
    },
    {
      "inputs": [
        {
          "internalType": "bytes4",
          "name": "interfaceId",
          "type": "bytes4"
        }
      ],
      "name": "supportsInterface",
      "outputs": [
        {
          "internalType": "bool",
          "name": "",
          "type": "bool"
        }
      ],
      "stateMutability": "view",
      "type": "function"
    },
    {
      "inputs": [
        {
          "internalType": "address",
          "name": "sender",
          "type": "address"
        },
        {
          "internalType": "address",
          "name": "target",
          "type": "address"
        },
        {
          "internalType": "uint256",
          "name": "",
          "type": "uint256"
        },
        {
          "internalType": "uint256",
          "name": "",
          "type": "uint256"
        },
        {
          "internalType": "uint256",
          "name": "",
          "type": "uint256"
        },
        {
          "internalType": "bytes",
          "name": "",
          "type": "bytes"
        }
      ],
      "name": "transactionAllowed",
      "outputs": [
        {
          "internalType": "bool",
          "name": "",
          "type": "bool"
        }
      ],
      "stateMutability": "view",
      "type": "function"
    },
    {
      "inputs": [
        {
          "internalType": "address",
          "name": "account",
          "type": "address"
        },
        {
          "internalType": "bytes32",
          "name": "roleId",
          "type": "bytes32"
        },
        {
          "internalType": "bytes32",
          "name": "dataHash",
          "type": "bytes32"
        }
      ],
      "name": "updateLocalAccount",
      "outputs": [],
      "stateMutability": "nonpayable",
      "type": "function"
    },
    {
      "inputs": [
        {
          "internalType": "address",
          "name": "account",
          "type": "address"
        },
        {
          "internalType": "bool",
          "name": "active",
          "type": "bool"
        }
      ],
      "name": "updateLocalAccountStatus",
      "outputs": [],
      "stateMutability": "nonpayable",
      "type": "function"
    },
    {
      "inputs": [
        {
          "internalType": "bytes32",
          "name": "",
          "type": "bytes32"
        }
      ],
      "name": "validRoles",
      "outputs": [
        {
          "internalType": "bool",
          "name": "",
          "type": "bool"
        }
      ],
      "stateMutability": "view",
      "type": "function"
    }
  ],
  "bytecode": "0x60c060405234801561001057600080fd5b5060405161627838038061627883398181016040528101906100329190610ae2565b80600073ffffffffffffffffffffffffffffffffffffffff168173ffffffffffffffffffffffffffffffffffffffff16036100a2576040517f08c379a000000000000000000000000000000000000000000000000000000000815260040161009990610bd4565b60405180910390fd5b8073ffffffffffffffffffffffffffffffffffffffff1660808173ffffffffffffffffffffffffffffffffffffffff168152505050600073ffffffffffffffffffffffffffffffffffffffff168373ffffffffffffffffffffffffffffffffffffffff1603610146576040517f7ffc6cec00000000000000000000000000000000000000000000000000000000815260040161013d90610c66565b60405180910390fd5b60028251101561018b576040517f7ffc6cec00000000000000000000000000000000000000000000000000000000815260040161018290610cd2565b60405180910390fd5b8273ffffffffffffffffffffffffffffffffffffffff1660a08173ffffffffffffffffffffffffffffffffffffffff168152505060005b825181101561023d5760008382815181106101e0576101df610cf2565b5b6020026020010151905060006001836101f99190610d5a565b905061023082827fd6e7d8560c69c7c18c2b8f3b45430215d788f128f0c04bc4a3607fe05eb5399f6000801b61037660201b60201c565b50508060010190506101c2565b506001600660007fd6e7d8560c69c7c18c2b8f3b45430215d788f128f0c04bc4a3607fe05eb5399f815260200190815260200160002060006101000a81548160ff0219169083151502179055506001600660007fb7f8beecafe1ad662cec1153812612581a86b9460f21b876f3ee163141203dcb815260200190815260200160002060006101000a81548160ff0219169083151502179055506001600660007ffc425f2263d0df187444b70e47283d622c70181c5baebb1306a01edba1ce184c815260200190815260200160002060006101000a81548160ff0219169083151502179055506001600660007f14823911f2da1b49f045a0929a60b8c1f2a7fc8c06c7284ca3e8ab4e193a08c8815260200190815260200160002060006101000a81548160ff021916908315150217905550505050610e4a565b610386828261055660201b60201c565b60006040518060a001604052808581526020018673ffffffffffffffffffffffffffffffffffffffff16815260200184815260200183815260200160011515815250905080600160008773ffffffffffffffffffffffffffffffffffffffff1673ffffffffffffffffffffffffffffffffffffffff1681526020019081526020016000206000820151816000015560208201518160010160006101000a81548173ffffffffffffffffffffffffffffffffffffffff021916908373ffffffffffffffffffffffffffffffffffffffff160217905550604082015181600201556060820151816003015560808201518160040160006101000a81548160ff0219169083151502179055509050506104a68560026105fa60201b90919060201c565b506104cc85600460008781526020019081526020016000206105fa60201b90919060201c565b506104dd838661063060201b60201c565b506104ee848461072d60201b60201c565b8060000151816020015173ffffffffffffffffffffffffffffffffffffffff167f81eecedef9bf4b3f1df7edc07dc199ff9949a4d48c5b4a18eb58be917af68de183604001518460600151604051610547929190610da7565b60405180910390a35050505050565b6000801b8114801561058857507fd6e7d8560c69c7c18c2b8f3b45430215d788f128f0c04bc4a3607fe05eb5399f8214155b80156105b457507fb7f8beecafe1ad662cec1153812612581a86b9460f21b876f3ee163141203dcb8214155b156105f657806040517fdde87c7d0000000000000000000000000000000000000000000000000000000081526004016105ed9190610e1c565b60405180910390fd5b5050565b6000610628836000018373ffffffffffffffffffffffffffffffffffffffff1660001b61079060201b60201c565b905092915050565b6000610642838361080660201b60201c565b61072257600160008085815260200190815260200160002060000160008473ffffffffffffffffffffffffffffffffffffffff1673ffffffffffffffffffffffffffffffffffffffff16815260200190815260200160002060006101000a81548160ff0219169083151502179055506106bf61087060201b60201c565b73ffffffffffffffffffffffffffffffffffffffff168273ffffffffffffffffffffffffffffffffffffffff16847f2f8788117e7eff1d82e926ec794901d17c78024a50270940304540a733656f0d60405160405180910390a460019050610727565b600090505b92915050565b7fd6e7d8560c69c7c18c2b8f3b45430215d788f128f0c04bc4a3607fe05eb5399f810361078c57600160056000848152602001908152602001600020546107749190610d5a565b60056000848152602001908152602001600020819055505b5050565b60006107a2838361087860201b60201c565b6107fb578260000182908060018154018082558091505060019003906000526020600020016000909190919091505582600001805490508360010160008481526020019081526020016000208190555060019050610800565b600090505b92915050565b600080600084815260200190815260200160002060000160008373ffffffffffffffffffffffffffffffffffffffff1673ffffffffffffffffffffffffffffffffffffffff16815260200190815260200160002060009054906101000a900460ff16905092915050565b600033905090565b600080836001016000848152602001908152602001600020541415905092915050565b6000604051905090565b600080fd5b600080fd5b600073ffffffffffffffffffffffffffffffffffffffff82169050919050565b60006108da826108af565b9050919050565b60006108ec826108cf565b9050919050565b6108fc816108e1565b811461090757600080fd5b50565b600081519050610919816108f3565b92915050565b600080fd5b6000601f19601f8301169050919050565b7f4e487b7100000000000000000000000000000000000000000000000000000000600052604160045260246000fd5b61096d82610924565b810181811067ffffffffffffffff8211171561098c5761098b610935565b5b80604052505050565b600061099f61089b565b90506109ab8282610964565b919050565b600067ffffffffffffffff8211156109cb576109ca610935565b5b602082029050602081019050919050565b600080fd5b6109ea816108cf565b81146109f557600080fd5b50565b600081519050610a07816109e1565b92915050565b6000610a20610a1b846109b0565b610995565b90508083825260208201905060208402830185811115610a4357610a426109dc565b5b835b81811015610a6c5780610a5888826109f8565b845260208401935050602081019050610a45565b5050509392505050565b600082601f830112610a8b57610a8a61091f565b5b8151610a9b848260208601610a0d565b91505092915050565b6000610aaf826108cf565b9050919050565b610abf81610aa4565b8114610aca57600080fd5b50565b600081519050610adc81610ab6565b92915050565b600080600060608486031215610afb57610afa6108a5565b5b6000610b098682870161090a565b935050602084015167ffffffffffffffff811115610b2a57610b296108aa565b5b610b3686828701610a76565b9250506040610b4786828701610acd565b9150509250925092565b600082825260208201905092915050565b7f496e76616c6964206164647265737320666f722041646d696e206d616e61676560008201527f6d656e7420736d61727420636f6e747261637400000000000000000000000000602082015250565b6000610bbe603383610b51565b9150610bc982610b62565b604082019050919050565b60006020820190508181036000830152610bed81610bb1565b9050919050565b7f496e76616c6964206164647265737320666f72204f7267616e697a6174696f6e60008201527f206d616e6167656d656e7420736d61727420636f6e7472616374000000000000602082015250565b6000610c50603a83610b51565b9150610c5b82610bf4565b604082019050919050565b60006020820190508181036000830152610c7f81610c43565b9050919050565b7f4174206c656173742032206163636f756e7473206d7573742065786973740000600082015250565b6000610cbc601e83610b51565b9150610cc782610c86565b602082019050919050565b60006020820190508181036000830152610ceb81610caf565b9050919050565b7f4e487b7100000000000000000000000000000000000000000000000000000000600052603260045260246000fd5b6000819050919050565b7f4e487b7100000000000000000000000000000000000000000000000000000000600052601160045260246000fd5b6000610d6582610d21565b9150610d7083610d21565b9250828201905080821115610d8857610d87610d2b565b5b92915050565b6000819050919050565b610da181610d8e565b82525050565b6000604082019050610dbc6000830185610d98565b610dc96020830184610d98565b9392505050565b7f4461746120686173682063616e6e6f7420626520307830000000000000000000600082015250565b6000610e06601783610b51565b9150610e1182610dd0565b602082019050919050565b6000604082019050610e316000830184610d98565b8181036020830152610e4281610df9565b905092915050565b60805160a0516153e6610e9260003960008181610f21015281816110750152612aa9015260008181610cff0152818161152901528181612a280152612b9f01526153e66000f3fe608060405234801561001057600080fd5b50600436106102115760003560e01c80636d8498c611610125578063ab9d0cdd116100ad578063d0420a141161007c578063d0420a141461069c578063d547741f146106b8578063e68a7c3b146106d4578063fb0f857e14610704578063fbcbc0f11461073457610211565b8063ab9d0cdd146105ee578063bdcca62a1461061e578063c7d6c2361461064e578063c91744241461066c57610211565b8063936421d5116100f4578063936421d514610522578063945d961d1461055257806397b94ffd14610582578063a217fddf146105b2578063a5de3619146105d057610211565b80636d8498c61461049c5780637003396a146104b85780638976ef1a146104d457806391d14854146104f257610211565b80632f2ff15d116101a857806344d285251161017757806344d28525146103d05780634c1b64cb146104005780635e5c06e21461041c5780635eba77cf146104505780636d3ed5b31461048057610211565b80632f2ff15d1461035e578063309e36ef1461037a57806336568abe14610398578063377a5a2d146103b457610211565b806318aa3810116101e457806318aa3810146102c4578063234db1de146102e0578063248a9ca3146102fe57806324efe7411461032e57610211565b806301ffc9a71461021657806305fa2754146102465780630d5facc114610262578063112165b314610293575b600080fd5b610230600480360381019061022b9190614009565b610764565b60405161023d9190614051565b60405180910390f35b610260600480360381019061025b9190614100565b6107de565b005b61027c60048036038101906102779190614153565b610b2d565b60405161028a92919061423e565b60405180910390f35b6102ad60048036038101906102a89190614153565b610c15565b6040516102bb92919061423e565b60405180910390f35b6102de60048036038101906102d991906142a4565b610cfd565b005b6102e8611073565b6040516102f5919061436a565b60405180910390f35b61031860048036038101906103139190614385565b611097565b60405161032591906143c1565b60405180910390f35b610348600480360381019061034391906143dc565b6110b6565b604051610355919061442b565b60405180910390f35b61037860048036038101906103739190614446565b611104565b005b610382611126565b60405161038f9190614495565b60405180910390f35b6103b260048036038101906103ad9190614446565b611137565b005b6103ce60048036038101906103c99190614153565b6111b2565b005b6103ea60048036038101906103e591906144b0565b61150f565b6040516103f79190614495565b60405180910390f35b61041a60048036038101906104159190614153565b611527565b005b61043660048036038101906104319190614153565b611773565b6040516104479594939291906144dd565b60405180910390f35b61046a600480360381019061046591906144b0565b6117d6565b6040516104779190614495565b60405180910390f35b61049a600480360381019061049591906145c1565b6117fa565b005b6104b660048036038101906104b19190614100565b611d01565b005b6104d260048036038101906104cd9190614635565b61221c565b005b6104dc612659565b6040516104e99190614495565b60405180910390f35b61050c60048036038101906105079190614446565b61266a565b6040516105199190614051565b60405180910390f35b61053c600480360381019061053791906146cb565b6126d4565b6040516105499190614051565b60405180910390f35b61056c600480360381019061056791906143dc565b6129bb565b604051610579919061442b565b60405180910390f35b61059c6004803603810190610597919061477a565b612a09565b6040516105a991906147ba565b60405180910390f35b6105ba612a1f565b6040516105c791906143c1565b60405180910390f35b6105d8612a26565b6040516105e591906147fd565b60405180910390f35b61060860048036038101906106039190614153565b612a4a565b6040516106159190614051565b60405180910390f35b6106386004803603810190610633919061477a565b612b4e565b60405161064591906147ba565b60405180910390f35b610656612b64565b6040516106639190614495565b60405180910390f35b61068660048036038101906106819190614818565b612b75565b60405161069391906149af565b60405180910390f35b6106b660048036038101906106b191906145c1565b612b9d565b005b6106d260048036038101906106cd9190614446565b612e14565b005b6106ee60048036038101906106e9919061477a565b612e36565b6040516106fb91906149af565b60405180910390f35b61071e60048036038101906107199190614385565b612e4c565b60405161072b9190614051565b60405180910390f35b61074e60048036038101906107499190614153565b612e6c565b60405161075b9190614a39565b60405180910390f35b60007f7965db0b000000000000000000000000000000000000000000000000000000007bffffffffffffffffffffffffffffffffffffffffffffffffffffffff1916827bffffffffffffffffffffffffffffffffffffffffffffffffffffffff191614806107d757506107d682613029565b5b9050919050565b6108087fd6e7d8560c69c7c18c2b8f3b45430215d788f128f0c04bc4a3607fe05eb5399f3361266a565b15801561083c575061083a7fb7f8beecafe1ad662cec1153812612581a86b9460f21b876f3ee163141203dcb3361266a565b155b1561087e57336040517fdccef964000000000000000000000000000000000000000000000000000000008152600401610875919061442b565b60405180910390fd5b61088733612a4a565b6108c857336040517ffcbe8fe50000000000000000000000000000000000000000000000000000000081526004016108bf9190614ad7565b60405180910390fd5b82600073ffffffffffffffffffffffffffffffffffffffff168173ffffffffffffffffffffffffffffffffffffffff160361093a57806040517f48a4ad340000000000000000000000000000000000000000000000000000000081526004016109319190614b51565b60405180910390fd5b83600073ffffffffffffffffffffffffffffffffffffffff16600160008373ffffffffffffffffffffffffffffffffffffffff1673ffffffffffffffffffffffffffffffffffffffff16815260200190815260200160002060010160009054906101000a900473ffffffffffffffffffffffffffffffffffffffff1673ffffffffffffffffffffffffffffffffffffffff1614610a0e57806040517febad245d000000000000000000000000000000000000000000000000000000008152600401610a05919061442b565b60405180910390fd5b836006600082815260200190815260200160002060009054906101000a900460ff16610a7157806040517f5bc4402b000000000000000000000000000000000000000000000000000000008152600401610a689190614bcb565b60405180910390fd5b847fd6e7d8560c69c7c18c2b8f3b45430215d788f128f0c04bc4a3607fe05eb5399f8103610ad657806040517f5bc4402b000000000000000000000000000000000000000000000000000000008152600401610acd9190614c45565b60405180910390fd5b610b2487600160003373ffffffffffffffffffffffffffffffffffffffff1673ffffffffffffffffffffffffffffffffffffffff168152602001908152602001600020600001548888613093565b50505050505050565b60006060610b4583600761326190919063ffffffff16565b600b60008573ffffffffffffffffffffffffffffffffffffffff1673ffffffffffffffffffffffffffffffffffffffff16815260200190815260200160002080805480602002602001604051908101604052809291908181526020018280548015610c0557602002820191906000526020600020905b8160009054906101000a900473ffffffffffffffffffffffffffffffffffffffff1673ffffffffffffffffffffffffffffffffffffffff1681526020019060010190808311610bbb575b5050505050905091509150915091565b60006060610c2d83600961326190919063ffffffff16565b600c60008573ffffffffffffffffffffffffffffffffffffffff1673ffffffffffffffffffffffffffffffffffffffff16815260200190815260200160002080805480602002602001604051908101604052809291908181526020018280548015610ced57602002820191906000526020600020905b8160009054906101000a900473ffffffffffffffffffffffffffffffffffffffff1673ffffffffffffffffffffffffffffffffffffffff1681526020019060010190808311610ca3575b5050505050905091509150915091565b7f000000000000000000000000000000000000000000000000000000000000000073ffffffffffffffffffffffffffffffffffffffff1663fe9fbb80336040518263ffffffff1660e01b8152600401610d56919061442b565b602060405180830381865afa158015610d73573d6000803e3d6000fd5b505050506040513d601f19601f82011682018060405250810190610d979190614c88565b610dd857336040517fdccef964000000000000000000000000000000000000000000000000000000008152600401610dcf919061442b565b60405180910390fd5b83600073ffffffffffffffffffffffffffffffffffffffff168173ffffffffffffffffffffffffffffffffffffffff1603610e4a57806040517f48a4ad34000000000000000000000000000000000000000000000000000000008152600401610e419190614b51565b60405180910390fd5b84600073ffffffffffffffffffffffffffffffffffffffff16600160008373ffffffffffffffffffffffffffffffffffffffff1673ffffffffffffffffffffffffffffffffffffffff16815260200190815260200160002060010160009054906101000a900473ffffffffffffffffffffffffffffffffffffffff1673ffffffffffffffffffffffffffffffffffffffff1614610f1e57806040517febad245d000000000000000000000000000000000000000000000000000000008152600401610f15919061442b565b60405180910390fd5b847f000000000000000000000000000000000000000000000000000000000000000073ffffffffffffffffffffffffffffffffffffffff16632e9e006c826040518263ffffffff1660e01b8152600401610f789190614495565b602060405180830381865afa158015610f95573d6000803e3d6000fd5b505050506040513d601f19601f82011682018060405250810190610fb99190614c88565b610ffa57806040517f515f8b81000000000000000000000000000000000000000000000000000000008152600401610ff19190614d27565b60405180910390fd5b846006600082815260200190815260200160002060009054906101000a900460ff1661105d57806040517f5bc4402b0000000000000000000000000000000000000000000000000000000081526004016110549190614bcb565b60405180910390fd5b61106988888888613093565b5050505050505050565b7f000000000000000000000000000000000000000000000000000000000000000081565b6000806000838152602001908152602001600020600101549050919050565b600c60205281600052604060002081815481106110d257600080fd5b906000526020600020016000915091509054906101000a900473ffffffffffffffffffffffffffffffffffffffff1681565b61110d82611097565b61111681613291565b61112083836132a5565b50505050565b60006111326002613396565b905090565b61113f6133ab565b73ffffffffffffffffffffffffffffffffffffffff168173ffffffffffffffffffffffffffffffffffffffff16146111a3576040517f6697b23200000000000000000000000000000000000000000000000000000000815260040160405180910390fd5b6111ad82826133b3565b505050565b6111dc7fd6e7d8560c69c7c18c2b8f3b45430215d788f128f0c04bc4a3607fe05eb5399f3361266a565b158015611210575061120e7fb7f8beecafe1ad662cec1153812612581a86b9460f21b876f3ee163141203dcb3361266a565b155b1561125257336040517fdccef964000000000000000000000000000000000000000000000000000000008152600401611249919061442b565b60405180910390fd5b61125b33612a4a565b61129c57336040517ffcbe8fe50000000000000000000000000000000000000000000000000000000081526004016112939190614ad7565b60405180910390fd5b80600073ffffffffffffffffffffffffffffffffffffffff16600160008373ffffffffffffffffffffffffffffffffffffffff1673ffffffffffffffffffffffffffffffffffffffff16815260200190815260200160002060010160009054906101000a900473ffffffffffffffffffffffffffffffffffffffff1673ffffffffffffffffffffffffffffffffffffffff160361137057806040517fa700fc32000000000000000000000000000000000000000000000000000000008152600401611367919061442b565b60405180910390fd5b81600160008273ffffffffffffffffffffffffffffffffffffffff1673ffffffffffffffffffffffffffffffffffffffff16815260200190815260200160002060000154600160003373ffffffffffffffffffffffffffffffffffffffff1673ffffffffffffffffffffffffffffffffffffffff168152602001908152602001600020600001541461143957806040517f4136f366000000000000000000000000000000000000000000000000000000008152600401611430919061442b565b60405180910390fd5b827fd6e7d8560c69c7c18c2b8f3b45430215d788f128f0c04bc4a3607fe05eb5399f600160008373ffffffffffffffffffffffffffffffffffffffff1673ffffffffffffffffffffffffffffffffffffffff1681526020019081526020016000206002015403611500577fd6e7d8560c69c7c18c2b8f3b45430215d788f128f0c04bc4a3607fe05eb5399f6040517f5bc4402b0000000000000000000000000000000000000000000000000000000081526004016114f79190614dc7565b60405180910390fd5b611509846134a5565b50505050565b60056020528060005260406000206000915090505481565b7f000000000000000000000000000000000000000000000000000000000000000073ffffffffffffffffffffffffffffffffffffffff1663fe9fbb80336040518263ffffffff1660e01b8152600401611580919061442b565b602060405180830381865afa15801561159d573d6000803e3d6000fd5b505050506040513d601f19601f820116820180604052508101906115c19190614c88565b61160257336040517fdccef9640000000000000000000000000000000000000000000000000000000081526004016115f9919061442b565b60405180910390fd5b80600073ffffffffffffffffffffffffffffffffffffffff16600160008373ffffffffffffffffffffffffffffffffffffffff1673ffffffffffffffffffffffffffffffffffffffff16815260200190815260200160002060010160009054906101000a900473ffffffffffffffffffffffffffffffffffffffff1673ffffffffffffffffffffffffffffffffffffffff16036116d657806040517fa700fc320000000000000000000000000000000000000000000000000000000081526004016116cd919061442b565b60405180910390fd5b816002611724600160008473ffffffffffffffffffffffffffffffffffffffff1673ffffffffffffffffffffffffffffffffffffffff168152602001908152602001600020600001546136c3565b1015611765576040517fc50656df00000000000000000000000000000000000000000000000000000000815260040161175c90614e67565b60405180910390fd5b61176e836134a5565b505050565b60016020528060005260406000206000915090508060000154908060010160009054906101000a900473ffffffffffffffffffffffffffffffffffffffff16908060020154908060030154908060040160009054906101000a900460ff16905085565b60006117f360046000848152602001908152602001600020613396565b9050919050565b6118247fd6e7d8560c69c7c18c2b8f3b45430215d788f128f0c04bc4a3607fe05eb5399f3361266a565b15801561185857506118567fb7f8beecafe1ad662cec1153812612581a86b9460f21b876f3ee163141203dcb3361266a565b155b1561189a57336040517fdccef964000000000000000000000000000000000000000000000000000000008152600401611891919061442b565b60405180910390fd5b6118a333612a4a565b6118e457336040517ffcbe8fe50000000000000000000000000000000000000000000000000000000081526004016118db9190614ad7565b60405180910390fd5b83600073ffffffffffffffffffffffffffffffffffffffff16600160008373ffffffffffffffffffffffffffffffffffffffff1673ffffffffffffffffffffffffffffffffffffffff16815260200190815260200160002060010160009054906101000a900473ffffffffffffffffffffffffffffffffffffffff1673ffffffffffffffffffffffffffffffffffffffff16036119b857806040517fa700fc320000000000000000000000000000000000000000000000000000000081526004016119af919061442b565b60405180910390fd5b84600160008273ffffffffffffffffffffffffffffffffffffffff1673ffffffffffffffffffffffffffffffffffffffff16815260200190815260200160002060000154600160003373ffffffffffffffffffffffffffffffffffffffff1673ffffffffffffffffffffffffffffffffffffffff1681526020019081526020016000206000015414611a8157806040517f4136f366000000000000000000000000000000000000000000000000000000008152600401611a78919061442b565b60405180910390fd5b857fd6e7d8560c69c7c18c2b8f3b45430215d788f128f0c04bc4a3607fe05eb5399f600160008373ffffffffffffffffffffffffffffffffffffffff1673ffffffffffffffffffffffffffffffffffffffff1681526020019081526020016000206002015403611b48577fd6e7d8560c69c7c18c2b8f3b45430215d788f128f0c04bc4a3607fe05eb5399f6040517f5bc4402b000000000000000000000000000000000000000000000000000000008152600401611b3f9190614dc7565b60405180910390fd5b8515611bfd5760008585905003611b94576040517f7ffc6cec000000000000000000000000000000000000000000000000000000008152600401611b8b90614ef9565b60405180910390fd5b611ba88760076136e090919063ffffffff16565b508484600b60008a73ffffffffffffffffffffffffffffffffffffffff1673ffffffffffffffffffffffffffffffffffffffff1681526020019081526020016000209190611bf7929190613e7c565b50611ca5565b6000858590501115611c44576040517f7ffc6cec000000000000000000000000000000000000000000000000000000008152600401611c3b90614f8b565b60405180910390fd5b611c5887600761371090919063ffffffff16565b50600b60008873ffffffffffffffffffffffffffffffffffffffff1673ffffffffffffffffffffffffffffffffffffffff1681526020019081526020016000206000611ca49190613f1c565b5b8515158773ffffffffffffffffffffffffffffffffffffffff167f6438daf5bfdee1f952e19259e9ba86ed432e222d0118cd27b6af0d016e7da27d8787604051611cf0929190615036565b60405180910390a350505050505050565b611d2b7fd6e7d8560c69c7c18c2b8f3b45430215d788f128f0c04bc4a3607fe05eb5399f3361266a565b158015611d5f5750611d5d7fb7f8beecafe1ad662cec1153812612581a86b9460f21b876f3ee163141203dcb3361266a565b155b15611da157336040517fdccef964000000000000000000000000000000000000000000000000000000008152600401611d98919061442b565b60405180910390fd5b611daa33612a4a565b611deb57336040517ffcbe8fe5000000000000000000000000000000000000000000000000000000008152600401611de29190614ad7565b60405180910390fd5b82600073ffffffffffffffffffffffffffffffffffffffff16600160008373ffffffffffffffffffffffffffffffffffffffff1673ffffffffffffffffffffffffffffffffffffffff16815260200190815260200160002060010160009054906101000a900473ffffffffffffffffffffffffffffffffffffffff1673ffffffffffffffffffffffffffffffffffffffff1603611ebf57806040517fa700fc32000000000000000000000000000000000000000000000000000000008152600401611eb6919061442b565b60405180910390fd5b83600160008273ffffffffffffffffffffffffffffffffffffffff1673ffffffffffffffffffffffffffffffffffffffff16815260200190815260200160002060000154600160003373ffffffffffffffffffffffffffffffffffffffff1673ffffffffffffffffffffffffffffffffffffffff1681526020019081526020016000206000015414611f8857806040517f4136f366000000000000000000000000000000000000000000000000000000008152600401611f7f919061442b565b60405180910390fd5b847fd6e7d8560c69c7c18c2b8f3b45430215d788f128f0c04bc4a3607fe05eb5399f600160008373ffffffffffffffffffffffffffffffffffffffff1673ffffffffffffffffffffffffffffffffffffffff168152602001908152602001600020600201540361204f577fd6e7d8560c69c7c18c2b8f3b45430215d788f128f0c04bc4a3607fe05eb5399f6040517f5bc4402b0000000000000000000000000000000000000000000000000000000081526004016120469190614dc7565b60405180910390fd5b846006600082815260200190815260200160002060009054906101000a900460ff166120b257806040517f5bc4402b0000000000000000000000000000000000000000000000000000000081526004016120a99190614bcb565b60405180910390fd5b857fd6e7d8560c69c7c18c2b8f3b45430215d788f128f0c04bc4a3607fe05eb5399f810361211757806040517f5bc4402b00000000000000000000000000000000000000000000000000000000815260040161210e9190614c45565b60405180910390fd5b6121218787613740565b6000600160008a73ffffffffffffffffffffffffffffffffffffffff1673ffffffffffffffffffffffffffffffffffffffff168152602001908152602001600020905061217281600201548a6133b3565b5087816002018190555061218a81600201548a6132a5565b5086816003018190555080600001548160010160009054906101000a900473ffffffffffffffffffffffffffffffffffffffff1673ffffffffffffffffffffffffffffffffffffffff167fca2fa9ed599b3d2371410ad4fbd7749941a8911abc76bac8a69e69e5321d4ae583600201548a60405161220992919061505a565b60405180910390a3505050505050505050565b6122467fd6e7d8560c69c7c18c2b8f3b45430215d788f128f0c04bc4a3607fe05eb5399f3361266a565b15801561227a57506122787fb7f8beecafe1ad662cec1153812612581a86b9460f21b876f3ee163141203dcb3361266a565b155b156122bc57336040517fdccef9640000000000000000000000000000000000000000000000000000000081526004016122b3919061442b565b60405180910390fd5b6122c533612a4a565b61230657336040517ffcbe8fe50000000000000000000000000000000000000000000000000000000081526004016122fd9190614ad7565b60405180910390fd5b81600073ffffffffffffffffffffffffffffffffffffffff16600160008373ffffffffffffffffffffffffffffffffffffffff1673ffffffffffffffffffffffffffffffffffffffff16815260200190815260200160002060010160009054906101000a900473ffffffffffffffffffffffffffffffffffffffff1673ffffffffffffffffffffffffffffffffffffffff16036123da57806040517fa700fc320000000000000000000000000000000000000000000000000000000081526004016123d1919061442b565b60405180910390fd5b82600160008273ffffffffffffffffffffffffffffffffffffffff1673ffffffffffffffffffffffffffffffffffffffff16815260200190815260200160002060000154600160003373ffffffffffffffffffffffffffffffffffffffff1673ffffffffffffffffffffffffffffffffffffffff16815260200190815260200160002060000154146124a357806040517f4136f36600000000000000000000000000000000000000000000000000000000815260040161249a919061442b565b60405180910390fd5b837fd6e7d8560c69c7c18c2b8f3b45430215d788f128f0c04bc4a3607fe05eb5399f600160008373ffffffffffffffffffffffffffffffffffffffff1673ffffffffffffffffffffffffffffffffffffffff168152602001908152602001600020600201540361256a577fd6e7d8560c69c7c18c2b8f3b45430215d788f128f0c04bc4a3607fe05eb5399f6040517f5bc4402b0000000000000000000000000000000000000000000000000000000081526004016125619190614dc7565b60405180910390fd5b6000600160008773ffffffffffffffffffffffffffffffffffffffff1673ffffffffffffffffffffffffffffffffffffffff1681526020019081526020016000209050848160040160006101000a81548160ff02191690831515021790555080600001548160010160009054906101000a900473ffffffffffffffffffffffffffffffffffffffff1673ffffffffffffffffffffffffffffffffffffffff167fcdd3d81bc62161c675cf56d4147f26f7c5bb07950ce66d1f88d4c98a9d4b12898360040160009054906101000a900460ff166040516126499190614051565b60405180910390a3505050505050565b60006126656007613396565b905090565b600080600084815260200190815260200160002060000160008373ffffffffffffffffffffffffffffffffffffffff1673ffffffffffffffffffffffffffffffffffffffff16815260200190815260200160002060009054906101000a900460ff16905092915050565b60006126df88612a4a565b6126ec57600090506129b0565b8673ffffffffffffffffffffffffffffffffffffffff16600073ffffffffffffffffffffffffffffffffffffffff16036127b35761274a7ffc425f2263d0df187444b70e47283d622c70181c5baebb1306a01edba1ce184c8961266a565b8061277b575061277a7fb7f8beecafe1ad662cec1153812612581a86b9460f21b876f3ee163141203dcb8961266a565b5b806127ac57506127ab7fd6e7d8560c69c7c18c2b8f3b45430215d788f128f0c04bc4a3607fe05eb5399f8961266a565b5b90506129b0565b6127c788600761326190919063ffffffff16565b156128af576000600b60008a73ffffffffffffffffffffffffffffffffffffffff1673ffffffffffffffffffffffffffffffffffffffff168152602001908152602001600020905060005b81805490508110156128a45781818154811061283157612830615083565b5b9060005260206000200160009054906101000a900473ffffffffffffffffffffffffffffffffffffffff1673ffffffffffffffffffffffffffffffffffffffff168973ffffffffffffffffffffffffffffffffffffffff1603612899576001925050506129b0565b806001019050612812565b5060009150506129b0565b6128c387600961326190919063ffffffff16565b156129ab576000600c60008973ffffffffffffffffffffffffffffffffffffffff1673ffffffffffffffffffffffffffffffffffffffff168152602001908152602001600020905060005b81805490508110156129a05781818154811061292d5761292c615083565b5b9060005260206000200160009054906101000a900473ffffffffffffffffffffffffffffffffffffffff1673ffffffffffffffffffffffffffffffffffffffff168a73ffffffffffffffffffffffffffffffffffffffff1603612995576001925050506129b0565b80600101905061290e565b5060009150506129b0565b600190505b979650505050505050565b600b60205281600052604060002081815481106129d757600080fd5b906000526020600020016000915091509054906101000a900473ffffffffffffffffffffffffffffffffffffffff1681565b6060612a17600784846137e4565b905092915050565b6000801b81565b7f000000000000000000000000000000000000000000000000000000000000000081565b600080600160008473ffffffffffffffffffffffffffffffffffffffff1673ffffffffffffffffffffffffffffffffffffffff16815260200190815260200160002090508060040160009054906101000a900460ff168015612b4657507f000000000000000000000000000000000000000000000000000000000000000073ffffffffffffffffffffffffffffffffffffffff16632e9e006c82600001546040518263ffffffff1660e01b8152600401612b049190614495565b602060405180830381865afa158015612b21573d6000803e3d6000fd5b505050506040513d601f19601f82011682018060405250810190612b459190614c88565b5b915050919050565b6060612b5c600984846137e4565b905092915050565b6000612b706009613396565b905090565b6060612b946004600086815260200190815260200160002084846138ea565b90509392505050565b7f000000000000000000000000000000000000000000000000000000000000000073ffffffffffffffffffffffffffffffffffffffff1663fe9fbb80336040518263ffffffff1660e01b8152600401612bf6919061442b565b602060405180830381865afa158015612c13573d6000803e3d6000fd5b505050506040513d601f19601f82011682018060405250810190612c379190614c88565b612c7857336040517fdccef964000000000000000000000000000000000000000000000000000000008152600401612c6f919061442b565b60405180910390fd5b83600073ffffffffffffffffffffffffffffffffffffffff168173ffffffffffffffffffffffffffffffffffffffff1603612cea57806040517f48a4ad34000000000000000000000000000000000000000000000000000000008152600401612ce19190614b51565b60405180910390fd5b8315612d5957612d048560096136e090919063ffffffff16565b508282600c60008873ffffffffffffffffffffffffffffffffffffffff1673ffffffffffffffffffffffffffffffffffffffff1681526020019081526020016000209190612d53929190613e7c565b50612dba565b612d6d85600961371090919063ffffffff16565b50600c60008673ffffffffffffffffffffffffffffffffffffffff1673ffffffffffffffffffffffffffffffffffffffff1681526020019081526020016000206000612db99190613f1c565b5b8315158573ffffffffffffffffffffffffffffffffffffffff167f5765f9b1937a6b304ffac28c9d3111857e82ea35380cf6a98001216275fb41f48585604051612e05929190615036565b60405180910390a35050505050565b612e1d82611097565b612e2681613291565b612e3083836133b3565b50505050565b6060612e44600284846138ea565b905092915050565b60066020528060005260406000206000915054906101000a900460ff1681565b612e74613f3d565b81600073ffffffffffffffffffffffffffffffffffffffff16600160008373ffffffffffffffffffffffffffffffffffffffff1673ffffffffffffffffffffffffffffffffffffffff16815260200190815260200160002060010160009054906101000a900473ffffffffffffffffffffffffffffffffffffffff1673ffffffffffffffffffffffffffffffffffffffff1603612f4857806040517fa700fc32000000000000000000000000000000000000000000000000000000008152600401612f3f919061442b565b60405180910390fd5b600160008473ffffffffffffffffffffffffffffffffffffffff1673ffffffffffffffffffffffffffffffffffffffff1681526020019081526020016000206040518060a0016040529081600082015481526020016001820160009054906101000a900473ffffffffffffffffffffffffffffffffffffffff1673ffffffffffffffffffffffffffffffffffffffff1673ffffffffffffffffffffffffffffffffffffffff16815260200160028201548152602001600382015481526020016004820160009054906101000a900460ff161515151581525050915050919050565b60007f01ffc9a7000000000000000000000000000000000000000000000000000000007bffffffffffffffffffffffffffffffffffffffffffffffffffffffff1916827bffffffffffffffffffffffffffffffffffffffffffffffffffffffff1916149050919050565b61309d8282613740565b60006040518060a001604052808581526020018673ffffffffffffffffffffffffffffffffffffffff16815260200184815260200183815260200160011515815250905080600160008773ffffffffffffffffffffffffffffffffffffffff1673ffffffffffffffffffffffffffffffffffffffff1681526020019081526020016000206000820151816000015560208201518160010160006101000a81548173ffffffffffffffffffffffffffffffffffffffff021916908373ffffffffffffffffffffffffffffffffffffffff160217905550604082015181600201556060820151816003015560808201518160040160006101000a81548160ff0219169083151502179055509050506131bd8560026136e090919063ffffffff16565b506131e385600460008781526020019081526020016000206136e090919063ffffffff16565b506131ee83866132a5565b506131f98484613a89565b8060000151816020015173ffffffffffffffffffffffffffffffffffffffff167f81eecedef9bf4b3f1df7edc07dc199ff9949a4d48c5b4a18eb58be917af68de18360400151846060015160405161325292919061505a565b60405180910390a35050505050565b6000613289836000018373ffffffffffffffffffffffffffffffffffffffff1660001b613aec565b905092915050565b6132a28161329d6133ab565b613b0f565b50565b60006132b1838361266a565b61338b57600160008085815260200190815260200160002060000160008473ffffffffffffffffffffffffffffffffffffffff1673ffffffffffffffffffffffffffffffffffffffff16815260200190815260200160002060006101000a81548160ff0219169083151502179055506133286133ab565b73ffffffffffffffffffffffffffffffffffffffff168273ffffffffffffffffffffffffffffffffffffffff16847f2f8788117e7eff1d82e926ec794901d17c78024a50270940304540a733656f0d60405160405180910390a460019050613390565b600090505b92915050565b60006133a482600001613b60565b9050919050565b600033905090565b60006133bf838361266a565b1561349a57600080600085815260200190815260200160002060000160008473ffffffffffffffffffffffffffffffffffffffff1673ffffffffffffffffffffffffffffffffffffffff16815260200190815260200160002060006101000a81548160ff0219169083151502179055506134376133ab565b73ffffffffffffffffffffffffffffffffffffffff168273ffffffffffffffffffffffffffffffffffffffff16847ff6391f5c32d9c69d2a47ea670b442974b53935d1edc7fd64eb21e047a839171b60405160405180910390a46001905061349f565b600090505b92915050565b6000600160008373ffffffffffffffffffffffffffffffffffffffff1673ffffffffffffffffffffffffffffffffffffffff1681526020019081526020016000206040518060a0016040529081600082015481526020016001820160009054906101000a900473ffffffffffffffffffffffffffffffffffffffff1673ffffffffffffffffffffffffffffffffffffffff1673ffffffffffffffffffffffffffffffffffffffff16815260200160028201548152602001600382015481526020016004820160009054906101000a900460ff16151515158152505090506135908160400151836133b3565b50600160008373ffffffffffffffffffffffffffffffffffffffff1673ffffffffffffffffffffffffffffffffffffffff1681526020019081526020016000206000808201600090556001820160006101000a81549073ffffffffffffffffffffffffffffffffffffffff0219169055600282016000905560038201600090556004820160006101000a81549060ff0219169055505061363a82600261371090919063ffffffff16565b5061366482600460008460000151815260200190815260200160002061371090919063ffffffff16565b5061367781600001518260400151613b71565b80600001518273ffffffffffffffffffffffffffffffffffffffff167f8e43150ed341ffda3c5b2ba5b986adf6734c47042cb4277b5760828b75f8873960405160405180910390a35050565b600060056000838152602001908152602001600020549050919050565b6000613708836000018373ffffffffffffffffffffffffffffffffffffffff1660001b613bd4565b905092915050565b6000613738836000018373ffffffffffffffffffffffffffffffffffffffff1660001b613c44565b905092915050565b6000801b8114801561377257507fd6e7d8560c69c7c18c2b8f3b45430215d788f128f0c04bc4a3607fe05eb5399f8214155b801561379e57507fb7f8beecafe1ad662cec1153812612581a86b9460f21b876f3ee163141203dcb8214155b156137e057806040517fdde87c7d0000000000000000000000000000000000000000000000000000000081526004016137d791906150fe565b60405180910390fd5b5050565b60606000806137fc6137f587613396565b8686613d58565b915091506000828261380e919061515b565b67ffffffffffffffff8111156138275761382661518f565b5b6040519080825280602002602001820160405280156138555781602001602082028036833780820191505090505b50905060008390505b828110156138dc576138798189613e3790919063ffffffff16565b828583613886919061515b565b8151811061389757613896615083565b5b602002602001019073ffffffffffffffffffffffffffffffffffffffff16908173ffffffffffffffffffffffffffffffffffffffff168152505080600101905061385e565b508093505050509392505050565b606060006138f98585856137e4565b90506000815167ffffffffffffffff8111156139185761391761518f565b5b60405190808252806020026020018201604052801561395157816020015b61393e613f3d565b8152602001906001900390816139365790505b50905060005b8151811015613a7c576001600084838151811061397757613976615083565b5b602002602001015173ffffffffffffffffffffffffffffffffffffffff1673ffffffffffffffffffffffffffffffffffffffff1681526020019081526020016000206040518060a0016040529081600082015481526020016001820160009054906101000a900473ffffffffffffffffffffffffffffffffffffffff1673ffffffffffffffffffffffffffffffffffffffff1673ffffffffffffffffffffffffffffffffffffffff16815260200160028201548152602001600382015481526020016004820160009054906101000a900460ff161515151581525050828281518110613a6657613a65615083565b5b6020026020010181905250806001019050613957565b5080925050509392505050565b7fd6e7d8560c69c7c18c2b8f3b45430215d788f128f0c04bc4a3607fe05eb5399f8103613ae85760016005600084815260200190815260200160002054613ad091906151be565b60056000848152602001908152602001600020819055505b5050565b600080836001016000848152602001908152602001600020541415905092915050565b613b19828261266a565b613b5c5780826040517fe2517d3f000000000000000000000000000000000000000000000000000000008152600401613b539291906151f2565b60405180910390fd5b5050565b600081600001805490509050919050565b7fd6e7d8560c69c7c18c2b8f3b45430215d788f128f0c04bc4a3607fe05eb5399f8103613bd05760016005600084815260200190815260200160002054613bb8919061515b565b60056000848152602001908152602001600020819055505b5050565b6000613be08383613aec565b613c39578260000182908060018154018082558091505060019003906000526020600020016000909190919091505582600001805490508360010160008481526020019081526020016000208190555060019050613c3e565b600090505b92915050565b60008083600101600084815260200190815260200160002054905060008114613d4c576000600182613c76919061515b565b9050600060018660000180549050613c8e919061515b565b9050808214613cfd576000866000018281548110613caf57613cae615083565b5b9060005260206000200154905080876000018481548110613cd357613cd2615083565b5b90600052602060002001819055508387600101600083815260200190815260200160002081905550505b85600001805480613d1157613d1061521b565b5b600190038181906000526020600020016000905590558560010160008681526020019081526020016000206000905560019350505050613d52565b60009150505b92915050565b6000806001841015613d9f576040517f2569f2c7000000000000000000000000000000000000000000000000000000008152600401613d96906152bc565b60405180910390fd5b6001831015613de3576040517f2569f2c7000000000000000000000000000000000000000000000000000000008152600401613dda9061534e565b60405180910390fd5b600083600186613df3919061515b565b613dfd919061536e565b905085811115613e0b578590505b60008482613e1991906151be565b905086811115613e27578690505b8181935093505050935093915050565b6000613e468360000183613e51565b60001c905092915050565b6000826000018281548110613e6957613e68615083565b5b9060005260206000200154905092915050565b828054828255906000526020600020908101928215613f0b579160200282015b82811115613f0a57823573ffffffffffffffffffffffffffffffffffffffff168260006101000a81548173ffffffffffffffffffffffffffffffffffffffff021916908373ffffffffffffffffffffffffffffffffffffffff16021790555091602001919060010190613e9c565b5b509050613f189190613f8a565b5090565b5080546000825590600052602060002090810190613f3a9190613f8a565b50565b6040518060a0016040528060008152602001600073ffffffffffffffffffffffffffffffffffffffff16815260200160008019168152602001600080191681526020016000151581525090565b5b80821115613fa3576000816000905550600101613f8b565b5090565b600080fd5b600080fd5b60007fffffffff0000000000000000000000000000000000000000000000000000000082169050919050565b613fe681613fb1565b8114613ff157600080fd5b50565b60008135905061400381613fdd565b92915050565b60006020828403121561401f5761401e613fa7565b5b600061402d84828501613ff4565b91505092915050565b60008115159050919050565b61404b81614036565b82525050565b60006020820190506140666000830184614042565b92915050565b600073ffffffffffffffffffffffffffffffffffffffff82169050919050565b60006140978261406c565b9050919050565b6140a78161408c565b81146140b257600080fd5b50565b6000813590506140c48161409e565b92915050565b6000819050919050565b6140dd816140ca565b81146140e857600080fd5b50565b6000813590506140fa816140d4565b92915050565b60008060006060848603121561411957614118613fa7565b5b6000614127868287016140b5565b9350506020614138868287016140eb565b9250506040614149868287016140eb565b9150509250925092565b60006020828403121561416957614168613fa7565b5b6000614177848285016140b5565b91505092915050565b600081519050919050565b600082825260208201905092915050565b6000819050602082019050919050565b6141b58161408c565b82525050565b60006141c783836141ac565b60208301905092915050565b6000602082019050919050565b60006141eb82614180565b6141f5818561418b565b93506142008361419c565b8060005b8381101561423157815161421888826141bb565b9750614223836141d3565b925050600181019050614204565b5085935050505092915050565b60006040820190506142536000830185614042565b818103602083015261426581846141e0565b90509392505050565b6000819050919050565b6142818161426e565b811461428c57600080fd5b50565b60008135905061429e81614278565b92915050565b600080600080608085870312156142be576142bd613fa7565b5b60006142cc878288016140b5565b94505060206142dd8782880161428f565b93505060406142ee878288016140eb565b92505060606142ff878288016140eb565b91505092959194509250565b6000819050919050565b600061433061432b6143268461406c565b61430b565b61406c565b9050919050565b600061434282614315565b9050919050565b600061435482614337565b9050919050565b61436481614349565b82525050565b600060208201905061437f600083018461435b565b92915050565b60006020828403121561439b5761439a613fa7565b5b60006143a9848285016140eb565b91505092915050565b6143bb816140ca565b82525050565b60006020820190506143d660008301846143b2565b92915050565b600080604083850312156143f3576143f2613fa7565b5b6000614401858286016140b5565b92505060206144128582860161428f565b9150509250929050565b6144258161408c565b82525050565b6000602082019050614440600083018461441c565b92915050565b6000806040838503121561445d5761445c613fa7565b5b600061446b858286016140eb565b925050602061447c858286016140b5565b9150509250929050565b61448f8161426e565b82525050565b60006020820190506144aa6000830184614486565b92915050565b6000602082840312156144c6576144c5613fa7565b5b60006144d48482850161428f565b91505092915050565b600060a0820190506144f26000830188614486565b6144ff602083018761441c565b61450c60408301866143b2565b61451960608301856143b2565b6145266080830184614042565b9695505050505050565b61453981614036565b811461454457600080fd5b50565b60008135905061455681614530565b92915050565b600080fd5b600080fd5b600080fd5b60008083601f8401126145815761458061455c565b5b8235905067ffffffffffffffff81111561459e5761459d614561565b5b6020830191508360208202830111156145ba576145b9614566565b5b9250929050565b600080600080606085870312156145db576145da613fa7565b5b60006145e9878288016140b5565b94505060206145fa87828801614547565b935050604085013567ffffffffffffffff81111561461b5761461a613fac565b5b6146278782880161456b565b925092505092959194509250565b6000806040838503121561464c5761464b613fa7565b5b600061465a858286016140b5565b925050602061466b85828601614547565b9150509250929050565b60008083601f84011261468b5761468a61455c565b5b8235905067ffffffffffffffff8111156146a8576146a7614561565b5b6020830191508360018202830111156146c4576146c3614566565b5b9250929050565b600080600080600080600060c0888a0312156146ea576146e9613fa7565b5b60006146f88a828b016140b5565b97505060206147098a828b016140b5565b965050604061471a8a828b0161428f565b955050606061472b8a828b0161428f565b945050608061473c8a828b0161428f565b93505060a088013567ffffffffffffffff81111561475d5761475c613fac565b5b6147698a828b01614675565b925092505092959891949750929550565b6000806040838503121561479157614790613fa7565b5b600061479f8582860161428f565b92505060206147b08582860161428f565b9150509250929050565b600060208201905081810360008301526147d481846141e0565b905092915050565b60006147e782614337565b9050919050565b6147f7816147dc565b82525050565b600060208201905061481260008301846147ee565b92915050565b60008060006060848603121561483157614830613fa7565b5b600061483f8682870161428f565b93505060206148508682870161428f565b92505060406148618682870161428f565b9150509250925092565b600081519050919050565b600082825260208201905092915050565b6000819050602082019050919050565b6148a08161426e565b82525050565b6148af816140ca565b82525050565b6148be81614036565b82525050565b60a0820160008201516148da6000850182614897565b5060208201516148ed60208501826141ac565b50604082015161490060408501826148a6565b50606082015161491360608501826148a6565b50608082015161492660808501826148b5565b50505050565b600061493883836148c4565b60a08301905092915050565b6000602082019050919050565b600061495c8261486b565b6149668185614876565b935061497183614887565b8060005b838110156149a2578151614989888261492c565b975061499483614944565b925050600181019050614975565b5085935050505092915050565b600060208201905081810360008301526149c98184614951565b905092915050565b60a0820160008201516149e76000850182614897565b5060208201516149fa60208501826141ac565b506040820151614a0d60408501826148a6565b506060820151614a2060608501826148a6565b506080820151614a3360808501826148b5565b50505050565b600060a082019050614a4e60008301846149d1565b92915050565b600082825260208201905092915050565b7f546865206163636f756e74206f72207468652072657370656374697665206f7260008201527f67616e697a6174696f6e206973206e6f74206163746976650000000000000000602082015250565b6000614ac1603883614a54565b9150614acc82614a65565b604082019050919050565b6000604082019050614aec600083018461441c565b8181036020830152614afd81614ab4565b905092915050565b7f416464726573732063616e6e6f74206265203078300000000000000000000000600082015250565b6000614b3b601583614a54565b9150614b4682614b05565b602082019050919050565b6000604082019050614b66600083018461441c565b8181036020830152614b7781614b2e565b905092915050565b7f54686520696e666f726d656420726f6c6520697320756e6b6e6f776e00000000600082015250565b6000614bb5601c83614a54565b9150614bc082614b7f565b602082019050919050565b6000604082019050614be060008301846143b2565b8181036020830152614bf181614ba8565b905092915050565b7f54686520726f6c652063616e6e6f7420626520676c6f62616c2061646d696e00600082015250565b6000614c2f601f83614a54565b9150614c3a82614bf9565b602082019050919050565b6000604082019050614c5a60008301846143b2565b8181036020830152614c6b81614c22565b905092915050565b600081519050614c8281614530565b92915050565b600060208284031215614c9e57614c9d613fa7565b5b6000614cac84828501614c73565b91505092915050565b7f54686520696e666f726d6564206f7267616e697a6174696f6e20697320756e6b60008201527f6e6f776e00000000000000000000000000000000000000000000000000000000602082015250565b6000614d11602483614a54565b9150614d1c82614cb5565b604082019050919050565b6000604082019050614d3c6000830184614486565b8181036020830152614d4d81614d04565b905092915050565b7f546865206163636f756e742063616e6e6f7420626520676c6f62616c2061646d60008201527f696e000000000000000000000000000000000000000000000000000000000000602082015250565b6000614db1602283614a54565b9150614dbc82614d55565b604082019050919050565b6000604082019050614ddc60008301846143b2565b8181036020830152614ded81614da4565b905092915050565b7f4174206c65617374203120676c6f62616c2061646d696e6973747261746f722060008201527f6d75737420626520616374697665000000000000000000000000000000000000602082015250565b6000614e51602e83614a54565b9150614e5c82614df5565b604082019050919050565b60006020820190508181036000830152614e8081614e44565b9050919050565b7f4174206c65617374206f6e6520616c6c6f77656420746172676574206d75737460008201527f20626520696e666f726d65640000000000000000000000000000000000000000602082015250565b6000614ee3602c83614a54565b9150614eee82614e87565b604082019050919050565b60006020820190508181036000830152614f1281614ed6565b9050919050565b7f4e6f20616c6c6f776564207461726765742073686f756c64206861766520626560008201527f656e20696e666f726d6564000000000000000000000000000000000000000000602082015250565b6000614f75602b83614a54565b9150614f8082614f19565b604082019050919050565b60006020820190508181036000830152614fa481614f68565b9050919050565b6000819050919050565b6000614fc460208401846140b5565b905092915050565b6000602082019050919050565b6000614fe5838561418b565b9350614ff082614fab565b8060005b85811015615029576150068284614fb5565b61501088826141bb565b975061501b83614fcc565b925050600181019050614ff4565b5085925050509392505050565b60006020820190508181036000830152615051818486614fd9565b90509392505050565b600060408201905061506f60008301856143b2565b61507c60208301846143b2565b9392505050565b7f4e487b7100000000000000000000000000000000000000000000000000000000600052603260045260246000fd5b7f4461746120686173682063616e6e6f7420626520307830000000000000000000600082015250565b60006150e8601783614a54565b91506150f3826150b2565b602082019050919050565b600060408201905061511360008301846143b2565b8181036020830152615124816150db565b905092915050565b7f4e487b7100000000000000000000000000000000000000000000000000000000600052601160045260246000fd5b60006151668261426e565b91506151718361426e565b92508282039050818111156151895761518861512c565b5b92915050565b7f4e487b7100000000000000000000000000000000000000000000000000000000600052604160045260246000fd5b60006151c98261426e565b91506151d48361426e565b92508282019050808211156151ec576151eb61512c565b5b92915050565b6000604082019050615207600083018561441c565b61521460208301846143b2565b9392505050565b7f4e487b7100000000000000000000000000000000000000000000000000000000600052603160045260246000fd5b7f50616765206d7573742062652067726561746572206f7220657175616c20746f60008201527f2031200000000000000000000000000000000000000000000000000000000000602082015250565b60006152a6602383614a54565b91506152b18261524a565b604082019050919050565b600060208201905081810360008301526152d581615299565b9050919050565b7f506167652073697a65206d7573742062652067726561746572206f722065717560008201527f616c20746f203120000000000000000000000000000000000000000000000000602082015250565b6000615338602883614a54565b9150615343826152dc565b604082019050919050565b600060208201905081810360008301526153678161532b565b9050919050565b60006153798261426e565b91506153848361426e565b92508282026153928161426e565b915082820484148315176153a9576153a861512c565b5b509291505056fea26469706673582212200e81b4f2c0db86f33ce819c75c10077d54e815c5bbbe9859f8305ed74935d2b664736f6c634300081a0033",
  "linkReferences": {},
  "deployedLinkReferences": {}
}