{
  "_format": "hh-sol-artifact-1",
  "contractName": "AccountIngress",
  "sourceName": "contracts/AccountIngress.sol",
  "abi": [
    {
      "anonymous": false,
      "inputs": [
        {
          "indexed": false,
          "internalType": "address",
          "name": "contractAddress",
          "type": "address"
        },
        {
          "indexed": false,
          "internalType": "bytes32",
          "name": "contractName",
          "type": "bytes32"
        }
      ],
      "name": "RegistryUpdated",
      "type": "event"
    },
    {
      "inputs": [],
      "name": "ADMIN_CONTRACT",
      "outputs": [
        {
          "internalType": "bytes32",
          "name": "",
          "type": "bytes32"
        }
      ],
      "stateMutability": "view",
      "type": "function"
    },
    {
      "inputs": [],
      "name": "RULES_CONTRACT",
      "outputs": [
        {
          "internalType": "bytes32",
          "name": "",
          "type": "bytes32"
        }
      ],
      "stateMutability": "view",
      "type": "function"
    },
    {
      "inputs": [],
      "name": "getAllContractKeys",
      "outputs": [
        {
          "internalType": "bytes32[]",
          "name": "",
          "type": "bytes32[]"
        }
      ],
      "stateMutability": "view",
      "type": "function"
    },
    {
      "inputs": [
        {
          "internalType": "bytes32",
          "name": "name",
          "type": "bytes32"
        }
      ],
      "name": "getContractAddress",
      "outputs": [
        {
          "internalType": "address",
          "name": "",
          "type": "address"
        }
      ],
      "stateMutability": "view",
      "type": "function"
    },
    {
      "inputs": [],
      "name": "getContractVersion",
      "outputs": [
        {
          "internalType": "uint256",
          "name": "",
          "type": "uint256"
        }
      ],
      "stateMutability": "view",
      "type": "function"
    },
    {
      "inputs": [],
      "name": "getSize",
      "outputs": [
        {
          "internalType": "uint256",
          "name": "",
          "type": "uint256"
        }
      ],
      "stateMutability": "view",
      "type": "function"
    },
    {
      "inputs": [
        {
          "internalType": "address",
          "name": "account",
          "type": "address"
        }
      ],
      "name": "isAuthorized",
      "outputs": [
        {
          "internalType": "bool",
          "name": "",
          "type": "bool"
        }
      ],
      "stateMutability": "view",
      "type": "function"
    },
    {
      "inputs": [
        {
          "internalType": "bytes32",
          "name": "_name",
          "type": "bytes32"
        }
      ],
      "name": "removeContract",
      "outputs": [
        {
          "internalType": "bool",
          "name": "",
          "type": "bool"
        }
      ],
      "stateMutability": "nonpayable",
      "type": "function"
    },
    {
      "inputs": [
        {
          "internalType": "bytes32",
          "name": "name",
          "type": "bytes32"
        },
        {
          "internalType": "address",
          "name": "addr",
          "type": "address"
        }
      ],
      "name": "setContractAddress",
      "outputs": [
        {
          "internalType": "bool",
          "name": "",
          "type": "bool"
        }
      ],
      "stateMutability": "nonpayable",
      "type": "function"
    },
    {
      "inputs": [
        {
          "internalType": "address",
          "name": "sender",
          "type": "address"
        },
        {
          "internalType": "address",
          "name": "target",
          "type": "address"
        },
        {
          "internalType": "uint256",
          "name": "value",
          "type": "uint256"
        },
        {
          "internalType": "uint256",
          "name": "gasPrice",
          "type": "uint256"
        },
        {
          "internalType": "uint256",
          "name": "gasLimit",
          "type": "uint256"
        },
        {
          "internalType": "bytes",
          "name": "payload",
          "type": "bytes"
        }
      ],
      "name": "transactionAllowed",
      "outputs": [
        {
          "internalType": "bool",
          "name": "",
          "type": "bool"
        }
      ],
      "stateMutability": "view",
      "type": "function"
    }
  ],
  "bytecode": "0x60806040527f72756c657300000000000000000000000000000000000000000000000000000060001b6000557f61646d696e697374726174696f6e00000000000000000000000000000000000060001b600155620f4240600555348015606457600080fd5b5061137b806100746000396000f3fe608060405234801561001057600080fd5b506004361061009e5760003560e01c8063936421d511610066578063936421d51461014b578063a43e04d81461017b578063de8fa431146101ab578063e001f841146101c9578063fe9fbb80146101f95761009e565b80630d2020dd146100a357806310d9042e146100d357806311601306146100f15780631e7c27cb1461010f5780638aa104351461012d575b600080fd5b6100bd60048036038101906100b89190610a11565b610229565b6040516100ca9190610a7f565b60405180910390f35b6100db6102ab565b6040516100e89190610b58565b60405180910390f35b6100f9610303565b6040516101069190610b89565b60405180910390f35b610117610309565b6040516101249190610b89565b60405180910390f35b61013561030f565b6040516101429190610bbd565b60405180910390f35b61016560048036038101906101609190610d76565b610319565b6040516101729190610e3a565b60405180910390f35b61019560048036038101906101909190610a11565b610426565b6040516101a29190610e3a565b60405180910390f35b6101b361069b565b6040516101c09190610bbd565b60405180910390f35b6101e360048036038101906101de9190610e55565b6106a8565b6040516101f09190610e3a565b60405180910390f35b610213600480360381019061020e9190610e95565b61089d565b6040516102209190610e3a565b60405180910390f35b60008060001b8211610270576040517f08c379a000000000000000000000000000000000000000000000000000000000815260040161026790610f1f565b60405180910390fd5b6002600083815260200190815260200160002060009054906101000a900473ffffffffffffffffffffffffffffffffffffffff169050919050565b606060038054806020026020016040519081016040528092919081815260200182805480156102f957602002820191906000526020600020905b8154815260200190600101908083116102e5575b5050505050905090565b60005481565b60015481565b6000600554905090565b60008073ffffffffffffffffffffffffffffffffffffffff1661033d600054610229565b73ffffffffffffffffffffffffffffffffffffffff1603610361576001905061041c565b600260008054815260200190815260200160002060009054906101000a900473ffffffffffffffffffffffffffffffffffffffff1673ffffffffffffffffffffffffffffffffffffffff1663936421d58888888888886040518763ffffffff1660e01b81526004016103d896959493929190610fbe565b602060405180830381865afa1580156103f5573d6000803e3d6000fd5b505050506040513d601f19601f820116820180604052508101906104199190611052565b90505b9695505050505050565b60008060001b821161046d576040517f08c379a000000000000000000000000000000000000000000000000000000000815260040161046490610f1f565b60405180910390fd5b6000600380549050116104b5576040517f08c379a00000000000000000000000000000000000000000000000000000000081526004016104ac90611117565b60405180910390fd5b6104be3361089d565b6104fd576040517f08c379a00000000000000000000000000000000000000000000000000000000081526004016104f4906111a9565b60405180910390fd5b60006004600084815260200190815260200160002054905060008111801561052a57506003805490508111155b156106905760038054905081146105b85760006003600160038054905061055191906111f8565b815481106105625761056161122c565b5b9060005260206000200154905080600360018461057f91906111f8565b815481106105905761058f61122c565b5b9060005260206000200181905550816004600083815260200190815260200160002081905550505b60038054806105ca576105c961125b565b5b600190038181906000526020600020016000905590556000600460008581526020019081526020016000208190555060006002600085815260200190815260200160002060006101000a81548173ffffffffffffffffffffffffffffffffffffffff021916908373ffffffffffffffffffffffffffffffffffffffff1602179055507fe3d908a1f6d2467f8e7c8198f30125843211345eedb763beb4cdfb7fe728a5af60008460405161067e92919061128a565b60405180910390a16001915050610696565b60009150505b919050565b6000600380549050905090565b60008060001b83116106ef576040517f08c379a00000000000000000000000000000000000000000000000000000000081526004016106e690610f1f565b60405180910390fd5b600073ffffffffffffffffffffffffffffffffffffffff168273ffffffffffffffffffffffffffffffffffffffff160361075e576040517f08c379a000000000000000000000000000000000000000000000000000000000815260040161075590611325565b60405180910390fd5b6107673361089d565b6107a6576040517f08c379a000000000000000000000000000000000000000000000000000000000815260040161079d906111a9565b60405180910390fd5b600060046000858152602001908152602001600020540361080857600383908060018154018082558091505060019003906000526020600020016000909190919091505560038054905060046000858152602001908152602001600020819055505b816002600085815260200190815260200160002060006101000a81548173ffffffffffffffffffffffffffffffffffffffff021916908373ffffffffffffffffffffffffffffffffffffffff1602179055507fe3d908a1f6d2467f8e7c8198f30125843211345eedb763beb4cdfb7fe728a5af828460405161088b92919061128a565b60405180910390a16001905092915050565b60008073ffffffffffffffffffffffffffffffffffffffff1660026000600154815260200190815260200160002060009054906101000a900473ffffffffffffffffffffffffffffffffffffffff1673ffffffffffffffffffffffffffffffffffffffff160361091057600190506109c2565b60026000600154815260200190815260200160002060009054906101000a900473ffffffffffffffffffffffffffffffffffffffff1673ffffffffffffffffffffffffffffffffffffffff1663fe9fbb80836040518263ffffffff1660e01b815260040161097e9190610a7f565b602060405180830381865afa15801561099b573d6000803e3d6000fd5b505050506040513d601f19601f820116820180604052508101906109bf9190611052565b90505b919050565b6000604051905090565b600080fd5b600080fd5b6000819050919050565b6109ee816109db565b81146109f957600080fd5b50565b600081359050610a0b816109e5565b92915050565b600060208284031215610a2757610a266109d1565b5b6000610a35848285016109fc565b91505092915050565b600073ffffffffffffffffffffffffffffffffffffffff82169050919050565b6000610a6982610a3e565b9050919050565b610a7981610a5e565b82525050565b6000602082019050610a946000830184610a70565b92915050565b600081519050919050565b600082825260208201905092915050565b6000819050602082019050919050565b610acf816109db565b82525050565b6000610ae18383610ac6565b60208301905092915050565b6000602082019050919050565b6000610b0582610a9a565b610b0f8185610aa5565b9350610b1a83610ab6565b8060005b83811015610b4b578151610b328882610ad5565b9750610b3d83610aed565b925050600181019050610b1e565b5085935050505092915050565b60006020820190508181036000830152610b728184610afa565b905092915050565b610b83816109db565b82525050565b6000602082019050610b9e6000830184610b7a565b92915050565b6000819050919050565b610bb781610ba4565b82525050565b6000602082019050610bd26000830184610bae565b92915050565b610be181610a5e565b8114610bec57600080fd5b50565b600081359050610bfe81610bd8565b92915050565b610c0d81610ba4565b8114610c1857600080fd5b50565b600081359050610c2a81610c04565b92915050565b600080fd5b600080fd5b6000601f19601f8301169050919050565b7f4e487b7100000000000000000000000000000000000000000000000000000000600052604160045260246000fd5b610c8382610c3a565b810181811067ffffffffffffffff82111715610ca257610ca1610c4b565b5b80604052505050565b6000610cb56109c7565b9050610cc18282610c7a565b919050565b600067ffffffffffffffff821115610ce157610ce0610c4b565b5b610cea82610c3a565b9050602081019050919050565b82818337600083830152505050565b6000610d19610d1484610cc6565b610cab565b905082815260208101848484011115610d3557610d34610c35565b5b610d40848285610cf7565b509392505050565b600082601f830112610d5d57610d5c610c30565b5b8135610d6d848260208601610d06565b91505092915050565b60008060008060008060c08789031215610d9357610d926109d1565b5b6000610da189828a01610bef565b9650506020610db289828a01610bef565b9550506040610dc389828a01610c1b565b9450506060610dd489828a01610c1b565b9350506080610de589828a01610c1b565b92505060a087013567ffffffffffffffff811115610e0657610e056109d6565b5b610e1289828a01610d48565b9150509295509295509295565b60008115159050919050565b610e3481610e1f565b82525050565b6000602082019050610e4f6000830184610e2b565b92915050565b60008060408385031215610e6c57610e6b6109d1565b5b6000610e7a858286016109fc565b9250506020610e8b85828601610bef565b9150509250929050565b600060208284031215610eab57610eaa6109d1565b5b6000610eb984828501610bef565b91505092915050565b600082825260208201905092915050565b7f436f6e7472616374206e616d65206d757374206e6f7420626520656d7074792e600082015250565b6000610f09602083610ec2565b9150610f1482610ed3565b602082019050919050565b60006020820190508181036000830152610f3881610efc565b9050919050565b600081519050919050565b600082825260208201905092915050565b60005b83811015610f79578082015181840152602081019050610f5e565b60008484015250505050565b6000610f9082610f3f565b610f9a8185610f4a565b9350610faa818560208601610f5b565b610fb381610c3a565b840191505092915050565b600060c082019050610fd36000830189610a70565b610fe06020830188610a70565b610fed6040830187610bae565b610ffa6060830186610bae565b6110076080830185610bae565b81810360a08301526110198184610f85565b9050979650505050505050565b61102f81610e1f565b811461103a57600080fd5b50565b60008151905061104c81611026565b92915050565b600060208284031215611068576110676109d1565b5b60006110768482850161103d565b91505092915050565b7f4d7573742068617665206174206c65617374206f6e652072656769737465726560008201527f6420636f6e747261637420746f20657865637574652064656c657465206f706560208201527f726174696f6e2e00000000000000000000000000000000000000000000000000604082015250565b6000611101604783610ec2565b915061110c8261107f565b606082019050919050565b60006020820190508181036000830152611130816110f4565b9050919050565b7f4e6f7420617574686f72697a656420746f2075706461746520636f6e7472616360008201527f742072656769737472792e000000000000000000000000000000000000000000602082015250565b6000611193602b83610ec2565b915061119e82611137565b604082019050919050565b600060208201905081810360008301526111c281611186565b9050919050565b7f4e487b7100000000000000000000000000000000000000000000000000000000600052601160045260246000fd5b600061120382610ba4565b915061120e83610ba4565b9250828203905081811115611226576112256111c9565b5b92915050565b7f4e487b7100000000000000000000000000000000000000000000000000000000600052603260045260246000fd5b7f4e487b7100000000000000000000000000000000000000000000000000000000600052603160045260246000fd5b600060408201905061129f6000830185610a70565b6112ac6020830184610b7a565b9392505050565b7f436f6e74726163742061646472657373206d757374206e6f74206265207a657260008201527f6f2e000000000000000000000000000000000000000000000000000000000000602082015250565b600061130f602283610ec2565b915061131a826112b3565b604082019050919050565b6000602082019050818103600083015261133e81611302565b905091905056fea26469706673582212209d1ede02df9fe060b2dd68e02730b51060e709de7248ed3e52f5d6d699f13c5364736f6c634300081a0033",
  "linkReferences": {},
  "deployedLinkReferences": {}
}