{
  "_format": "hh-sol-artifact-1",
  "contractName": "Governance",
  "sourceName": "contracts/Governance.sol",
  "abi": [
    {
      "inputs": [
        {
          "internalType": "contract Organization",
          "name": "orgs",
          "type": "address"
        },
        {
          "internalType": "contract AccountRulesV2",
          "name": "accs",
          "type": "address"
        }
      ],
      "stateMutability": "nonpayable",
      "type": "constructor"
    },
    {
      "inputs": [
        {
          "internalType": "address",
          "name": "target",
          "type": "address"
        }
      ],
      "name": "AddressEmptyCode",
      "type": "error"
    },
    {
      "inputs": [],
      "name": "FailedCall",
      "type": "error"
    },
    {
      "inputs": [
        {
          "internalType": "string",
          "name": "message",
          "type": "string"
        }
      ],
      "name": "IllegalState",
      "type": "error"
    },
    {
      "inputs": [
        {
          "internalType": "uint256",
          "name": "balance",
          "type": "uint256"
        },
        {
          "internalType": "uint256",
          "name": "needed",
          "type": "uint256"
        }
      ],
      "name": "InsufficientBalance",
      "type": "error"
    },
    {
      "inputs": [
        {
          "internalType": "string",
          "name": "message",
          "type": "string"
        }
      ],
      "name": "InvalidArgument",
      "type": "error"
    },
    {
      "inputs": [
        {
          "internalType": "string",
          "name": "message",
          "type": "string"
        }
      ],
      "name": "InvalidPaginationParameter",
      "type": "error"
    },
    {
      "inputs": [
        {
          "internalType": "uint256",
          "name": "proposalId",
          "type": "uint256"
        }
      ],
      "name": "ProposalNotFound",
      "type": "error"
    },
    {
      "inputs": [
        {
          "internalType": "address",
          "name": "account",
          "type": "address"
        },
        {
          "internalType": "string",
          "name": "message",
          "type": "string"
        }
      ],
      "name": "UnauthorizedAccess",
      "type": "error"
    },
    {
      "anonymous": false,
      "inputs": [
        {
          "indexed": true,
          "internalType": "uint256",
          "name": "proposalId",
          "type": "uint256"
        },
        {
          "indexed": false,
          "internalType": "uint256",
          "name": "orgId",
          "type": "uint256"
        },
        {
          "indexed": false,
          "internalType": "bool",
          "name": "approve",
          "type": "bool"
        }
      ],
      "name": "OrganizationVoted",
      "type": "event"
    },
    {
      "anonymous": false,
      "inputs": [
        {
          "indexed": true,
          "internalType": "uint256",
          "name": "proposalId",
          "type": "uint256"
        }
      ],
      "name": "ProposalApproved",
      "type": "event"
    },
    {
      "anonymous": false,
      "inputs": [
        {
          "indexed": true,
          "internalType": "uint256",
          "name": "proposalId",
          "type": "uint256"
        }
      ],
      "name": "ProposalCanceled",
      "type": "event"
    },
    {
      "anonymous": false,
      "inputs": [
        {
          "indexed": true,
          "internalType": "uint256",
          "name": "proposalId",
          "type": "uint256"
        }
      ],
      "name": "ProposalCreated",
      "type": "event"
    },
    {
      "anonymous": false,
      "inputs": [
        {
          "indexed": true,
          "internalType": "uint256",
          "name": "proposalId",
          "type": "uint256"
        }
      ],
      "name": "ProposalExecuted",
      "type": "event"
    },
    {
      "anonymous": false,
      "inputs": [
        {
          "indexed": true,
          "internalType": "uint256",
          "name": "proposalId",
          "type": "uint256"
        }
      ],
      "name": "ProposalFinished",
      "type": "event"
    },
    {
      "anonymous": false,
      "inputs": [
        {
          "indexed": true,
          "internalType": "uint256",
          "name": "proposalId",
          "type": "uint256"
        }
      ],
      "name": "ProposalRejected",
      "type": "event"
    },
    {
      "inputs": [],
      "name": "accounts",
      "outputs": [
        {
          "internalType": "contract AccountRulesV2",
          "name": "",
          "type": "address"
        }
      ],
      "stateMutability": "view",
      "type": "function"
    },
    {
      "inputs": [
        {
          "internalType": "uint256",
          "name": "proposalId",
          "type": "uint256"
        },
        {
          "internalType": "string",
          "name": "reason",
          "type": "string"
        }
      ],
      "name": "cancelProposal",
      "outputs": [],
      "stateMutability": "nonpayable",
      "type": "function"
    },
    {
      "inputs": [
        {
          "internalType": "uint256",
          "name": "proposalId",
          "type": "uint256"
        },
        {
          "internalType": "bool",
          "name": "approve",
          "type": "bool"
        }
      ],
      "name": "castVote",
      "outputs": [
        {
          "internalType": "bool",
          "name": "",
          "type": "bool"
        }
      ],
      "stateMutability": "nonpayable",
      "type": "function"
    },
    {
      "inputs": [
        {
          "internalType": "address[]",
          "name": "targets",
          "type": "address[]"
        },
        {
          "internalType": "bytes[]",
          "name": "calldatas",
          "type": "bytes[]"
        },
        {
          "internalType": "uint256",
          "name": "blocksDuration",
          "type": "uint256"
        },
        {
          "internalType": "string",
          "name": "description",
          "type": "string"
        }
      ],
      "name": "createProposal",
      "outputs": [
        {
          "internalType": "uint256",
          "name": "",
          "type": "uint256"
        }
      ],
      "stateMutability": "nonpayable",
      "type": "function"
    },
    {
      "inputs": [
        {
          "internalType": "uint256",
          "name": "proposalId",
          "type": "uint256"
        }
      ],
      "name": "executeProposal",
      "outputs": [
        {
          "internalType": "bytes[]",
          "name": "",
          "type": "bytes[]"
        }
      ],
      "stateMutability": "nonpayable",
      "type": "function"
    },
    {
      "inputs": [],
      "name": "getNumberOfProposals",
      "outputs": [
        {
          "internalType": "uint256",
          "name": "",
          "type": "uint256"
        }
      ],
      "stateMutability": "view",
      "type": "function"
    },
    {
      "inputs": [
        {
          "internalType": "uint256",
          "name": "proposalId",
          "type": "uint256"
        }
      ],
      "name": "getProposal",
      "outputs": [
        {
          "components": [
            {
              "internalType": "uint256",
              "name": "id",
              "type": "uint256"
            },
            {
              "internalType": "address",
              "name": "creator",
              "type": "address"
            },
            {
              "internalType": "address[]",
              "name": "targets",
              "type": "address[]"
            },
            {
              "internalType": "bytes[]",
              "name": "calldatas",
              "type": "bytes[]"
            },
            {
              "internalType": "uint256",
              "name": "blocksDuration",
              "type": "uint256"
            },
            {
              "internalType": "string",
              "name": "description",
              "type": "string"
            },
            {
              "internalType": "uint256",
              "name": "creationBlock",
              "type": "uint256"
            },
            {
              "internalType": "enum Governance.ProposalStatus",
              "name": "status",
              "type": "uint8"
            },
            {
              "internalType": "enum Governance.ProposalResult",
              "name": "result",
              "type": "uint8"
            },
            {
              "internalType": "uint256[]",
              "name": "organizations",
              "type": "uint256[]"
            },
            {
              "internalType": "enum Governance.ProposalVote[]",
              "name": "votes",
              "type": "uint8[]"
            },
            {
              "internalType": "string",
              "name": "cancelationReason",
              "type": "string"
            }
          ],
          "internalType": "struct Governance.ProposalData",
          "name": "",
          "type": "tuple"
        }
      ],
      "stateMutability": "view",
      "type": "function"
    },
    {
      "inputs": [
        {
          "internalType": "uint256",
          "name": "pageNumber",
          "type": "uint256"
        },
        {
          "internalType": "uint256",
          "name": "pageSize",
          "type": "uint256"
        }
      ],
      "name": "getProposals",
      "outputs": [
        {
          "components": [
            {
              "internalType": "uint256",
              "name": "id",
              "type": "uint256"
            },
            {
              "internalType": "address",
              "name": "creator",
              "type": "address"
            },
            {
              "internalType": "address[]",
              "name": "targets",
              "type": "address[]"
            },
            {
              "internalType": "bytes[]",
              "name": "calldatas",
              "type": "bytes[]"
            },
            {
              "internalType": "uint256",
              "name": "blocksDuration",
              "type": "uint256"
            },
            {
              "internalType": "string",
              "name": "description",
              "type": "string"
            },
            {
              "internalType": "uint256",
              "name": "creationBlock",
              "type": "uint256"
            },
            {
              "internalType": "enum Governance.ProposalStatus",
              "name": "status",
              "type": "uint8"
            },
            {
              "internalType": "enum Governance.ProposalResult",
              "name": "result",
              "type": "uint8"
            },
            {
              "internalType": "uint256[]",
              "name": "organizations",
              "type": "uint256[]"
            },
            {
              "internalType": "enum Governance.ProposalVote[]",
              "name": "votes",
              "type": "uint8[]"
            },
            {
              "internalType": "string",
              "name": "cancelationReason",
              "type": "string"
            }
          ],
          "internalType": "struct Governance.ProposalData[]",
          "name": "",
          "type": "tuple[]"
        }
      ],
      "stateMutability": "view",
      "type": "function"
    },
    {
      "inputs": [],
      "name": "idSeed",
      "outputs": [
        {
          "internalType": "uint256",
          "name": "",
          "type": "uint256"
        }
      ],
      "stateMutability": "view",
      "type": "function"
    },
    {
      "inputs": [],
      "name": "organizations",
      "outputs": [
        {
          "internalType": "contract Organization",
          "name": "",
          "type": "address"
        }
      ],
      "stateMutability": "view",
      "type": "function"
    },
    {
      "inputs": [
        {
          "internalType": "uint256",
          "name": "",
          "type": "uint256"
        }
      ],
      "name": "proposals",
      "outputs": [
        {
          "internalType": "uint256",
          "name": "id",
          "type": "uint256"
        },
        {
          "internalType": "address",
          "name": "creator",
          "type": "address"
        },
        {
          "internalType": "uint256",
          "name": "blocksDuration",
          "type": "uint256"
        },
        {
          "internalType": "string",
          "name": "description",
          "type": "string"
        },
        {
          "internalType": "uint256",
          "name": "creationBlock",
          "type": "uint256"
        },
        {
          "internalType": "enum Governance.ProposalStatus",
          "name": "status",
          "type": "uint8"
        },
        {
          "internalType": "enum Governance.ProposalResult",
          "name": "result",
          "type": "uint8"
        },
        {
          "internalType": "string",
          "name": "cancelationReason",
          "type": "string"
        }
      ],
      "stateMutability": "view",
      "type": "function"
    }
  ],
  "bytecode": "0x60c06040526000805534801561001457600080fd5b5060405161584a38038061584a83398181016040528101906100369190610236565b600073ffffffffffffffffffffffffffffffffffffffff168273ffffffffffffffffffffffffffffffffffffffff16036100a5576040517f7ffc6cec00000000000000000000000000000000000000000000000000000000815260040161009c906102f9565b60405180910390fd5b600073ffffffffffffffffffffffffffffffffffffffff168173ffffffffffffffffffffffffffffffffffffffff1603610114576040517f7ffc6cec00000000000000000000000000000000000000000000000000000000815260040161010b9061038b565b60405180910390fd5b8173ffffffffffffffffffffffffffffffffffffffff1660808173ffffffffffffffffffffffffffffffffffffffff16815250508073ffffffffffffffffffffffffffffffffffffffff1660a08173ffffffffffffffffffffffffffffffffffffffff168152505050506103ab565b600080fd5b600073ffffffffffffffffffffffffffffffffffffffff82169050919050565b60006101b382610188565b9050919050565b60006101c5826101a8565b9050919050565b6101d5816101ba565b81146101e057600080fd5b50565b6000815190506101f2816101cc565b92915050565b6000610203826101a8565b9050919050565b610213816101f8565b811461021e57600080fd5b50565b6000815190506102308161020a565b92915050565b6000806040838503121561024d5761024c610183565b5b600061025b858286016101e3565b925050602061026c85828601610221565b9150509250929050565b600082825260208201905092915050565b7f496e76616c6964206164647265737320666f72204f7267616e697a6174696f6e60008201527f206d616e6167656d656e7420736d61727420636f6e7472616374000000000000602082015250565b60006102e3603a83610276565b91506102ee82610287565b604082019050919050565b60006020820190508181036000830152610312816102d6565b9050919050565b7f496e76616c6964206164647265737320666f72204163636f756e74206d616e6160008201527f67656d656e7420736d61727420636f6e74726163740000000000000000000000602082015250565b6000610375603583610276565b915061038082610319565b604082019050919050565b600060208201905081810360008301526103a481610368565b9050919050565b60805160a0516154186104326000396000818161040f0152818161050c0152818161070a01528181610ae001528181610bdd01528181610d9201528181610ea7015281816116d7015281816116fb015281816117f80152818161192a015281816119c8015281816120b001526121ad01526000818161115301526126a301526154186000f3fe608060405234801561001057600080fd5b50600436106100a95760003560e01c806333809b6c1161007157806333809b6c146101815780635e3b43651461019f57806368cd03f6146101cf578063a351f615146101ed578063c7f758a814610209578063d84cee2d14610239576100a9565b8063013cf08b146100ae5780630d61b519146100e5578063136cf1621461011557806315373e3d14610133578063234db1de14610163575b600080fd5b6100c860048036038101906100c3919061322e565b610269565b6040516100dc9897969594939291906133fa565b60405180910390f35b6100ff60048036038101906100fa919061322e565b61040b565b60405161010c919061359d565b60405180910390f35b61011d610ad6565b60405161012a91906135bf565b60405180910390f35b61014d60048036038101906101489190613612565b610adc565b60405161015a9190613661565b60405180910390f35b61016b611151565b60405161017891906136db565b60405180910390f35b610189611175565b60405161019691906135bf565b60405180910390f35b6101b960048036038101906101b491906136f6565b611182565b6040516101c69190613c80565b60405180910390f35b6101d76116d5565b6040516101e49190613cc3565b60405180910390f35b61020760048036038101906102029190613d43565b6116f9565b005b610223600480360381019061021e919061322e565b611bd7565b6040516102309190613eca565b60405180910390f35b610253600480360381019061024e9190614153565b6120ac565b60405161026091906135bf565b60405180910390f35b6001818154811061027957600080fd5b90600052602060002090600b02016000915090508060000154908060010160009054906101000a900473ffffffffffffffffffffffffffffffffffffffff16908060040154908060050180546102ce90614245565b80601f01602080910402602001604051908101604052809291908181526020018280546102fa90614245565b80156103475780601f1061031c57610100808354040283529160200191610347565b820191906000526020600020905b81548152906001019060200180831161032a57829003601f168201915b5050505050908060060154908060070160009054906101000a900460ff16908060070160019054906101000a900460ff169080600a01805461038890614245565b80601f01602080910402602001604051908101604052809291908181526020018280546103b490614245565b80156104015780601f106103d657610100808354040283529160200191610401565b820191906000526020600020905b8154815290600101906020018083116103e457829003601f168201915b5050505050905088565b60607f000000000000000000000000000000000000000000000000000000000000000073ffffffffffffffffffffffffffffffffffffffff166391d148547fd6e7d8560c69c7c18c2b8f3b45430215d788f128f0c04bc4a3607fe05eb5399f336040518363ffffffff1660e01b815260040161048892919061428f565b602060405180830381865afa1580156104a5573d6000803e3d6000fd5b505050506040513d601f19601f820116820180604052508101906104c991906142cd565b61050a57336040517f37b13c290000000000000000000000000000000000000000000000000000000081526004016105019190614346565b60405180910390fd5b7f000000000000000000000000000000000000000000000000000000000000000073ffffffffffffffffffffffffffffffffffffffff1663ab9d0cdd336040518263ffffffff1660e01b81526004016105639190614374565b602060405180830381865afa158015610580573d6000803e3d6000fd5b505050506040513d601f19601f820116820180604052508101906105a491906142cd565b6105e557336040517f37b13c290000000000000000000000000000000000000000000000000000000081526004016105dc91906143db565b60405180910390fd5b8160008114806105f9575060018054905081115b1561063b57806040517f428d06a900000000000000000000000000000000000000000000000000000000815260040161063291906135bf565b60405180910390fd5b82600061064782612876565b90506001600481111561065d5761065c61333b565b5b8160070160009054906101000a900460ff1660048111156106815761068061333b565b5b141580156106c557506003600481111561069e5761069d61333b565b5b8160070160009054906101000a900460ff1660048111156106c2576106c161333b565b5b14155b15610705576040517fc50656df0000000000000000000000000000000000000000000000000000000081526004016106fc9061447b565b60405180910390fd5b8460007f000000000000000000000000000000000000000000000000000000000000000073ffffffffffffffffffffffffffffffffffffffff1663fbcbc0f1336040518263ffffffff1660e01b81526004016107619190614374565b60a060405180830381865afa15801561077e573d6000803e3d6000fd5b505050506040513d601f19601f820116820180604052508101906107a2919061459e565b60000151905060006107b383612876565b905060006107c182846128c5565b90508160080180549050811061080e57336040517f37b13c29000000000000000000000000000000000000000000000000000000008152600401610805919061463d565b60405180910390fd5b88600060028111156108235761082261333b565b5b61082c82612876565b60070160019054906101000a900460ff16600281111561084f5761084e61333b565b5b0361088f576040517fc50656df000000000000000000000000000000000000000000000000000000008152600401610886906146b7565b60405180910390fd5b600061089a8b612876565b9050600360048111156108b0576108af61333b565b5b8160070160009054906101000a900460ff1660048111156108d4576108d361333b565b5b146108e3576108e281612923565b5b60048160070160006101000a81548160ff0219169083600481111561090b5761090a61333b565b5b02179055508a7f712ae1383f79ac853f8d882153778e0260ef8f03b504e2866e0593e04d2b291f60405160405180910390a26000816002018054905067ffffffffffffffff8111156109605761095f613f42565b5b60405190808252806020026020018201604052801561099357816020015b606081526020019060019003908161097e5790505b50905060005b8260020180549050811015610ac357610a9a8360020182815481106109c1576109c06146d7565b5b9060005260206000200160009054906101000a900473ffffffffffffffffffffffffffffffffffffffff16846003018381548110610a0257610a016146d7565b5b906000526020600020018054610a1790614245565b80601f0160208091040260200160405190810160405280929190818152602001828054610a4390614245565b8015610a905780601f10610a6557610100808354040283529160200191610a90565b820191906000526020600020905b815481529060010190602001808311610a7357829003601f168201915b5050505050612984565b828281518110610aad57610aac6146d7565b5b6020026020010181905250806001019050610999565b50809a5050505050505050505050919050565b60005481565b60007f000000000000000000000000000000000000000000000000000000000000000073ffffffffffffffffffffffffffffffffffffffff166391d148547fd6e7d8560c69c7c18c2b8f3b45430215d788f128f0c04bc4a3607fe05eb5399f336040518363ffffffff1660e01b8152600401610b5992919061428f565b602060405180830381865afa158015610b76573d6000803e3d6000fd5b505050506040513d601f19601f82011682018060405250810190610b9a91906142cd565b610bdb57336040517f37b13c29000000000000000000000000000000000000000000000000000000008152600401610bd29190614346565b60405180910390fd5b7f000000000000000000000000000000000000000000000000000000000000000073ffffffffffffffffffffffffffffffffffffffff1663ab9d0cdd336040518263ffffffff1660e01b8152600401610c349190614374565b602060405180830381865afa158015610c51573d6000803e3d6000fd5b505050506040513d601f19601f82011682018060405250810190610c7591906142cd565b610cb657336040517f37b13c29000000000000000000000000000000000000000000000000000000008152600401610cad91906143db565b60405180910390fd5b826000811480610cca575060018054905081115b15610d0c57806040517f428d06a9000000000000000000000000000000000000000000000000000000008152600401610d0391906135bf565b60405180910390fd5b8360016004811115610d2157610d2061333b565b5b610d2a82612876565b60070160009054906101000a900460ff166004811115610d4d57610d4c61333b565b5b14610d8d576040517fc50656df000000000000000000000000000000000000000000000000000000008152600401610d8490614752565b60405180910390fd5b8460007f000000000000000000000000000000000000000000000000000000000000000073ffffffffffffffffffffffffffffffffffffffff1663fbcbc0f1336040518263ffffffff1660e01b8152600401610de99190614374565b60a060405180830381865afa158015610e06573d6000803e3d6000fd5b505050506040513d601f19601f82011682018060405250810190610e2a919061459e565b6000015190506000610e3b83612876565b90506000610e4982846128c5565b905081600801805490508110610e9657336040517f37b13c29000000000000000000000000000000000000000000000000000000008152600401610e8d919061463d565b60405180910390fd5b6000610ea18a612876565b905060007f000000000000000000000000000000000000000000000000000000000000000073ffffffffffffffffffffffffffffffffffffffff1663fbcbc0f1336040518263ffffffff1660e01b8152600401610efe9190614374565b60a060405180830381865afa158015610f1b573d6000803e3d6000fd5b505050506040513d601f19601f82011682018060405250810190610f3f919061459e565b90506000610f518383600001516128c5565b905060006002811115610f6757610f6661333b565b5b836009018281548110610f7d57610f7c6146d7565b5b90600052602060002090602091828204019190069054906101000a900460ff166002811115610faf57610fae61333b565b5b14610fef576040517fc50656df000000000000000000000000000000000000000000000000000000008152600401610fe6906147be565b60405180910390fd5b610ff88361299a565b156110095760009950505050611145565b8a15611065576001836009018281548110611027576110266146d7565b5b90600052602060002090602091828204019190066101000a81548160ff0219169083600281111561105b5761105a61333b565b5b02179055506110b7565b600283600901828154811061107d5761107c6146d7565b5b90600052602060002090602091828204019190066101000a81548160ff021916908360028111156110b1576110b061333b565b5b02179055505b8b7fabd3148b98644646202d3c6c6182735d75097bee76f65da3f92511ee966fef0083600001518d6040516110ed9291906147de565b60405180910390a2600060028111156111095761110861333b565b5b8360070160019054906101000a900460ff16600281111561112d5761112c61333b565b5b0361113d5761113b836129d3565b505b600199505050505b50505050505092915050565b7f000000000000000000000000000000000000000000000000000000000000000081565b6000600180549050905090565b60606000806111976001805490508686612c60565b91509150600082826111a99190614836565b67ffffffffffffffff8111156111c2576111c1613f42565b5b6040519080825280602002602001820160405280156111fb57816020015b6111e8612ee2565b8152602001906001900390816111e05790505b50905060008390505b828110156116c857600181815481106112205761121f6146d7565b5b90600052602060002090600b020160405180610180016040529081600082015481526020016001820160009054906101000a900473ffffffffffffffffffffffffffffffffffffffff1673ffffffffffffffffffffffffffffffffffffffff1673ffffffffffffffffffffffffffffffffffffffff1681526020016002820180548060200260200160405190810160405280929190818152602001828054801561131f57602002820191906000526020600020905b8160009054906101000a900473ffffffffffffffffffffffffffffffffffffffff1673ffffffffffffffffffffffffffffffffffffffff16815260200190600101908083116112d5575b5050505050815260200160038201805480602002602001604051908101604052809291908181526020016000905b828210156113f957838290600052602060002001805461136c90614245565b80601f016020809104026020016040519081016040528092919081815260200182805461139890614245565b80156113e55780601f106113ba576101008083540402835291602001916113e5565b820191906000526020600020905b8154815290600101906020018083116113c857829003601f168201915b50505050508152602001906001019061134d565b5050505081526020016004820154815260200160058201805461141b90614245565b80601f016020809104026020016040519081016040528092919081815260200182805461144790614245565b80156114945780601f1061146957610100808354040283529160200191611494565b820191906000526020600020905b81548152906001019060200180831161147757829003601f168201915b50505050508152602001600682015481526020016007820160009054906101000a900460ff1660048111156114cc576114cb61333b565b5b60048111156114de576114dd61333b565b5b81526020016007820160019054906101000a900460ff1660028111156115075761150661333b565b5b60028111156115195761151861333b565b5b81526020016008820180548060200260200160405190810160405280929190818152602001828054801561156c57602002820191906000526020600020905b815481526020019060010190808311611558575b50505050508152602001600982018054806020026020016040519081016040528092919081815260200182805480156115f957602002820191906000526020600020906000905b82829054906101000a900460ff1660028111156115d3576115d261333b565b5b815260200190600101906020826000010492830192600103820291508084116115b35790505b50505050508152602001600a8201805461161290614245565b80601f016020809104026020016040519081016040528092919081815260200182805461163e90614245565b801561168b5780601f106116605761010080835404028352916020019161168b565b820191906000526020600020905b81548152906001019060200180831161166e57829003601f168201915b5050505050815250508285836116a19190614836565b815181106116b2576116b16146d7565b5b6020026020010181905250806001019050611204565b5080935050505092915050565b7f000000000000000000000000000000000000000000000000000000000000000081565b7f000000000000000000000000000000000000000000000000000000000000000073ffffffffffffffffffffffffffffffffffffffff166391d148547fd6e7d8560c69c7c18c2b8f3b45430215d788f128f0c04bc4a3607fe05eb5399f336040518363ffffffff1660e01b815260040161177492919061428f565b602060405180830381865afa158015611791573d6000803e3d6000fd5b505050506040513d601f19601f820116820180604052508101906117b591906142cd565b6117f657336040517f37b13c290000000000000000000000000000000000000000000000000000000081526004016117ed9190614346565b60405180910390fd5b7f000000000000000000000000000000000000000000000000000000000000000073ffffffffffffffffffffffffffffffffffffffff1663ab9d0cdd336040518263ffffffff1660e01b815260040161184f9190614374565b602060405180830381865afa15801561186c573d6000803e3d6000fd5b505050506040513d601f19601f8201168201806040525081019061189091906142cd565b6118d157336040517f37b13c290000000000000000000000000000000000000000000000000000000081526004016118c891906143db565b60405180910390fd5b8260008114806118e5575060018054905081115b1561192757806040517f428d06a900000000000000000000000000000000000000000000000000000000815260040161191e91906135bf565b60405180910390fd5b837f000000000000000000000000000000000000000000000000000000000000000073ffffffffffffffffffffffffffffffffffffffff1663fbcbc0f1336040518263ffffffff1660e01b81526004016119819190614374565b60a060405180830381865afa15801561199e573d6000803e3d6000fd5b505050506040513d601f19601f820116820180604052508101906119c2919061459e565b600001517f000000000000000000000000000000000000000000000000000000000000000073ffffffffffffffffffffffffffffffffffffffff1663fbcbc0f1611a0b84612876565b60010160009054906101000a900473ffffffffffffffffffffffffffffffffffffffff166040518263ffffffff1660e01b8152600401611a4b9190614374565b60a060405180830381865afa158015611a68573d6000803e3d6000fd5b505050506040513d601f19601f82011682018060405250810190611a8c919061459e565b6000015114611ad257336040517f37b13c29000000000000000000000000000000000000000000000000000000008152600401611ac991906148dc565b60405180910390fd5b8460016004811115611ae757611ae661333b565b5b611af082612876565b60070160009054906101000a900460ff166004811115611b1357611b1261333b565b5b14611b53576040517fc50656df000000000000000000000000000000000000000000000000000000008152600401611b4a90614752565b60405180910390fd5b6000611b5e87612876565b905060028160070160006101000a81548160ff02191690836004811115611b8857611b8761333b565b5b0217905550858582600a019182611ba0929190614ab7565b50867f789cf55be980739dad1d0699b93b58e806b51c9d96619bfa8fe0a28abaa7b30c60405160405180910390a250505050505050565b611bdf612ee2565b816000811480611bf3575060018054905081115b15611c3557806040517f428d06a9000000000000000000000000000000000000000000000000000000008152600401611c2c91906135bf565b60405180910390fd5b611c3e83612876565b60405180610180016040529081600082015481526020016001820160009054906101000a900473ffffffffffffffffffffffffffffffffffffffff1673ffffffffffffffffffffffffffffffffffffffff1673ffffffffffffffffffffffffffffffffffffffff16815260200160028201805480602002602001604051908101604052809291908181526020018280548015611d2f57602002820191906000526020600020905b8160009054906101000a900473ffffffffffffffffffffffffffffffffffffffff1673ffffffffffffffffffffffffffffffffffffffff1681526020019060010190808311611ce5575b5050505050815260200160038201805480602002602001604051908101604052809291908181526020016000905b82821015611e09578382906000526020600020018054611d7c90614245565b80601f0160208091040260200160405190810160405280929190818152602001828054611da890614245565b8015611df55780601f10611dca57610100808354040283529160200191611df5565b820191906000526020600020905b815481529060010190602001808311611dd857829003601f168201915b505050505081526020019060010190611d5d565b50505050815260200160048201548152602001600582018054611e2b90614245565b80601f0160208091040260200160405190810160405280929190818152602001828054611e5790614245565b8015611ea45780601f10611e7957610100808354040283529160200191611ea4565b820191906000526020600020905b815481529060010190602001808311611e8757829003601f168201915b50505050508152602001600682015481526020016007820160009054906101000a900460ff166004811115611edc57611edb61333b565b5b6004811115611eee57611eed61333b565b5b81526020016007820160019054906101000a900460ff166002811115611f1757611f1661333b565b5b6002811115611f2957611f2861333b565b5b815260200160088201805480602002602001604051908101604052809291908181526020018280548015611f7c57602002820191906000526020600020905b815481526020019060010190808311611f68575b505050505081526020016009820180548060200260200160405190810160405280929190818152602001828054801561200957602002820191906000526020600020906000905b82829054906101000a900460ff166002811115611fe357611fe261333b565b5b81526020019060010190602082600001049283019260010382029150808411611fc35790505b50505050508152602001600a8201805461202290614245565b80601f016020809104026020016040519081016040528092919081815260200182805461204e90614245565b801561209b5780601f106120705761010080835404028352916020019161209b565b820191906000526020600020905b81548152906001019060200180831161207e57829003601f168201915b505050505081525050915050919050565b60007f000000000000000000000000000000000000000000000000000000000000000073ffffffffffffffffffffffffffffffffffffffff166391d148547fd6e7d8560c69c7c18c2b8f3b45430215d788f128f0c04bc4a3607fe05eb5399f336040518363ffffffff1660e01b815260040161212992919061428f565b602060405180830381865afa158015612146573d6000803e3d6000fd5b505050506040513d601f19601f8201168201806040525081019061216a91906142cd565b6121ab57336040517f37b13c290000000000000000000000000000000000000000000000000000000081526004016121a29190614346565b60405180910390fd5b7f000000000000000000000000000000000000000000000000000000000000000073ffffffffffffffffffffffffffffffffffffffff1663ab9d0cdd336040518263ffffffff1660e01b81526004016122049190614374565b602060405180830381865afa158015612221573d6000803e3d6000fd5b505050506040513d601f19601f8201168201806040525081019061224591906142cd565b61228657336040517f37b13c2900000000000000000000000000000000000000000000000000000000815260040161227d91906143db565b60405180910390fd5b845187879050146122cc576040517f7ffc6cec0000000000000000000000000000000000000000000000000000000081526004016122c390614bf9565b60405180910390fd5b6000840361230f576040517f7ffc6cec00000000000000000000000000000000000000000000000000000000815260040161230690614c8b565b60405180910390fd5b6001604051806101800160405280600080815461232b90614cab565b91905081905581526020013373ffffffffffffffffffffffffffffffffffffffff168152602001898980806020026020016040519081016040528093929190818152602001838360200280828437600081840152601f19601f82011690508083019250505050505050815260200187815260200186815260200185858080601f016020809104026020016040519081016040528093929190818152602001838380828437600081840152601f19601f820116905080830192505050505050508152602001438152602001600160048111156124095761240861333b565b5b8152602001600060028111156124225761242161333b565b5b8152602001600067ffffffffffffffff81111561244257612441613f42565b5b6040519080825280602002602001820160405280156124705781602001602082028036833780820191505090505b508152602001600067ffffffffffffffff81111561249157612490613f42565b5b6040519080825280602002602001820160405280156124bf5781602001602082028036833780820191505090505b5081526020016040518060200160405280600081525081525090806001815401808255809150506001900390600052602060002090600b02016000909190919091506000820151816000015560208201518160010160006101000a81548173ffffffffffffffffffffffffffffffffffffffff021916908373ffffffffffffffffffffffffffffffffffffffff160217905550604082015181600201908051906020019061256e929190612f7d565b50606082015181600301908051906020019061258b929190613007565b506080820151816004015560a08201518160050190816125ab9190614cf3565b5060c0820151816006015560e08201518160070160006101000a81548160ff021916908360048111156125e1576125e061333b565b5b02179055506101008201518160070160016101000a81548160ff021916908360028111156126125761261161333b565b5b0217905550610120820151816008019080519060200190612634929190613060565b506101408201518160090190805190602001906126529291906130ad565b5061016082015181600a0190816126699190614cf3565b505050600060018060005461267e9190614836565b8154811061268f5761268e6146d7565b5b90600052602060002090600b0201905060007f000000000000000000000000000000000000000000000000000000000000000073ffffffffffffffffffffffffffffffffffffffff16639754a3a86040518163ffffffff1660e01b8152600401600060405180830381865afa15801561270c573d6000803e3d6000fd5b505050506040513d6000823e3d601f19601f820116820180604052508101906127359190614fc7565b905060005b815181101561281357818181518110612756576127556146d7565b5b60200260200101516040015115612808578260080182828151811061277e5761277d6146d7565b5b602002602001015160000151908060018154018082558091505060019003906000526020600020016000909190919091505582600901600090806001815401808255809150506001900390600052602060002090602091828204019190069091909190916101000a81548160ff021916908360028111156128025761280161333b565b5b02179055505b80600101905061273a565b50816009018054905082600801805490501461283257612831615010565b5b81600001547fc2c021f5d73c63c481d336fbbafec58f694fc45095f00b02d2deb8cca59afe0760405160405180910390a28160000154925050509695505050505050565b600080600180846128879190614836565b81548110612898576128976146d7565b5b90600052602060002090600b02019050828160000154146128bc576128bb615010565b5b80915050919050565b600080600090505b8360080180549050811080156129035750828460080182815481106128f5576128f46146d7565b5b906000526020600020015414155b15612919578061291290614cab565b90506128cd565b8091505092915050565b60038160070160006101000a81548160ff0219169083600481111561294b5761294a61333b565b5b021790555080600001547fc2946e69de813a7cede502a3b315aa221abf9fcca5c7134b0ae6b2c3857cf63d60405160405180910390a250565b606061299283836000612d3f565b905092915050565b600081600401548260060154436129b19190614836565b11156129c9576129c082612923565b600190506129ce565b600090505b919050565b6000806001600284600801805490506129ec919061506e565b6129f6919061509f565b905060008060005b8560090180549050811015612af85760016002811115612a2157612a2061333b565b5b866009018281548110612a3757612a366146d7565b5b90600052602060002090602091828204019190069054906101000a900460ff166002811115612a6957612a6861333b565b5b03612a7f5782612a7890614cab565b9250612aed565b600280811115612a9257612a9161333b565b5b866009018281548110612aa857612aa76146d7565b5b90600052602060002090602091828204019190069054906101000a900460ff166002811115612ada57612ad961333b565b5b03612aec5781612ae990614cab565b91505b5b8060010190506129fe565b50828210612b6a5760018560070160016101000a81548160ff02191690836002811115612b2857612b2761333b565b5b021790555084600001547f28ec9e38ba73636ceb2f6c1574136f83bd46284a3c74734b711bf45e12f8d92960405160405180910390a260019350505050612c5b565b828110612bdb5760028560070160016101000a81548160ff02191690836002811115612b9957612b9861333b565b5b021790555084600001547fd92fba445edb3153b571e6df782d7a66fd0ce668519273670820ee3a86da0ef460405160405180910390a260019350505050612c5b565b84600801805490508183612bef919061509f565b03612c535760028560070160016101000a81548160ff02191690836002811115612c1c57612c1b61333b565b5b021790555084600001547fd92fba445edb3153b571e6df782d7a66fd0ce668519273670820ee3a86da0ef460405160405180910390a25b600093505050505b919050565b6000806001841015612ca7576040517f2569f2c7000000000000000000000000000000000000000000000000000000008152600401612c9e90615145565b60405180910390fd5b6001831015612ceb576040517f2569f2c7000000000000000000000000000000000000000000000000000000008152600401612ce2906151d7565b60405180910390fd5b600083600186612cfb9190614836565b612d0591906151f7565b905085811115612d13578590505b60008482612d21919061509f565b905086811115612d2f578690505b8181935093505050935093915050565b606081471015612d885747826040517fcf479181000000000000000000000000000000000000000000000000000000008152600401612d7f929190615239565b60405180910390fd5b6000808573ffffffffffffffffffffffffffffffffffffffff168486604051612db1919061529e565b60006040518083038185875af1925050503d8060008114612dee576040519150601f19603f3d011682016040523d82523d6000602084013e612df3565b606091505b5091509150612e03868383612e0e565b925050509392505050565b606082612e2357612e1e82612e9d565b612e95565b60008251148015612e4b575060008473ffffffffffffffffffffffffffffffffffffffff163b145b15612e8d57836040517f9996b315000000000000000000000000000000000000000000000000000000008152600401612e849190614374565b60405180910390fd5b819050612e96565b5b9392505050565b600081511115612eb05780518082602001fd5b6040517fd6bda27500000000000000000000000000000000000000000000000000000000815260040160405180910390fd5b60405180610180016040528060008152602001600073ffffffffffffffffffffffffffffffffffffffff168152602001606081526020016060815260200160008152602001606081526020016000815260200160006004811115612f4957612f4861333b565b5b815260200160006002811115612f6257612f6161333b565b5b81526020016060815260200160608152602001606081525090565b828054828255906000526020600020908101928215612ff6579160200282015b82811115612ff55782518260006101000a81548173ffffffffffffffffffffffffffffffffffffffff021916908373ffffffffffffffffffffffffffffffffffffffff16021790555091602001919060010190612f9d565b5b5090506130039190613163565b5090565b82805482825590600052602060002090810192821561304f579160200282015b8281111561304e57825182908161303e9190615310565b5091602001919060010190613027565b5b50905061305c9190613180565b5090565b82805482825590600052602060002090810192821561309c579160200282015b8281111561309b578251825591602001919060010190613080565b5b5090506130a99190613163565b5090565b82805482825590600052602060002090601f016020900481019282156131525791602002820160005b8382111561312357835183826101000a81548160ff021916908360028111156131025761310161333b565b5b021790555092602001926001016020816000010492830192600103026130d6565b80156131505782816101000a81549060ff0219169055600101602081600001049283019260010302613123565b505b50905061315f9190613163565b5090565b5b8082111561317c576000816000905550600101613164565b5090565b5b808211156131a0576000818161319791906131a4565b50600101613181565b5090565b5080546131b090614245565b6000825580601f106131c257506131e1565b601f0160209004906000526020600020908101906131e09190613163565b5b50565b6000604051905090565b600080fd5b600080fd5b6000819050919050565b61320b816131f8565b811461321657600080fd5b50565b60008135905061322881613202565b92915050565b600060208284031215613244576132436131ee565b5b600061325284828501613219565b91505092915050565b613264816131f8565b82525050565b600073ffffffffffffffffffffffffffffffffffffffff82169050919050565b60006132958261326a565b9050919050565b6132a58161328a565b82525050565b600081519050919050565b600082825260208201905092915050565b60005b838110156132e55780820151818401526020810190506132ca565b60008484015250505050565b6000601f19601f8301169050919050565b600061330d826132ab565b61331781856132b6565b93506133278185602086016132c7565b613330816132f1565b840191505092915050565b7f4e487b7100000000000000000000000000000000000000000000000000000000600052602160045260246000fd5b6005811061337b5761337a61333b565b5b50565b600081905061338c8261336a565b919050565b600061339c8261337e565b9050919050565b6133ac81613391565b82525050565b600381106133c3576133c261333b565b5b50565b60008190506133d4826133b2565b919050565b60006133e4826133c6565b9050919050565b6133f4816133d9565b82525050565b600061010082019050613410600083018b61325b565b61341d602083018a61329c565b61342a604083018961325b565b818103606083015261343c8188613302565b905061344b608083018761325b565b61345860a08301866133a3565b61346560c08301856133eb565b81810360e08301526134778184613302565b90509998505050505050505050565b600081519050919050565b600082825260208201905092915050565b6000819050602082019050919050565b600081519050919050565b600082825260208201905092915050565b60006134d9826134b2565b6134e381856134bd565b93506134f38185602086016132c7565b6134fc816132f1565b840191505092915050565b600061351383836134ce565b905092915050565b6000602082019050919050565b600061353382613486565b61353d8185613491565b93508360208202850161354f856134a2565b8060005b8581101561358b578484038952815161356c8582613507565b94506135778361351b565b925060208a01995050600181019050613553565b50829750879550505050505092915050565b600060208201905081810360008301526135b78184613528565b905092915050565b60006020820190506135d4600083018461325b565b92915050565b60008115159050919050565b6135ef816135da565b81146135fa57600080fd5b50565b60008135905061360c816135e6565b92915050565b60008060408385031215613629576136286131ee565b5b600061363785828601613219565b9250506020613648858286016135fd565b9150509250929050565b61365b816135da565b82525050565b60006020820190506136766000830184613652565b92915050565b6000819050919050565b60006136a161369c6136978461326a565b61367c565b61326a565b9050919050565b60006136b382613686565b9050919050565b60006136c5826136a8565b9050919050565b6136d5816136ba565b82525050565b60006020820190506136f060008301846136cc565b92915050565b6000806040838503121561370d5761370c6131ee565b5b600061371b85828601613219565b925050602061372c85828601613219565b9150509250929050565b600081519050919050565b600082825260208201905092915050565b6000819050602082019050919050565b61376b816131f8565b82525050565b61377a8161328a565b82525050565b600081519050919050565b600082825260208201905092915050565b6000819050602082019050919050565b60006137b88383613771565b60208301905092915050565b6000602082019050919050565b60006137dc82613780565b6137e6818561378b565b93506137f18361379c565b8060005b8381101561382257815161380988826137ac565b9750613814836137c4565b9250506001810190506137f5565b5085935050505092915050565b600082825260208201905092915050565b600061384b82613486565b613855818561382f565b935083602082028501613867856134a2565b8060005b858110156138a357848403895281516138848582613507565b945061388f8361351b565b925060208a0199505060018101905061386b565b50829750879550505050505092915050565b600082825260208201905092915050565b60006138d1826132ab565b6138db81856138b5565b93506138eb8185602086016132c7565b6138f4816132f1565b840191505092915050565b61390881613391565b82525050565b613917816133d9565b82525050565b600081519050919050565b600082825260208201905092915050565b6000819050602082019050919050565b60006139558383613762565b60208301905092915050565b6000602082019050919050565b60006139798261391d565b6139838185613928565b935061398e83613939565b8060005b838110156139bf5781516139a68882613949565b97506139b183613961565b925050600181019050613992565b5085935050505092915050565b600081519050919050565b600082825260208201905092915050565b6000819050602082019050919050565b60038110613a0957613a0861333b565b5b50565b6000819050613a1a826139f8565b919050565b6000613a2a82613a0c565b9050919050565b613a3a81613a1f565b82525050565b6000613a4c8383613a31565b60208301905092915050565b6000602082019050919050565b6000613a70826139cc565b613a7a81856139d7565b9350613a85836139e8565b8060005b83811015613ab6578151613a9d8882613a40565b9750613aa883613a58565b925050600181019050613a89565b5085935050505092915050565b600061018083016000830151613adc6000860182613762565b506020830151613aef6020860182613771565b5060408301518482036040860152613b0782826137d1565b91505060608301518482036060860152613b218282613840565b9150506080830151613b366080860182613762565b5060a083015184820360a0860152613b4e82826138c6565b91505060c0830151613b6360c0860182613762565b5060e0830151613b7660e08601826138ff565b50610100830151613b8b61010086018261390e565b50610120830151848203610120860152613ba5828261396e565b915050610140830151848203610140860152613bc18282613a65565b915050610160830151848203610160860152613bdd82826138c6565b9150508091505092915050565b6000613bf68383613ac3565b905092915050565b6000602082019050919050565b6000613c1682613736565b613c208185613741565b935083602082028501613c3285613752565b8060005b85811015613c6e5784840389528151613c4f8582613bea565b9450613c5a83613bfe565b925060208a01995050600181019050613c36565b50829750879550505050505092915050565b60006020820190508181036000830152613c9a8184613c0b565b905092915050565b6000613cad826136a8565b9050919050565b613cbd81613ca2565b82525050565b6000602082019050613cd86000830184613cb4565b92915050565b600080fd5b600080fd5b600080fd5b60008083601f840112613d0357613d02613cde565b5b8235905067ffffffffffffffff811115613d2057613d1f613ce3565b5b602083019150836001820283011115613d3c57613d3b613ce8565b5b9250929050565b600080600060408486031215613d5c57613d5b6131ee565b5b6000613d6a86828701613219565b935050602084013567ffffffffffffffff811115613d8b57613d8a6131f3565b5b613d9786828701613ced565b92509250509250925092565b600061018083016000830151613dbc6000860182613762565b506020830151613dcf6020860182613771565b5060408301518482036040860152613de782826137d1565b91505060608301518482036060860152613e018282613840565b9150506080830151613e166080860182613762565b5060a083015184820360a0860152613e2e82826138c6565b91505060c0830151613e4360c0860182613762565b5060e0830151613e5660e08601826138ff565b50610100830151613e6b61010086018261390e565b50610120830151848203610120860152613e85828261396e565b915050610140830151848203610140860152613ea18282613a65565b915050610160830151848203610160860152613ebd82826138c6565b9150508091505092915050565b60006020820190508181036000830152613ee48184613da3565b905092915050565b60008083601f840112613f0257613f01613cde565b5b8235905067ffffffffffffffff811115613f1f57613f1e613ce3565b5b602083019150836020820283011115613f3b57613f3a613ce8565b5b9250929050565b7f4e487b7100000000000000000000000000000000000000000000000000000000600052604160045260246000fd5b613f7a826132f1565b810181811067ffffffffffffffff82111715613f9957613f98613f42565b5b80604052505050565b6000613fac6131e4565b9050613fb88282613f71565b919050565b600067ffffffffffffffff821115613fd857613fd7613f42565b5b602082029050602081019050919050565b600080fd5b600067ffffffffffffffff82111561400957614008613f42565b5b614012826132f1565b9050602081019050919050565b82818337600083830152505050565b600061404161403c84613fee565b613fa2565b90508281526020810184848401111561405d5761405c613fe9565b5b61406884828561401f565b509392505050565b600082601f83011261408557614084613cde565b5b813561409584826020860161402e565b91505092915050565b60006140b16140ac84613fbd565b613fa2565b905080838252602082019050602084028301858111156140d4576140d3613ce8565b5b835b8181101561411b57803567ffffffffffffffff8111156140f9576140f8613cde565b5b8086016141068982614070565b855260208501945050506020810190506140d6565b5050509392505050565b600082601f83011261413a57614139613cde565b5b813561414a84826020860161409e565b91505092915050565b600080600080600080608087890312156141705761416f6131ee565b5b600087013567ffffffffffffffff81111561418e5761418d6131f3565b5b61419a89828a01613eec565b9650965050602087013567ffffffffffffffff8111156141bd576141bc6131f3565b5b6141c989828a01614125565b94505060406141da89828a01613219565b935050606087013567ffffffffffffffff8111156141fb576141fa6131f3565b5b61420789828a01613ced565b92509250509295509295509295565b7f4e487b7100000000000000000000000000000000000000000000000000000000600052602260045260246000fd5b6000600282049050600182168061425d57607f821691505b6020821081036142705761426f614216565b5b50919050565b6000819050919050565b61428981614276565b82525050565b60006040820190506142a46000830185614280565b6142b1602083018461329c565b9392505050565b6000815190506142c7816135e6565b92915050565b6000602082840312156142e3576142e26131ee565b5b60006142f1848285016142b8565b91505092915050565b7f53656e646572206973206e6f74206120676c6f62616c2061646d696e00000000600082015250565b6000614330601c836132b6565b915061433b826142fa565b602082019050919050565b600060408201905061435b600083018461329c565b818103602083015261436c81614323565b905092915050565b6000602082019050614389600083018461329c565b92915050565b7f53656e646572206163636f756e74206973206e6f742061637469766500000000600082015250565b60006143c5601c836132b6565b91506143d08261438f565b602082019050919050565b60006040820190506143f0600083018461329c565b8181036020830152614401816143b8565b905092915050565b7f50726f706f73616c206973206e6f7420416374697665206e6f722046696e697360008201527f6865640000000000000000000000000000000000000000000000000000000000602082015250565b60006144656023836132b6565b915061447082614409565b604082019050919050565b6000602082019050818103600083015261449481614458565b9050919050565b600080fd5b600080fd5b6000815190506144b481613202565b92915050565b6144c38161328a565b81146144ce57600080fd5b50565b6000815190506144e0816144ba565b92915050565b6144ef81614276565b81146144fa57600080fd5b50565b60008151905061450c816144e6565b92915050565b600060a082840312156145285761452761449b565b5b61453260a0613fa2565b90506000614542848285016144a5565b6000830152506020614556848285016144d1565b602083015250604061456a848285016144fd565b604083015250606061457e848285016144fd565b6060830152506080614592848285016142b8565b60808301525092915050565b600060a082840312156145b4576145b36131ee565b5b60006145c284828501614512565b91505092915050565b7f53656e6465722773206f7267616e697a6174696f6e20646f6573206e6f74207060008201527f61727469636970617465206f6e207468652070726f706f73616c000000000000602082015250565b6000614627603a836132b6565b9150614632826145cb565b604082019050919050565b6000604082019050614652600083018461329c565b81810360208301526146638161461a565b905092915050565b7f50726f706f73616c20726573756c74206973206e6f7420646566696e65640000600082015250565b60006146a1601e836132b6565b91506146ac8261466b565b602082019050919050565b600060208201905081810360008301526146d081614694565b9050919050565b7f4e487b7100000000000000000000000000000000000000000000000000000000600052603260045260246000fd5b7f50726f706f73616c206973206e6f742041637469766500000000000000000000600082015250565b600061473c6016836132b6565b915061474782614706565b602082019050919050565b6000602082019050818103600083015261476b8161472f565b9050919050565b7f4f7267616e697a6174696f6e2068617320616c726561647920766f7465640000600082015250565b60006147a8601e836132b6565b91506147b382614772565b602082019050919050565b600060208201905081810360008301526147d78161479b565b9050919050565b60006040820190506147f3600083018561325b565b6148006020830184613652565b9392505050565b7f4e487b7100000000000000000000000000000000000000000000000000000000600052601160045260246000fd5b6000614841826131f8565b915061484c836131f8565b925082820390508181111561486457614863614807565b5b92915050565b7f53656e646572206973206e6f742066726f6d2070726f706f6e656e74206f726760008201527f616e697a6174696f6e0000000000000000000000000000000000000000000000602082015250565b60006148c66029836132b6565b91506148d18261486a565b604082019050919050565b60006040820190506148f1600083018461329c565b8181036020830152614902816148b9565b905092915050565b600082905092915050565b60008190508160005260206000209050919050565b60006020601f8301049050919050565b600082821b905092915050565b6000600883026149777fffffffffffffffffffffffffffffffffffffffffffffffffffffffffffffffff8261493a565b614981868361493a565b95508019841693508086168417925050509392505050565b60006149b46149af6149aa846131f8565b61367c565b6131f8565b9050919050565b6000819050919050565b6149ce83614999565b6149e26149da826149bb565b848454614947565b825550505050565b600090565b6149f76149ea565b614a028184846149c5565b505050565b5b81811015614a2657614a1b6000826149ef565b600181019050614a08565b5050565b601f821115614a6b57614a3c81614915565b614a458461492a565b81016020851015614a54578190505b614a68614a608561492a565b830182614a07565b50505b505050565b600082821c905092915050565b6000614a8e60001984600802614a70565b1980831691505092915050565b6000614aa78383614a7d565b9150826002028217905092915050565b614ac1838361490a565b67ffffffffffffffff811115614ada57614ad9613f42565b5b614ae48254614245565b614aef828285614a2a565b6000601f831160018114614b1e5760008415614b0c578287013590505b614b168582614a9b565b865550614b7e565b601f198416614b2c86614915565b60005b82811015614b5457848901358255600182019150602085019450602081019050614b2f565b86831015614b715784890135614b6d601f891682614a7d565b8355505b6001600288020188555050505b50505050505050565b7f5461726765747320616e642063616c6c646174617320617272617973206d757360008201527f742068617665207468652073616d65206c656e67746800000000000000000000602082015250565b6000614be36036836132b6565b9150614bee82614b87565b604082019050919050565b60006020820190508181036000830152614c1281614bd6565b9050919050565b7f4475726174696f6e206d7573742062652067726561746572207468616e207a6560008201527f726f20626c6f636b730000000000000000000000000000000000000000000000602082015250565b6000614c756029836132b6565b9150614c8082614c19565b604082019050919050565b60006020820190508181036000830152614ca481614c68565b9050919050565b6000614cb6826131f8565b91507fffffffffffffffffffffffffffffffffffffffffffffffffffffffffffffffff8203614ce857614ce7614807565b5b600182019050919050565b614cfc826132ab565b67ffffffffffffffff811115614d1557614d14613f42565b5b614d1f8254614245565b614d2a828285614a2a565b600060209050601f831160018114614d5d5760008415614d4b578287015190505b614d558582614a9b565b865550614dbd565b601f198416614d6b86614915565b60005b82811015614d9357848901518255600182019150602085019450602081019050614d6e565b86831015614db05784890151614dac601f891682614a7d565b8355505b6001600288020188555050505b505050505050565b600067ffffffffffffffff821115614de057614ddf613f42565b5b602082029050602081019050919050565b600067ffffffffffffffff821115614e0c57614e0b613f42565b5b614e15826132f1565b9050602081019050919050565b6000614e35614e3084614df1565b613fa2565b905082815260208101848484011115614e5157614e50613fe9565b5b614e5c8482856132c7565b509392505050565b600082601f830112614e7957614e78613cde565b5b8151614e89848260208601614e22565b91505092915050565b600060608284031215614ea857614ea761449b565b5b614eb26060613fa2565b90506000614ec2848285016144a5565b600083015250602082015167ffffffffffffffff811115614ee657614ee56144a0565b5b614ef284828501614e64565b6020830152506040614f06848285016142b8565b60408301525092915050565b6000614f25614f2084614dc5565b613fa2565b90508083825260208201905060208402830185811115614f4857614f47613ce8565b5b835b81811015614f8f57805167ffffffffffffffff811115614f6d57614f6c613cde565b5b808601614f7a8982614e92565b85526020850194505050602081019050614f4a565b5050509392505050565b600082601f830112614fae57614fad613cde565b5b8151614fbe848260208601614f12565b91505092915050565b600060208284031215614fdd57614fdc6131ee565b5b600082015167ffffffffffffffff811115614ffb57614ffa6131f3565b5b61500784828501614f99565b91505092915050565b7f4e487b7100000000000000000000000000000000000000000000000000000000600052600160045260246000fd5b7f4e487b7100000000000000000000000000000000000000000000000000000000600052601260045260246000fd5b6000615079826131f8565b9150615084836131f8565b9250826150945761509361503f565b5b828204905092915050565b60006150aa826131f8565b91506150b5836131f8565b92508282019050808211156150cd576150cc614807565b5b92915050565b7f50616765206d7573742062652067726561746572206f7220657175616c20746f60008201527f2031200000000000000000000000000000000000000000000000000000000000602082015250565b600061512f6023836132b6565b915061513a826150d3565b604082019050919050565b6000602082019050818103600083015261515e81615122565b9050919050565b7f506167652073697a65206d7573742062652067726561746572206f722065717560008201527f616c20746f203120000000000000000000000000000000000000000000000000602082015250565b60006151c16028836132b6565b91506151cc82615165565b604082019050919050565b600060208201905081810360008301526151f0816151b4565b9050919050565b6000615202826131f8565b915061520d836131f8565b925082820261521b816131f8565b9150828204841483151761523257615231614807565b5b5092915050565b600060408201905061524e600083018561325b565b61525b602083018461325b565b9392505050565b600081905092915050565b6000615278826134b2565b6152828185615262565b93506152928185602086016132c7565b80840191505092915050565b60006152aa828461526d565b915081905092915050565b60008190508160005260206000209050919050565b601f82111561530b576152dc816152b5565b6152e58461492a565b810160208510156152f4578190505b6153086153008561492a565b830182614a07565b50505b505050565b615319826134b2565b67ffffffffffffffff81111561533257615331613f42565b5b61533c8254614245565b6153478282856152ca565b600060209050601f83116001811461537a5760008415615368578287015190505b6153728582614a9b565b8655506153da565b601f198416615388866152b5565b60005b828110156153b05784890151825560018201915060208501945060208101905061538b565b868310156153cd57848901516153c9601f891682614a7d565b8355505b6001600288020188555050505b50505050505056fea26469706673582212201392a2478f6a17035b195254ede4ebe8c0a5a85694613acba53c04800a1c26c164736f6c634300081a0033",
  "linkReferences": {},
  "deployedLinkReferences": {}
}