{
  "_format": "hh-sol-artifact-1",
  "contractName": "Governance",
  "sourceName": "contracts/Governance.sol",
  "abi": [
    {
      "inputs": [
        {
          "internalType": "contract Organization",
          "name": "orgs",
          "type": "address"
        },
        {
          "internalType": "contract AccountRulesV2",
          "name": "accs",
          "type": "address"
        }
      ],
      "stateMutability": "nonpayable",
      "type": "constructor"
    },
    {
      "inputs": [
        {
          "internalType": "address",
          "name": "target",
          "type": "address"
        }
      ],
      "name": "AddressEmptyCode",
      "type": "error"
    },
    {
      "inputs": [],
      "name": "FailedCall",
      "type": "error"
    },
    {
      "inputs": [
        {
          "internalType": "string",
          "name": "message",
          "type": "string"
        }
      ],
      "name": "IllegalState",
      "type": "error"
    },
    {
      "inputs": [
        {
          "internalType": "uint256",
          "name": "balance",
          "type": "uint256"
        },
        {
          "internalType": "uint256",
          "name": "needed",
          "type": "uint256"
        }
      ],
      "name": "InsufficientBalance",
      "type": "error"
    },
    {
      "inputs": [
        {
          "internalType": "string",
          "name": "message",
          "type": "string"
        }
      ],
      "name": "InvalidArgument",
      "type": "error"
    },
    {
      "inputs": [
        {
          "internalType": "uint256",
          "name": "proposalId",
          "type": "uint256"
        }
      ],
      "name": "ProposalNotFound",
      "type": "error"
    },
    {
      "inputs": [
        {
          "internalType": "address",
          "name": "account",
          "type": "address"
        },
        {
          "internalType": "string",
          "name": "message",
          "type": "string"
        }
      ],
      "name": "UnauthorizedAccess",
      "type": "error"
    },
    {
      "anonymous": false,
      "inputs": [
        {
          "indexed": true,
          "internalType": "uint256",
          "name": "proposalId",
          "type": "uint256"
        },
        {
          "indexed": false,
          "internalType": "address",
          "name": "admin",
          "type": "address"
        },
        {
          "indexed": false,
          "internalType": "bool",
          "name": "approve",
          "type": "bool"
        }
      ],
      "name": "OrganizationVoted",
      "type": "event"
    },
    {
      "anonymous": false,
      "inputs": [
        {
          "indexed": true,
          "internalType": "uint256",
          "name": "proposalId",
          "type": "uint256"
        }
      ],
      "name": "ProposalApproved",
      "type": "event"
    },
    {
      "anonymous": false,
      "inputs": [
        {
          "indexed": true,
          "internalType": "uint256",
          "name": "proposalId",
          "type": "uint256"
        }
      ],
      "name": "ProposalCanceled",
      "type": "event"
    },
    {
      "anonymous": false,
      "inputs": [
        {
          "indexed": true,
          "internalType": "uint256",
          "name": "proposalId",
          "type": "uint256"
        },
        {
          "indexed": false,
          "internalType": "address",
          "name": "creator",
          "type": "address"
        }
      ],
      "name": "ProposalCreated",
      "type": "event"
    },
    {
      "anonymous": false,
      "inputs": [
        {
          "indexed": true,
          "internalType": "uint256",
          "name": "proposalId",
          "type": "uint256"
        },
        {
          "indexed": false,
          "internalType": "address",
          "name": "executor",
          "type": "address"
        }
      ],
      "name": "ProposalExecuted",
      "type": "event"
    },
    {
      "anonymous": false,
      "inputs": [
        {
          "indexed": true,
          "internalType": "uint256",
          "name": "proposalId",
          "type": "uint256"
        }
      ],
      "name": "ProposalFinished",
      "type": "event"
    },
    {
      "anonymous": false,
      "inputs": [
        {
          "indexed": true,
          "internalType": "uint256",
          "name": "proposalId",
          "type": "uint256"
        }
      ],
      "name": "ProposalRejected",
      "type": "event"
    },
    {
      "inputs": [],
      "name": "accounts",
      "outputs": [
        {
          "internalType": "contract AccountRulesV2",
          "name": "",
          "type": "address"
        }
      ],
      "stateMutability": "view",
      "type": "function"
    },
    {
      "inputs": [
        {
          "internalType": "uint256",
          "name": "proposalId",
          "type": "uint256"
        },
        {
          "internalType": "string",
          "name": "reason",
          "type": "string"
        }
      ],
      "name": "cancelProposal",
      "outputs": [],
      "stateMutability": "nonpayable",
      "type": "function"
    },
    {
      "inputs": [
        {
          "internalType": "uint256",
          "name": "proposalId",
          "type": "uint256"
        },
        {
          "internalType": "bool",
          "name": "approve",
          "type": "bool"
        }
      ],
      "name": "castVote",
      "outputs": [
        {
          "internalType": "bool",
          "name": "",
          "type": "bool"
        }
      ],
      "stateMutability": "nonpayable",
      "type": "function"
    },
    {
      "inputs": [
        {
          "internalType": "address[]",
          "name": "targets",
          "type": "address[]"
        },
        {
          "internalType": "bytes[]",
          "name": "calldatas",
          "type": "bytes[]"
        },
        {
          "internalType": "uint256",
          "name": "blocksDuration",
          "type": "uint256"
        },
        {
          "internalType": "string",
          "name": "description",
          "type": "string"
        }
      ],
      "name": "createProposal",
      "outputs": [
        {
          "internalType": "uint256",
          "name": "",
          "type": "uint256"
        }
      ],
      "stateMutability": "nonpayable",
      "type": "function"
    },
    {
      "inputs": [
        {
          "internalType": "uint256",
          "name": "proposalId",
          "type": "uint256"
        }
      ],
      "name": "executeProposal",
      "outputs": [
        {
          "internalType": "bytes[]",
          "name": "",
          "type": "bytes[]"
        }
      ],
      "stateMutability": "nonpayable",
      "type": "function"
    },
    {
      "inputs": [
        {
          "internalType": "uint256",
          "name": "proposalId",
          "type": "uint256"
        }
      ],
      "name": "getProposal",
      "outputs": [
        {
          "components": [
            {
              "internalType": "uint256",
              "name": "id",
              "type": "uint256"
            },
            {
              "internalType": "address",
              "name": "creator",
              "type": "address"
            },
            {
              "internalType": "address[]",
              "name": "targets",
              "type": "address[]"
            },
            {
              "internalType": "bytes[]",
              "name": "calldatas",
              "type": "bytes[]"
            },
            {
              "internalType": "uint256",
              "name": "blocksDuration",
              "type": "uint256"
            },
            {
              "internalType": "string",
              "name": "description",
              "type": "string"
            },
            {
              "internalType": "uint256",
              "name": "creationBlock",
              "type": "uint256"
            },
            {
              "internalType": "enum Governance.ProposalStatus",
              "name": "status",
              "type": "uint8"
            },
            {
              "internalType": "enum Governance.ProposalResult",
              "name": "result",
              "type": "uint8"
            },
            {
              "internalType": "uint256[]",
              "name": "organizations",
              "type": "uint256[]"
            },
            {
              "internalType": "string",
              "name": "cancelationReason",
              "type": "string"
            }
          ],
          "internalType": "struct Governance.ProposalData",
          "name": "",
          "type": "tuple"
        }
      ],
      "stateMutability": "view",
      "type": "function"
    },
    {
      "inputs": [
        {
          "internalType": "uint256",
          "name": "proposalId",
          "type": "uint256"
        }
      ],
      "name": "getVotes",
      "outputs": [
        {
          "internalType": "enum Governance.ProposalVote[]",
          "name": "",
          "type": "uint8[]"
        }
      ],
      "stateMutability": "view",
      "type": "function"
    },
    {
      "inputs": [],
      "name": "idSeed",
      "outputs": [
        {
          "internalType": "uint256",
          "name": "",
          "type": "uint256"
        }
      ],
      "stateMutability": "view",
      "type": "function"
    },
    {
      "inputs": [],
      "name": "organizations",
      "outputs": [
        {
          "internalType": "contract Organization",
          "name": "",
          "type": "address"
        }
      ],
      "stateMutability": "view",
      "type": "function"
    },
    {
      "inputs": [
        {
          "internalType": "uint256",
          "name": "",
          "type": "uint256"
        }
      ],
      "name": "proposals",
      "outputs": [
        {
          "internalType": "uint256",
          "name": "id",
          "type": "uint256"
        },
        {
          "internalType": "address",
          "name": "creator",
          "type": "address"
        },
        {
          "internalType": "uint256",
          "name": "blocksDuration",
          "type": "uint256"
        },
        {
          "internalType": "string",
          "name": "description",
          "type": "string"
        },
        {
          "internalType": "uint256",
          "name": "creationBlock",
          "type": "uint256"
        },
        {
          "internalType": "enum Governance.ProposalStatus",
          "name": "status",
          "type": "uint8"
        },
        {
          "internalType": "enum Governance.ProposalResult",
          "name": "result",
          "type": "uint8"
        },
        {
          "internalType": "string",
          "name": "cancelationReason",
          "type": "string"
        }
      ],
      "stateMutability": "view",
      "type": "function"
    },
    {
      "inputs": [
        {
          "internalType": "uint256",
          "name": "",
          "type": "uint256"
        },
        {
          "internalType": "uint256",
          "name": "",
          "type": "uint256"
        }
      ],
      "name": "votes",
      "outputs": [
        {
          "internalType": "enum Governance.ProposalVote",
          "name": "",
          "type": "uint8"
        }
      ],
      "stateMutability": "view",
      "type": "function"
    }
  ],
  "bytecode": "0x60c06040526000805534801561001457600080fd5b50604051614b73380380614b7383398181016040528101906100369190610236565b600073ffffffffffffffffffffffffffffffffffffffff168273ffffffffffffffffffffffffffffffffffffffff16036100a5576040517f7ffc6cec00000000000000000000000000000000000000000000000000000000815260040161009c906102f9565b60405180910390fd5b600073ffffffffffffffffffffffffffffffffffffffff168173ffffffffffffffffffffffffffffffffffffffff1603610114576040517f7ffc6cec00000000000000000000000000000000000000000000000000000000815260040161010b9061038b565b60405180910390fd5b8173ffffffffffffffffffffffffffffffffffffffff1660808173ffffffffffffffffffffffffffffffffffffffff16815250508073ffffffffffffffffffffffffffffffffffffffff1660a08173ffffffffffffffffffffffffffffffffffffffff168152505050506103ab565b600080fd5b600073ffffffffffffffffffffffffffffffffffffffff82169050919050565b60006101b382610188565b9050919050565b60006101c5826101a8565b9050919050565b6101d5816101ba565b81146101e057600080fd5b50565b6000815190506101f2816101cc565b92915050565b6000610203826101a8565b9050919050565b610213816101f8565b811461021e57600080fd5b50565b6000815190506102308161020a565b92915050565b6000806040838503121561024d5761024c610183565b5b600061025b858286016101e3565b925050602061026c85828601610221565b9150509250929050565b600082825260208201905092915050565b7f496e76616c6964206164647265737320666f72204f7267616e697a6174696f6e60008201527f206d616e6167656d656e7420736d61727420636f6e7472616374000000000000602082015250565b60006102e3603a83610276565b91506102ee82610287565b604082019050919050565b60006020820190508181036000830152610312816102d6565b9050919050565b7f496e76616c6964206164647265737320666f72204163636f756e74206d616e6160008201527f67656d656e7420736d61727420636f6e74726163740000000000000000000000602082015250565b6000610375603583610276565b915061038082610319565b604082019050919050565b600060208201905081810360008301526103a481610368565b9050919050565b60805160a051614741610432600039600081816104110152818161050e0152818161072901528181610b6b01528181610c6801528181610e2d01528181610f830152818161125c015281816112800152818161137d015281816114b50152818161155301528181611c170152611d140152600081816112380152611faa01526147416000f3fe608060405234801561001057600080fd5b50600436106100a95760003560e01c806368cd03f61161007157806368cd03f614610181578063a351f6151461019f578063c6e36a32146101bb578063c7f758a8146101eb578063d84cee2d1461021b578063ff9810991461024b576100a9565b8063013cf08b146100ae5780630d61b519146100e5578063136cf1621461011557806315373e3d14610133578063234db1de14610163575b600080fd5b6100c860048036038101906100c39190612999565b61027b565b6040516100dc989796959493929190612b65565b60405180910390f35b6100ff60048036038101906100fa9190612999565b61040d565b60405161010c9190612d08565b60405180910390f35b61011d610b61565b60405161012a9190612d2a565b60405180910390f35b61014d60048036038101906101489190612d7d565b610b67565b60405161015a9190612dcc565b60405180910390f35b61016b611236565b6040516101789190612e46565b60405180910390f35b61018961125a565b6040516101969190612e82565b60405180910390f35b6101b960048036038101906101b49190612f02565b61127e565b005b6101d560048036038101906101d09190612f62565b61178c565b6040516101e29190612fea565b60405180910390f35b61020560048036038101906102009190612999565b6117bb565b604051610212919061337a565b60405180910390f35b61023560048036038101906102309190613603565b611c13565b6040516102429190612d2a565b60405180910390f35b61026560048036038101906102609190612999565b612132565b6040516102729190613784565b60405180910390f35b60016020528060005260406000206000915090508060000154908060010160009054906101000a900473ffffffffffffffffffffffffffffffffffffffff16908060040154908060050180546102d0906137d5565b80601f01602080910402602001604051908101604052809291908181526020018280546102fc906137d5565b80156103495780601f1061031e57610100808354040283529160200191610349565b820191906000526020600020905b81548152906001019060200180831161032c57829003601f168201915b5050505050908060060154908060070160009054906101000a900460ff16908060070160019054906101000a900460ff169080600901805461038a906137d5565b80601f01602080910402602001604051908101604052809291908181526020018280546103b6906137d5565b80156104035780601f106103d857610100808354040283529160200191610403565b820191906000526020600020905b8154815290600101906020018083116103e657829003601f168201915b5050505050905088565b60607f000000000000000000000000000000000000000000000000000000000000000073ffffffffffffffffffffffffffffffffffffffff166391d148547fd6e7d8560c69c7c18c2b8f3b45430215d788f128f0c04bc4a3607fe05eb5399f336040518363ffffffff1660e01b815260040161048a92919061381f565b602060405180830381865afa1580156104a7573d6000803e3d6000fd5b505050506040513d601f19601f820116820180604052508101906104cb919061385d565b61050c57336040517f37b13c2900000000000000000000000000000000000000000000000000000000815260040161050391906138d6565b60405180910390fd5b7f000000000000000000000000000000000000000000000000000000000000000073ffffffffffffffffffffffffffffffffffffffff1663ab9d0cdd336040518263ffffffff1660e01b81526004016105659190613904565b602060405180830381865afa158015610582573d6000803e3d6000fd5b505050506040513d601f19601f820116820180604052508101906105a6919061385d565b6105e757336040517f37b13c290000000000000000000000000000000000000000000000000000000081526004016105de919061396b565b60405180910390fd5b81600060016000838152602001908152602001600020600001540361064357806040517f428d06a900000000000000000000000000000000000000000000000000000000815260040161063a9190612d2a565b60405180910390fd5b826001600481111561065857610657612aa6565b5b6001600083815260200190815260200160002060070160009054906101000a900460ff16600481111561068e5761068d612aa6565b5b141580156106e45750600360048111156106ab576106aa612aa6565b5b6001600083815260200190815260200160002060070160009054906101000a900460ff1660048111156106e1576106e0612aa6565b5b14155b15610724576040517fc50656df00000000000000000000000000000000000000000000000000000000815260040161071b90613a0b565b60405180910390fd5b8360007f000000000000000000000000000000000000000000000000000000000000000073ffffffffffffffffffffffffffffffffffffffff1663fbcbc0f1336040518263ffffffff1660e01b81526004016107809190613904565b60a060405180830381865afa15801561079d573d6000803e3d6000fd5b505050506040513d601f19601f820116820180604052508101906107c19190613b2e565b60000151905060006001600084815260200190815260200160002090506000805b8260080180549050811080156107f6575081155b156108385782600801818154811061081157610810613b5b565b5b9060005260206000200154840361082757600191505b8061083190613bb9565b90506107e2565b508061087b57336040517f37b13c290000000000000000000000000000000000000000000000000000000081526004016108729190613c73565b60405180910390fd5b87600060028111156108905761088f612aa6565b5b6001600083815260200190815260200160002060070160019054906101000a900460ff1660028111156108c6576108c5612aa6565b5b03610906576040517fc50656df0000000000000000000000000000000000000000000000000000000081526004016108fd90613ced565b60405180910390fd5b6000600160008b815260200190815260200160002090506003600481111561093157610930612aa6565b5b8160070160009054906101000a900460ff16600481111561095557610954612aa6565b5b146109645761096381612258565b5b60048160070160006101000a81548160ff0219169083600481111561098c5761098b612aa6565b5b0217905550897f9c85b616f29fca57a17eafe71cf9ff82ffef41766e2cf01ea7f8f7878dd3ec24336040516109c19190613904565b60405180910390a26000816002018054905067ffffffffffffffff8111156109ec576109eb6133f2565b5b604051908082528060200260200182016040528015610a1f57816020015b6060815260200190600190039081610a0a5790505b50905060005b8260020180549050811015610b4f57610b26836002018281548110610a4d57610a4c613b5b565b5b9060005260206000200160009054906101000a900473ffffffffffffffffffffffffffffffffffffffff16846003018381548110610a8e57610a8d613b5b565b5b906000526020600020018054610aa3906137d5565b80601f0160208091040260200160405190810160405280929190818152602001828054610acf906137d5565b8015610b1c5780601f10610af157610100808354040283529160200191610b1c565b820191906000526020600020905b815481529060010190602001808311610aff57829003601f168201915b50505050506122b9565b828281518110610b3957610b38613b5b565b5b6020026020010181905250806001019050610a25565b50809950505050505050505050919050565b60005481565b60007f000000000000000000000000000000000000000000000000000000000000000073ffffffffffffffffffffffffffffffffffffffff166391d148547fd6e7d8560c69c7c18c2b8f3b45430215d788f128f0c04bc4a3607fe05eb5399f336040518363ffffffff1660e01b8152600401610be492919061381f565b602060405180830381865afa158015610c01573d6000803e3d6000fd5b505050506040513d601f19601f82011682018060405250810190610c25919061385d565b610c6657336040517f37b13c29000000000000000000000000000000000000000000000000000000008152600401610c5d91906138d6565b60405180910390fd5b7f000000000000000000000000000000000000000000000000000000000000000073ffffffffffffffffffffffffffffffffffffffff1663ab9d0cdd336040518263ffffffff1660e01b8152600401610cbf9190613904565b602060405180830381865afa158015610cdc573d6000803e3d6000fd5b505050506040513d601f19601f82011682018060405250810190610d00919061385d565b610d4157336040517f37b13c29000000000000000000000000000000000000000000000000000000008152600401610d38919061396b565b60405180910390fd5b826000600160008381526020019081526020016000206000015403610d9d57806040517f428d06a9000000000000000000000000000000000000000000000000000000008152600401610d949190612d2a565b60405180910390fd5b8360016004811115610db257610db1612aa6565b5b6001600083815260200190815260200160002060070160009054906101000a900460ff166004811115610de857610de7612aa6565b5b14610e28576040517fc50656df000000000000000000000000000000000000000000000000000000008152600401610e1f90613d59565b60405180910390fd5b8460007f000000000000000000000000000000000000000000000000000000000000000073ffffffffffffffffffffffffffffffffffffffff1663fbcbc0f1336040518263ffffffff1660e01b8152600401610e849190613904565b60a060405180830381865afa158015610ea1573d6000803e3d6000fd5b505050506040513d601f19601f82011682018060405250810190610ec59190613b2e565b60000151905060006001600084815260200190815260200160002090506000805b826008018054905081108015610efa575081155b15610f3c57826008018181548110610f1557610f14613b5b565b5b90600052602060002001548403610f2b57600191505b80610f3590613bb9565b9050610ee6565b5080610f7f57336040517f37b13c29000000000000000000000000000000000000000000000000000000008152600401610f769190613c73565b60405180910390fd5b60007f000000000000000000000000000000000000000000000000000000000000000073ffffffffffffffffffffffffffffffffffffffff1663fbcbc0f1336040518263ffffffff1660e01b8152600401610fda9190613904565b60a060405180830381865afa158015610ff7573d6000803e3d6000fd5b505050506040513d601f19601f8201168201806040525081019061101b9190613b2e565b90506000600281111561103157611030612aa6565b5b600260008c815260200190815260200160002060008360000151815260200190815260200160002060009054906101000a900460ff16600281111561107957611078612aa6565b5b146110b9576040517fc50656df0000000000000000000000000000000000000000000000000000000081526004016110b090613dc5565b60405180910390fd5b6110c28a6122cf565b156110d157600097505061122a565b881561112d576001600260008c815260200190815260200160002060008360000151815260200190815260200160002060006101000a81548160ff0219169083600281111561112357611122612aa6565b5b021790555061117e565b60028060008c815260200190815260200160002060008360000151815260200190815260200160002060006101000a81548160ff0219169083600281111561117857611177612aa6565b5b02179055505b897f8c4ac1565b968488fcca7d4dbcab19657637632748f3181a98f49aba0293e1e1338b6040516111b0929190613de5565b60405180910390a2600060028111156111cc576111cb612aa6565b5b600160008c815260200190815260200160002060070160019054906101000a900460ff16600281111561120257611201612aa6565b5b0361122457611222600160008c8152602001908152602001600020612320565b505b60019750505b50505050505092915050565b7f000000000000000000000000000000000000000000000000000000000000000081565b7f000000000000000000000000000000000000000000000000000000000000000081565b7f000000000000000000000000000000000000000000000000000000000000000073ffffffffffffffffffffffffffffffffffffffff166391d148547fd6e7d8560c69c7c18c2b8f3b45430215d788f128f0c04bc4a3607fe05eb5399f336040518363ffffffff1660e01b81526004016112f992919061381f565b602060405180830381865afa158015611316573d6000803e3d6000fd5b505050506040513d601f19601f8201168201806040525081019061133a919061385d565b61137b57336040517f37b13c2900000000000000000000000000000000000000000000000000000000815260040161137291906138d6565b60405180910390fd5b7f000000000000000000000000000000000000000000000000000000000000000073ffffffffffffffffffffffffffffffffffffffff1663ab9d0cdd336040518263ffffffff1660e01b81526004016113d49190613904565b602060405180830381865afa1580156113f1573d6000803e3d6000fd5b505050506040513d601f19601f82011682018060405250810190611415919061385d565b61145657336040517f37b13c2900000000000000000000000000000000000000000000000000000000815260040161144d919061396b565b60405180910390fd5b8260006001600083815260200190815260200160002060000154036114b257806040517f428d06a90000000000000000000000000000000000000000000000000000000081526004016114a99190612d2a565b60405180910390fd5b837f000000000000000000000000000000000000000000000000000000000000000073ffffffffffffffffffffffffffffffffffffffff1663fbcbc0f1336040518263ffffffff1660e01b815260040161150c9190613904565b60a060405180830381865afa158015611529573d6000803e3d6000fd5b505050506040513d601f19601f8201168201806040525081019061154d9190613b2e565b600001517f000000000000000000000000000000000000000000000000000000000000000073ffffffffffffffffffffffffffffffffffffffff1663fbcbc0f16001600085815260200190815260200160002060010160009054906101000a900473ffffffffffffffffffffffffffffffffffffffff166040518263ffffffff1660e01b81526004016115e09190613904565b60a060405180830381865afa1580156115fd573d6000803e3d6000fd5b505050506040513d601f19601f820116820180604052508101906116219190613b2e565b600001511461166757336040517f37b13c2900000000000000000000000000000000000000000000000000000000815260040161165e9190613e80565b60405180910390fd5b846001600481111561167c5761167b612aa6565b5b6001600083815260200190815260200160002060070160009054906101000a900460ff1660048111156116b2576116b1612aa6565b5b146116f2576040517fc50656df0000000000000000000000000000000000000000000000000000000081526004016116e990613d59565b60405180910390fd5b60026001600088815260200190815260200160002060070160006101000a81548160ff0219169083600481111561172c5761172b612aa6565b5b0217905550848460016000898152602001908152602001600020600901918261175692919061405b565b50857f789cf55be980739dad1d0699b93b58e806b51c9d96619bfa8fe0a28abaa7b30c60405160405180910390a2505050505050565b60026020528160005260406000206020528060005260406000206000915091509054906101000a900460ff1681565b6117c3612741565b81600060016000838152602001908152602001600020600001540361181f57806040517f428d06a90000000000000000000000000000000000000000000000000000000081526004016118169190612d2a565b60405180910390fd5b6001600084815260200190815260200160002060405180610160016040529081600082015481526020016001820160009054906101000a900473ffffffffffffffffffffffffffffffffffffffff1673ffffffffffffffffffffffffffffffffffffffff1673ffffffffffffffffffffffffffffffffffffffff1681526020016002820180548060200260200160405190810160405280929190818152602001828054801561192357602002820191906000526020600020905b8160009054906101000a900473ffffffffffffffffffffffffffffffffffffffff1673ffffffffffffffffffffffffffffffffffffffff16815260200190600101908083116118d9575b5050505050815260200160038201805480602002602001604051908101604052809291908181526020016000905b828210156119fd578382906000526020600020018054611970906137d5565b80601f016020809104026020016040519081016040528092919081815260200182805461199c906137d5565b80156119e95780601f106119be576101008083540402835291602001916119e9565b820191906000526020600020905b8154815290600101906020018083116119cc57829003601f168201915b505050505081526020019060010190611951565b50505050815260200160048201548152602001600582018054611a1f906137d5565b80601f0160208091040260200160405190810160405280929190818152602001828054611a4b906137d5565b8015611a985780601f10611a6d57610100808354040283529160200191611a98565b820191906000526020600020905b815481529060010190602001808311611a7b57829003601f168201915b50505050508152602001600682015481526020016007820160009054906101000a900460ff166004811115611ad057611acf612aa6565b5b6004811115611ae257611ae1612aa6565b5b81526020016007820160019054906101000a900460ff166002811115611b0b57611b0a612aa6565b5b6002811115611b1d57611b1c612aa6565b5b815260200160088201805480602002602001604051908101604052809291908181526020018280548015611b7057602002820191906000526020600020905b815481526020019060010190808311611b5c575b50505050508152602001600982018054611b89906137d5565b80601f0160208091040260200160405190810160405280929190818152602001828054611bb5906137d5565b8015611c025780601f10611bd757610100808354040283529160200191611c02565b820191906000526020600020905b815481529060010190602001808311611be557829003601f168201915b505050505081525050915050919050565b60007f000000000000000000000000000000000000000000000000000000000000000073ffffffffffffffffffffffffffffffffffffffff166391d148547fd6e7d8560c69c7c18c2b8f3b45430215d788f128f0c04bc4a3607fe05eb5399f336040518363ffffffff1660e01b8152600401611c9092919061381f565b602060405180830381865afa158015611cad573d6000803e3d6000fd5b505050506040513d601f19601f82011682018060405250810190611cd1919061385d565b611d1257336040517f37b13c29000000000000000000000000000000000000000000000000000000008152600401611d0991906138d6565b60405180910390fd5b7f000000000000000000000000000000000000000000000000000000000000000073ffffffffffffffffffffffffffffffffffffffff1663ab9d0cdd336040518263ffffffff1660e01b8152600401611d6b9190613904565b602060405180830381865afa158015611d88573d6000803e3d6000fd5b505050506040513d601f19601f82011682018060405250810190611dac919061385d565b611ded57336040517f37b13c29000000000000000000000000000000000000000000000000000000008152600401611de4919061396b565b60405180910390fd5b84518787905014611e33576040517f7ffc6cec000000000000000000000000000000000000000000000000000000008152600401611e2a9061419d565b60405180910390fd5b60008403611e76576040517f7ffc6cec000000000000000000000000000000000000000000000000000000008152600401611e6d9061422f565b60405180910390fd5b60008060008154611e8690613bb9565b91905081905590506000600160008381526020019081526020016000209050818160000181905550338160010160006101000a81548173ffffffffffffffffffffffffffffffffffffffff021916908373ffffffffffffffffffffffffffffffffffffffff1602179055508888826002019190611f049291906127d5565b5086816003019080519060200190611f1d929190612875565b508581600401819055508484826005019182611f3a92919061405b565b5043816006018190555060018160070160006101000a81548160ff02191690836004811115611f6c57611f6b612aa6565b5b021790555060008160070160016101000a81548160ff02191690836002811115611f9957611f98612aa6565b5b0217905550600081600801905060007f000000000000000000000000000000000000000000000000000000000000000073ffffffffffffffffffffffffffffffffffffffff16639754a3a86040518163ffffffff1660e01b8152600401600060405180830381865afa158015612013573d6000803e3d6000fd5b505050506040513d6000823e3d601f19601f8201168201806040525081019061203c9190614451565b905060005b81518110156120c05781818151811061205d5761205c613b5b565b5b602002602001015160400151156120b5578282828151811061208257612081613b5b565b5b60200260200101516000015190806001815401808255809150506001900390600052602060002001600090919091909150555b806001019050612041565b5082600001547fcd423cc1203c0af96b9b3d68d73b3064a69de2d14450bb7181c5e5df2132b3588460010160009054906101000a900473ffffffffffffffffffffffffffffffffffffffff166040516121199190613904565b60405180910390a2839450505050509695505050505050565b606060006001600084815260200190815260200160002060080190506000818054905067ffffffffffffffff81111561216e5761216d6133f2565b5b60405190808252806020026020018201604052801561219c5781602001602082028036833780820191505090505b50905060005b828054905081101561224d576002600086815260200190815260200160002060008483815481106121d6576121d5613b5b565b5b9060005260206000200154815260200190815260200160002060009054906101000a900460ff168282815181106122105761220f613b5b565b5b6020026020010190600281111561222a57612229612aa6565b5b9081600281111561223e5761223d612aa6565b5b815250508060010190506121a2565b508092505050919050565b60038160070160006101000a81548160ff021916908360048111156122805761227f612aa6565b5b021790555080600001547fc2946e69de813a7cede502a3b315aa221abf9fcca5c7134b0ae6b2c3857cf63d60405160405180910390a250565b60606122c78383600061259e565b905092915050565b60008060016000848152602001908152602001600020905080600401548160060154436122fc919061449a565b11156123155761230b81612258565b600191505061231b565b60009150505b919050565b60008060016002846008018054905061233991906144fd565b612343919061452e565b905060008060005b85600801805490508110156124365760006002600088600001548152602001908152602001600020600088600801848154811061238b5761238a613b5b565b5b9060005260206000200154815260200190815260200160002060009054906101000a900460ff169050600160028111156123c8576123c7612aa6565b5b8160028111156123db576123da612aa6565b5b036123f157836123ea90613bb9565b935061242a565b60028081111561240457612403612aa6565b5b81600281111561241757612416612aa6565b5b03612429578261242690613bb9565b92505b5b5080600101905061234b565b508282106124a85760018560070160016101000a81548160ff0219169083600281111561246657612465612aa6565b5b021790555084600001547f28ec9e38ba73636ceb2f6c1574136f83bd46284a3c74734b711bf45e12f8d92960405160405180910390a260019350505050612599565b8281106125195760028560070160016101000a81548160ff021916908360028111156124d7576124d6612aa6565b5b021790555084600001547fd92fba445edb3153b571e6df782d7a66fd0ce668519273670820ee3a86da0ef460405160405180910390a260019350505050612599565b8460080180549050818361252d919061452e565b036125915760028560070160016101000a81548160ff0219169083600281111561255a57612559612aa6565b5b021790555084600001547fd92fba445edb3153b571e6df782d7a66fd0ce668519273670820ee3a86da0ef460405160405180910390a25b600093505050505b919050565b6060814710156125e75747826040517fcf4791810000000000000000000000000000000000000000000000000000000081526004016125de929190614562565b60405180910390fd5b6000808573ffffffffffffffffffffffffffffffffffffffff16848660405161261091906145c7565b60006040518083038185875af1925050503d806000811461264d576040519150601f19603f3d011682016040523d82523d6000602084013e612652565b606091505b509150915061266286838361266d565b925050509392505050565b6060826126825761267d826126fc565b6126f4565b600082511480156126aa575060008473ffffffffffffffffffffffffffffffffffffffff163b145b156126ec57836040517f9996b3150000000000000000000000000000000000000000000000000000000081526004016126e39190613904565b60405180910390fd5b8190506126f5565b5b9392505050565b60008151111561270f5780518082602001fd5b6040517fd6bda27500000000000000000000000000000000000000000000000000000000815260040160405180910390fd5b60405180610160016040528060008152602001600073ffffffffffffffffffffffffffffffffffffffff1681526020016060815260200160608152602001600081526020016060815260200160008152602001600060048111156127a8576127a7612aa6565b5b8152602001600060028111156127c1576127c0612aa6565b5b815260200160608152602001606081525090565b828054828255906000526020600020908101928215612864579160200282015b8281111561286357823573ffffffffffffffffffffffffffffffffffffffff168260006101000a81548173ffffffffffffffffffffffffffffffffffffffff021916908373ffffffffffffffffffffffffffffffffffffffff160217905550916020019190600101906127f5565b5b50905061287191906128ce565b5090565b8280548282559060005260206000209081019282156128bd579160200282015b828111156128bc5782518290816128ac9190614639565b5091602001919060010190612895565b5b5090506128ca91906128eb565b5090565b5b808211156128e75760008160009055506001016128cf565b5090565b5b8082111561290b5760008181612902919061290f565b506001016128ec565b5090565b50805461291b906137d5565b6000825580601f1061292d575061294c565b601f01602090049060005260206000209081019061294b91906128ce565b5b50565b6000604051905090565b600080fd5b600080fd5b6000819050919050565b61297681612963565b811461298157600080fd5b50565b6000813590506129938161296d565b92915050565b6000602082840312156129af576129ae612959565b5b60006129bd84828501612984565b91505092915050565b6129cf81612963565b82525050565b600073ffffffffffffffffffffffffffffffffffffffff82169050919050565b6000612a00826129d5565b9050919050565b612a10816129f5565b82525050565b600081519050919050565b600082825260208201905092915050565b60005b83811015612a50578082015181840152602081019050612a35565b60008484015250505050565b6000601f19601f8301169050919050565b6000612a7882612a16565b612a828185612a21565b9350612a92818560208601612a32565b612a9b81612a5c565b840191505092915050565b7f4e487b7100000000000000000000000000000000000000000000000000000000600052602160045260246000fd5b60058110612ae657612ae5612aa6565b5b50565b6000819050612af782612ad5565b919050565b6000612b0782612ae9565b9050919050565b612b1781612afc565b82525050565b60038110612b2e57612b2d612aa6565b5b50565b6000819050612b3f82612b1d565b919050565b6000612b4f82612b31565b9050919050565b612b5f81612b44565b82525050565b600061010082019050612b7b600083018b6129c6565b612b88602083018a612a07565b612b9560408301896129c6565b8181036060830152612ba78188612a6d565b9050612bb660808301876129c6565b612bc360a0830186612b0e565b612bd060c0830185612b56565b81810360e0830152612be28184612a6d565b90509998505050505050505050565b600081519050919050565b600082825260208201905092915050565b6000819050602082019050919050565b600081519050919050565b600082825260208201905092915050565b6000612c4482612c1d565b612c4e8185612c28565b9350612c5e818560208601612a32565b612c6781612a5c565b840191505092915050565b6000612c7e8383612c39565b905092915050565b6000602082019050919050565b6000612c9e82612bf1565b612ca88185612bfc565b935083602082028501612cba85612c0d565b8060005b85811015612cf65784840389528151612cd78582612c72565b9450612ce283612c86565b925060208a01995050600181019050612cbe565b50829750879550505050505092915050565b60006020820190508181036000830152612d228184612c93565b905092915050565b6000602082019050612d3f60008301846129c6565b92915050565b60008115159050919050565b612d5a81612d45565b8114612d6557600080fd5b50565b600081359050612d7781612d51565b92915050565b60008060408385031215612d9457612d93612959565b5b6000612da285828601612984565b9250506020612db385828601612d68565b9150509250929050565b612dc681612d45565b82525050565b6000602082019050612de16000830184612dbd565b92915050565b6000819050919050565b6000612e0c612e07612e02846129d5565b612de7565b6129d5565b9050919050565b6000612e1e82612df1565b9050919050565b6000612e3082612e13565b9050919050565b612e4081612e25565b82525050565b6000602082019050612e5b6000830184612e37565b92915050565b6000612e6c82612e13565b9050919050565b612e7c81612e61565b82525050565b6000602082019050612e976000830184612e73565b92915050565b600080fd5b600080fd5b600080fd5b60008083601f840112612ec257612ec1612e9d565b5b8235905067ffffffffffffffff811115612edf57612ede612ea2565b5b602083019150836001820283011115612efb57612efa612ea7565b5b9250929050565b600080600060408486031215612f1b57612f1a612959565b5b6000612f2986828701612984565b935050602084013567ffffffffffffffff811115612f4a57612f4961295e565b5b612f5686828701612eac565b92509250509250925092565b60008060408385031215612f7957612f78612959565b5b6000612f8785828601612984565b9250506020612f9885828601612984565b9150509250929050565b60038110612fb357612fb2612aa6565b5b50565b6000819050612fc482612fa2565b919050565b6000612fd482612fb6565b9050919050565b612fe481612fc9565b82525050565b6000602082019050612fff6000830184612fdb565b92915050565b61300e81612963565b82525050565b61301d816129f5565b82525050565b600081519050919050565b600082825260208201905092915050565b6000819050602082019050919050565b600061305b8383613014565b60208301905092915050565b6000602082019050919050565b600061307f82613023565b613089818561302e565b93506130948361303f565b8060005b838110156130c55781516130ac888261304f565b97506130b783613067565b925050600181019050613098565b5085935050505092915050565b600082825260208201905092915050565b60006130ee82612bf1565b6130f881856130d2565b93508360208202850161310a85612c0d565b8060005b8581101561314657848403895281516131278582612c72565b945061313283612c86565b925060208a0199505060018101905061310e565b50829750879550505050505092915050565b600082825260208201905092915050565b600061317482612a16565b61317e8185613158565b935061318e818560208601612a32565b61319781612a5c565b840191505092915050565b6131ab81612afc565b82525050565b6131ba81612b44565b82525050565b600081519050919050565b600082825260208201905092915050565b6000819050602082019050919050565b60006131f88383613005565b60208301905092915050565b6000602082019050919050565b600061321c826131c0565b61322681856131cb565b9350613231836131dc565b8060005b8381101561326257815161324988826131ec565b975061325483613204565b925050600181019050613235565b5085935050505092915050565b6000610160830160008301516132886000860182613005565b50602083015161329b6020860182613014565b50604083015184820360408601526132b38282613074565b915050606083015184820360608601526132cd82826130e3565b91505060808301516132e26080860182613005565b5060a083015184820360a08601526132fa8282613169565b91505060c083015161330f60c0860182613005565b5060e083015161332260e08601826131a2565b506101008301516133376101008601826131b1565b506101208301518482036101208601526133518282613211565b91505061014083015184820361014086015261336d8282613169565b9150508091505092915050565b60006020820190508181036000830152613394818461326f565b905092915050565b60008083601f8401126133b2576133b1612e9d565b5b8235905067ffffffffffffffff8111156133cf576133ce612ea2565b5b6020830191508360208202830111156133eb576133ea612ea7565b5b9250929050565b7f4e487b7100000000000000000000000000000000000000000000000000000000600052604160045260246000fd5b61342a82612a5c565b810181811067ffffffffffffffff82111715613449576134486133f2565b5b80604052505050565b600061345c61294f565b90506134688282613421565b919050565b600067ffffffffffffffff821115613488576134876133f2565b5b602082029050602081019050919050565b600080fd5b600067ffffffffffffffff8211156134b9576134b86133f2565b5b6134c282612a5c565b9050602081019050919050565b82818337600083830152505050565b60006134f16134ec8461349e565b613452565b90508281526020810184848401111561350d5761350c613499565b5b6135188482856134cf565b509392505050565b600082601f83011261353557613534612e9d565b5b81356135458482602086016134de565b91505092915050565b600061356161355c8461346d565b613452565b9050808382526020820190506020840283018581111561358457613583612ea7565b5b835b818110156135cb57803567ffffffffffffffff8111156135a9576135a8612e9d565b5b8086016135b68982613520565b85526020850194505050602081019050613586565b5050509392505050565b600082601f8301126135ea576135e9612e9d565b5b81356135fa84826020860161354e565b91505092915050565b600080600080600080608087890312156136205761361f612959565b5b600087013567ffffffffffffffff81111561363e5761363d61295e565b5b61364a89828a0161339c565b9650965050602087013567ffffffffffffffff81111561366d5761366c61295e565b5b61367989828a016135d5565b945050604061368a89828a01612984565b935050606087013567ffffffffffffffff8111156136ab576136aa61295e565b5b6136b789828a01612eac565b92509250509295509295509295565b600081519050919050565b600082825260208201905092915050565b6000819050602082019050919050565b6136fb81612fc9565b82525050565b600061370d83836136f2565b60208301905092915050565b6000602082019050919050565b6000613731826136c6565b61373b81856136d1565b9350613746836136e2565b8060005b8381101561377757815161375e8882613701565b975061376983613719565b92505060018101905061374a565b5085935050505092915050565b6000602082019050818103600083015261379e8184613726565b905092915050565b7f4e487b7100000000000000000000000000000000000000000000000000000000600052602260045260246000fd5b600060028204905060018216806137ed57607f821691505b602082108103613800576137ff6137a6565b5b50919050565b6000819050919050565b61381981613806565b82525050565b60006040820190506138346000830185613810565b6138416020830184612a07565b9392505050565b60008151905061385781612d51565b92915050565b60006020828403121561387357613872612959565b5b600061388184828501613848565b91505092915050565b7f53656e646572206973206e6f74206120676c6f62616c2061646d696e00000000600082015250565b60006138c0601c83612a21565b91506138cb8261388a565b602082019050919050565b60006040820190506138eb6000830184612a07565b81810360208301526138fc816138b3565b905092915050565b60006020820190506139196000830184612a07565b92915050565b7f53656e646572206163636f756e74206973206e6f742061637469766500000000600082015250565b6000613955601c83612a21565b91506139608261391f565b602082019050919050565b60006040820190506139806000830184612a07565b818103602083015261399181613948565b905092915050565b7f50726f706f73616c206973206e6f7420416374697665206e6f722046696e697360008201527f6865640000000000000000000000000000000000000000000000000000000000602082015250565b60006139f5602383612a21565b9150613a0082613999565b604082019050919050565b60006020820190508181036000830152613a24816139e8565b9050919050565b600080fd5b600080fd5b600081519050613a448161296d565b92915050565b613a53816129f5565b8114613a5e57600080fd5b50565b600081519050613a7081613a4a565b92915050565b613a7f81613806565b8114613a8a57600080fd5b50565b600081519050613a9c81613a76565b92915050565b600060a08284031215613ab857613ab7613a2b565b5b613ac260a0613452565b90506000613ad284828501613a35565b6000830152506020613ae684828501613a61565b6020830152506040613afa84828501613a8d565b6040830152506060613b0e84828501613a8d565b6060830152506080613b2284828501613848565b60808301525092915050565b600060a08284031215613b4457613b43612959565b5b6000613b5284828501613aa2565b91505092915050565b7f4e487b7100000000000000000000000000000000000000000000000000000000600052603260045260246000fd5b7f4e487b7100000000000000000000000000000000000000000000000000000000600052601160045260246000fd5b6000613bc482612963565b91507fffffffffffffffffffffffffffffffffffffffffffffffffffffffffffffffff8203613bf657613bf5613b8a565b5b600182019050919050565b7f53656e6465722773206f7267616e697a6174696f6e20646f6573206e6f74207060008201527f61727469636970617465206f6e207468652070726f706f73616c000000000000602082015250565b6000613c5d603a83612a21565b9150613c6882613c01565b604082019050919050565b6000604082019050613c886000830184612a07565b8181036020830152613c9981613c50565b905092915050565b7f50726f706f73616c20726573756c74206973206e6f7420646566696e65640000600082015250565b6000613cd7601e83612a21565b9150613ce282613ca1565b602082019050919050565b60006020820190508181036000830152613d0681613cca565b9050919050565b7f50726f706f73616c206973206e6f742041637469766500000000000000000000600082015250565b6000613d43601683612a21565b9150613d4e82613d0d565b602082019050919050565b60006020820190508181036000830152613d7281613d36565b9050919050565b7f4f7267616e697a6174696f6e2068617320616c726561647920766f7465640000600082015250565b6000613daf601e83612a21565b9150613dba82613d79565b602082019050919050565b60006020820190508181036000830152613dde81613da2565b9050919050565b6000604082019050613dfa6000830185612a07565b613e076020830184612dbd565b9392505050565b7f53656e646572206973206e6f742066726f6d2070726f706f6e656e74206f726760008201527f616e697a6174696f6e0000000000000000000000000000000000000000000000602082015250565b6000613e6a602983612a21565b9150613e7582613e0e565b604082019050919050565b6000604082019050613e956000830184612a07565b8181036020830152613ea681613e5d565b905092915050565b600082905092915050565b60008190508160005260206000209050919050565b60006020601f8301049050919050565b600082821b905092915050565b600060088302613f1b7fffffffffffffffffffffffffffffffffffffffffffffffffffffffffffffffff82613ede565b613f258683613ede565b95508019841693508086168417925050509392505050565b6000613f58613f53613f4e84612963565b612de7565b612963565b9050919050565b6000819050919050565b613f7283613f3d565b613f86613f7e82613f5f565b848454613eeb565b825550505050565b600090565b613f9b613f8e565b613fa6818484613f69565b505050565b5b81811015613fca57613fbf600082613f93565b600181019050613fac565b5050565b601f82111561400f57613fe081613eb9565b613fe984613ece565b81016020851015613ff8578190505b61400c61400485613ece565b830182613fab565b50505b505050565b600082821c905092915050565b600061403260001984600802614014565b1980831691505092915050565b600061404b8383614021565b9150826002028217905092915050565b6140658383613eae565b67ffffffffffffffff81111561407e5761407d6133f2565b5b61408882546137d5565b614093828285613fce565b6000601f8311600181146140c257600084156140b0578287013590505b6140ba858261403f565b865550614122565b601f1984166140d086613eb9565b60005b828110156140f8578489013582556001820191506020850194506020810190506140d3565b868310156141155784890135614111601f891682614021565b8355505b6001600288020188555050505b50505050505050565b7f5461726765747320616e642063616c6c646174617320617272617973206d757360008201527f742068617665207468652073616d65206c656e67746800000000000000000000602082015250565b6000614187603683612a21565b91506141928261412b565b604082019050919050565b600060208201905081810360008301526141b68161417a565b9050919050565b7f4475726174696f6e206d7573742062652067726561746572207468616e207a6560008201527f726f20626c6f636b730000000000000000000000000000000000000000000000602082015250565b6000614219602983612a21565b9150614224826141bd565b604082019050919050565b600060208201905081810360008301526142488161420c565b9050919050565b600067ffffffffffffffff82111561426a576142696133f2565b5b602082029050602081019050919050565b600067ffffffffffffffff821115614296576142956133f2565b5b61429f82612a5c565b9050602081019050919050565b60006142bf6142ba8461427b565b613452565b9050828152602081018484840111156142db576142da613499565b5b6142e6848285612a32565b509392505050565b600082601f83011261430357614302612e9d565b5b81516143138482602086016142ac565b91505092915050565b60006060828403121561433257614331613a2b565b5b61433c6060613452565b9050600061434c84828501613a35565b600083015250602082015167ffffffffffffffff8111156143705761436f613a30565b5b61437c848285016142ee565b602083015250604061439084828501613848565b60408301525092915050565b60006143af6143aa8461424f565b613452565b905080838252602082019050602084028301858111156143d2576143d1612ea7565b5b835b8181101561441957805167ffffffffffffffff8111156143f7576143f6612e9d565b5b808601614404898261431c565b855260208501945050506020810190506143d4565b5050509392505050565b600082601f83011261443857614437612e9d565b5b815161444884826020860161439c565b91505092915050565b60006020828403121561446757614466612959565b5b600082015167ffffffffffffffff8111156144855761448461295e565b5b61449184828501614423565b91505092915050565b60006144a582612963565b91506144b083612963565b92508282039050818111156144c8576144c7613b8a565b5b92915050565b7f4e487b7100000000000000000000000000000000000000000000000000000000600052601260045260246000fd5b600061450882612963565b915061451383612963565b925082614523576145226144ce565b5b828204905092915050565b600061453982612963565b915061454483612963565b925082820190508082111561455c5761455b613b8a565b5b92915050565b600060408201905061457760008301856129c6565b61458460208301846129c6565b9392505050565b600081905092915050565b60006145a182612c1d565b6145ab818561458b565b93506145bb818560208601612a32565b80840191505092915050565b60006145d38284614596565b915081905092915050565b60008190508160005260206000209050919050565b601f82111561463457614605816145de565b61460e84613ece565b8101602085101561461d578190505b61463161462985613ece565b830182613fab565b50505b505050565b61464282612c1d565b67ffffffffffffffff81111561465b5761465a6133f2565b5b61466582546137d5565b6146708282856145f3565b600060209050601f8311600181146146a35760008415614691578287015190505b61469b858261403f565b865550614703565b601f1984166146b1866145de565b60005b828110156146d9578489015182556001820191506020850194506020810190506146b4565b868310156146f657848901516146f2601f891682614021565b8355505b6001600288020188555050505b50505050505056fea264697066735822122051b5ee650b2dbd2ea85c8c2d605b638b9e128364f86463465eaf3ab9002b76e464736f6c634300081a0033",
  "linkReferences": {},
  "deployedLinkReferences": {}
}