{
  "_format": "hh-sol-artifact-1",
  "contractName": "Ingress",
  "sourceName": "contracts/Ingress.sol",
  "abi": [
    {
      "anonymous": false,
      "inputs": [
        {
          "indexed": false,
          "internalType": "address",
          "name": "contractAddress",
          "type": "address"
        },
        {
          "indexed": false,
          "internalType": "bytes32",
          "name": "contractName",
          "type": "bytes32"
        }
      ],
      "name": "RegistryUpdated",
      "type": "event"
    },
    {
      "inputs": [],
      "name": "ADMIN_CONTRACT",
      "outputs": [
        {
          "internalType": "bytes32",
          "name": "",
          "type": "bytes32"
        }
      ],
      "stateMutability": "view",
      "type": "function"
    },
    {
      "inputs": [],
      "name": "RULES_CONTRACT",
      "outputs": [
        {
          "internalType": "bytes32",
          "name": "",
          "type": "bytes32"
        }
      ],
      "stateMutability": "view",
      "type": "function"
    },
    {
      "inputs": [],
      "name": "getAllContractKeys",
      "outputs": [
        {
          "internalType": "bytes32[]",
          "name": "",
          "type": "bytes32[]"
        }
      ],
      "stateMutability": "view",
      "type": "function"
    },
    {
      "inputs": [
        {
          "internalType": "bytes32",
          "name": "name",
          "type": "bytes32"
        }
      ],
      "name": "getContractAddress",
      "outputs": [
        {
          "internalType": "address",
          "name": "",
          "type": "address"
        }
      ],
      "stateMutability": "view",
      "type": "function"
    },
    {
      "inputs": [],
      "name": "getSize",
      "outputs": [
        {
          "internalType": "uint256",
          "name": "",
          "type": "uint256"
        }
      ],
      "stateMutability": "view",
      "type": "function"
    },
    {
      "inputs": [
        {
          "internalType": "address",
          "name": "account",
          "type": "address"
        }
      ],
      "name": "isAuthorized",
      "outputs": [
        {
          "internalType": "bool",
          "name": "",
          "type": "bool"
        }
      ],
      "stateMutability": "view",
      "type": "function"
    },
    {
      "inputs": [
        {
          "internalType": "bytes32",
          "name": "_name",
          "type": "bytes32"
        }
      ],
      "name": "removeContract",
      "outputs": [
        {
          "internalType": "bool",
          "name": "",
          "type": "bool"
        }
      ],
      "stateMutability": "nonpayable",
      "type": "function"
    },
    {
      "inputs": [
        {
          "internalType": "bytes32",
          "name": "name",
          "type": "bytes32"
        },
        {
          "internalType": "address",
          "name": "addr",
          "type": "address"
        }
      ],
      "name": "setContractAddress",
      "outputs": [
        {
          "internalType": "bool",
          "name": "",
          "type": "bool"
        }
      ],
      "stateMutability": "nonpayable",
      "type": "function"
    }
  ],
  "bytecode": "0x60806040527f72756c657300000000000000000000000000000000000000000000000000000060001b6000557f61646d696e697374726174696f6e00000000000000000000000000000000000060001b600155348015605d57600080fd5b50610eef8061006d6000396000f3fe608060405234801561001057600080fd5b50600436106100885760003560e01c8063a43e04d81161005b578063a43e04d814610117578063de8fa43114610147578063e001f84114610165578063fe9fbb801461019557610088565b80630d2020dd1461008d57806310d9042e146100bd57806311601306146100db5780631e7c27cb146100f9575b600080fd5b6100a760048036038101906100a29190610887565b6101c5565b6040516100b491906108f5565b60405180910390f35b6100c5610247565b6040516100d291906109ce565b60405180910390f35b6100e361029f565b6040516100f091906109ff565b60405180910390f35b6101016102a5565b60405161010e91906109ff565b60405180910390f35b610131600480360381019061012c9190610887565b6102ab565b60405161013e9190610a35565b60405180910390f35b61014f610520565b60405161015c9190610a69565b60405180910390f35b61017f600480360381019061017a9190610ab0565b61052d565b60405161018c9190610a35565b60405180910390f35b6101af60048036038101906101aa9190610af0565b610722565b6040516101bc9190610a35565b60405180910390f35b60008060001b821161020c576040517f08c379a000000000000000000000000000000000000000000000000000000000815260040161020390610b7a565b60405180910390fd5b6002600083815260200190815260200160002060009054906101000a900473ffffffffffffffffffffffffffffffffffffffff169050919050565b6060600380548060200260200160405190810160405280929190818152602001828054801561029557602002820191906000526020600020905b815481526020019060010190808311610281575b5050505050905090565b60005481565b60015481565b60008060001b82116102f2576040517f08c379a00000000000000000000000000000000000000000000000000000000081526004016102e990610b7a565b60405180910390fd5b60006003805490501161033a576040517f08c379a000000000000000000000000000000000000000000000000000000000815260040161033190610c32565b60405180910390fd5b61034333610722565b610382576040517f08c379a000000000000000000000000000000000000000000000000000000000815260040161037990610cc4565b60405180910390fd5b6000600460008481526020019081526020016000205490506000811180156103af57506003805490508111155b1561051557600380549050811461043d576000600360016003805490506103d69190610d13565b815481106103e7576103e6610d47565b5b906000526020600020015490508060036001846104049190610d13565b8154811061041557610414610d47565b5b9060005260206000200181905550816004600083815260200190815260200160002081905550505b600380548061044f5761044e610d76565b5b600190038181906000526020600020016000905590556000600460008581526020019081526020016000208190555060006002600085815260200190815260200160002060006101000a81548173ffffffffffffffffffffffffffffffffffffffff021916908373ffffffffffffffffffffffffffffffffffffffff1602179055507fe3d908a1f6d2467f8e7c8198f30125843211345eedb763beb4cdfb7fe728a5af600084604051610503929190610da5565b60405180910390a1600191505061051b565b60009150505b919050565b6000600380549050905090565b60008060001b8311610574576040517f08c379a000000000000000000000000000000000000000000000000000000000815260040161056b90610b7a565b60405180910390fd5b600073ffffffffffffffffffffffffffffffffffffffff168273ffffffffffffffffffffffffffffffffffffffff16036105e3576040517f08c379a00000000000000000000000000000000000000000000000000000000081526004016105da90610e40565b60405180910390fd5b6105ec33610722565b61062b576040517f08c379a000000000000000000000000000000000000000000000000000000000815260040161062290610cc4565b60405180910390fd5b600060046000858152602001908152602001600020540361068d57600383908060018154018082558091505060019003906000526020600020016000909190919091505560038054905060046000858152602001908152602001600020819055505b816002600085815260200190815260200160002060006101000a81548173ffffffffffffffffffffffffffffffffffffffff021916908373ffffffffffffffffffffffffffffffffffffffff1602179055507fe3d908a1f6d2467f8e7c8198f30125843211345eedb763beb4cdfb7fe728a5af8284604051610710929190610da5565b60405180910390a16001905092915050565b60008073ffffffffffffffffffffffffffffffffffffffff1660026000600154815260200190815260200160002060009054906101000a900473ffffffffffffffffffffffffffffffffffffffff1673ffffffffffffffffffffffffffffffffffffffff16036107955760019050610847565b60026000600154815260200190815260200160002060009054906101000a900473ffffffffffffffffffffffffffffffffffffffff1673ffffffffffffffffffffffffffffffffffffffff1663fe9fbb80836040518263ffffffff1660e01b815260040161080391906108f5565b602060405180830381865afa158015610820573d6000803e3d6000fd5b505050506040513d601f19601f820116820180604052508101906108449190610e8c565b90505b919050565b600080fd5b6000819050919050565b61086481610851565b811461086f57600080fd5b50565b6000813590506108818161085b565b92915050565b60006020828403121561089d5761089c61084c565b5b60006108ab84828501610872565b91505092915050565b600073ffffffffffffffffffffffffffffffffffffffff82169050919050565b60006108df826108b4565b9050919050565b6108ef816108d4565b82525050565b600060208201905061090a60008301846108e6565b92915050565b600081519050919050565b600082825260208201905092915050565b6000819050602082019050919050565b61094581610851565b82525050565b6000610957838361093c565b60208301905092915050565b6000602082019050919050565b600061097b82610910565b610985818561091b565b93506109908361092c565b8060005b838110156109c15781516109a8888261094b565b97506109b383610963565b925050600181019050610994565b5085935050505092915050565b600060208201905081810360008301526109e88184610970565b905092915050565b6109f981610851565b82525050565b6000602082019050610a1460008301846109f0565b92915050565b60008115159050919050565b610a2f81610a1a565b82525050565b6000602082019050610a4a6000830184610a26565b92915050565b6000819050919050565b610a6381610a50565b82525050565b6000602082019050610a7e6000830184610a5a565b92915050565b610a8d816108d4565b8114610a9857600080fd5b50565b600081359050610aaa81610a84565b92915050565b60008060408385031215610ac757610ac661084c565b5b6000610ad585828601610872565b9250506020610ae685828601610a9b565b9150509250929050565b600060208284031215610b0657610b0561084c565b5b6000610b1484828501610a9b565b91505092915050565b600082825260208201905092915050565b7f436f6e7472616374206e616d65206d757374206e6f7420626520656d7074792e600082015250565b6000610b64602083610b1d565b9150610b6f82610b2e565b602082019050919050565b60006020820190508181036000830152610b9381610b57565b9050919050565b7f4d7573742068617665206174206c65617374206f6e652072656769737465726560008201527f6420636f6e747261637420746f20657865637574652064656c657465206f706560208201527f726174696f6e2e00000000000000000000000000000000000000000000000000604082015250565b6000610c1c604783610b1d565b9150610c2782610b9a565b606082019050919050565b60006020820190508181036000830152610c4b81610c0f565b9050919050565b7f4e6f7420617574686f72697a656420746f2075706461746520636f6e7472616360008201527f742072656769737472792e000000000000000000000000000000000000000000602082015250565b6000610cae602b83610b1d565b9150610cb982610c52565b604082019050919050565b60006020820190508181036000830152610cdd81610ca1565b9050919050565b7f4e487b7100000000000000000000000000000000000000000000000000000000600052601160045260246000fd5b6000610d1e82610a50565b9150610d2983610a50565b9250828203905081811115610d4157610d40610ce4565b5b92915050565b7f4e487b7100000000000000000000000000000000000000000000000000000000600052603260045260246000fd5b7f4e487b7100000000000000000000000000000000000000000000000000000000600052603160045260246000fd5b6000604082019050610dba60008301856108e6565b610dc760208301846109f0565b9392505050565b7f436f6e74726163742061646472657373206d757374206e6f74206265207a657260008201527f6f2e000000000000000000000000000000000000000000000000000000000000602082015250565b6000610e2a602283610b1d565b9150610e3582610dce565b604082019050919050565b60006020820190508181036000830152610e5981610e1d565b9050919050565b610e6981610a1a565b8114610e7457600080fd5b50565b600081519050610e8681610e60565b92915050565b600060208284031215610ea257610ea161084c565b5b6000610eb084828501610e77565b9150509291505056fea26469706673582212204e34475b1a2e261ec5049978848e01b79f2e9fc1e4702536d837cbab9ac5abe364736f6c634300081a0033",
  "linkReferences": {},
  "deployedLinkReferences": {}
}