{
  "_format": "hh-sol-artifact-1",
  "contractName": "NodeRulesV2Impl",
  "sourceName": "contracts/NodeRulesV2Impl.sol",
  "abi": [
    {
      "inputs": [
        {
          "internalType": "contract Organization",
          "name": "orgs",
          "type": "address"
        },
        {
          "internalType": "contract AccountRulesV2",
          "name": "accs",
          "type": "address"
        },
        {
          "internalType": "contract AdminProxy",
          "name": "adminProxy",
          "type": "address"
        }
      ],
      "stateMutability": "nonpayable",
      "type": "constructor"
    },
    {
      "inputs": [
        {
          "internalType": "bytes32",
          "name": "enodeHigh",
          "type": "bytes32"
        },
        {
          "internalType": "bytes32",
          "name": "enodeLow",
          "type": "bytes32"
        }
      ],
      "name": "DuplicateNode",
      "type": "error"
    },
    {
      "inputs": [
        {
          "internalType": "address",
          "name": "account",
          "type": "address"
        },
        {
          "internalType": "string",
          "name": "message",
          "type": "string"
        }
      ],
      "name": "InactiveAccount",
      "type": "error"
    },
    {
      "inputs": [
        {
          "internalType": "bytes32",
          "name": "enodeHigh",
          "type": "bytes32"
        },
        {
          "internalType": "bytes32",
          "name": "enodeLow",
          "type": "bytes32"
        }
      ],
      "name": "InactiveNode",
      "type": "error"
    },
    {
      "inputs": [
        {
          "internalType": "string",
          "name": "message",
          "type": "string"
        }
      ],
      "name": "InvalidArgument",
      "type": "error"
    },
    {
      "inputs": [
        {
          "internalType": "uint256",
          "name": "orgId",
          "type": "uint256"
        }
      ],
      "name": "InvalidOrganization",
      "type": "error"
    },
    {
      "inputs": [
        {
          "internalType": "string",
          "name": "message",
          "type": "string"
        }
      ],
      "name": "InvalidState",
      "type": "error"
    },
    {
      "inputs": [
        {
          "internalType": "bytes32",
          "name": "enodeHigh",
          "type": "bytes32"
        },
        {
          "internalType": "bytes32",
          "name": "enodeLow",
          "type": "bytes32"
        }
      ],
      "name": "NodeNotFound",
      "type": "error"
    },
    {
      "inputs": [
        {
          "internalType": "bytes32",
          "name": "enodeHigh",
          "type": "bytes32"
        },
        {
          "internalType": "bytes32",
          "name": "enodeLow",
          "type": "bytes32"
        }
      ],
      "name": "NotLocalNode",
      "type": "error"
    },
    {
      "inputs": [
        {
          "internalType": "address",
          "name": "account",
          "type": "address"
        }
      ],
      "name": "UnauthorizedAccess",
      "type": "error"
    },
    {
      "anonymous": false,
      "inputs": [
        {
          "indexed": true,
          "internalType": "bytes32",
          "name": "enodeHigh",
          "type": "bytes32"
        },
        {
          "indexed": true,
          "internalType": "bytes32",
          "name": "enodeLow",
          "type": "bytes32"
        },
        {
          "indexed": true,
          "internalType": "uint256",
          "name": "orgId",
          "type": "uint256"
        },
        {
          "indexed": false,
          "internalType": "address",
          "name": "admin",
          "type": "address"
        }
      ],
      "name": "NodeAdded",
      "type": "event"
    },
    {
      "anonymous": false,
      "inputs": [
        {
          "indexed": true,
          "internalType": "bytes32",
          "name": "enodeHigh",
          "type": "bytes32"
        },
        {
          "indexed": true,
          "internalType": "bytes32",
          "name": "enodeLow",
          "type": "bytes32"
        },
        {
          "indexed": true,
          "internalType": "uint256",
          "name": "orgId",
          "type": "uint256"
        },
        {
          "indexed": false,
          "internalType": "address",
          "name": "admin",
          "type": "address"
        }
      ],
      "name": "NodeDeleted",
      "type": "event"
    },
    {
      "anonymous": false,
      "inputs": [
        {
          "indexed": true,
          "internalType": "bytes32",
          "name": "enodeHigh",
          "type": "bytes32"
        },
        {
          "indexed": true,
          "internalType": "bytes32",
          "name": "enodeLow",
          "type": "bytes32"
        },
        {
          "indexed": true,
          "internalType": "uint256",
          "name": "orgId",
          "type": "uint256"
        },
        {
          "indexed": false,
          "internalType": "bool",
          "name": "active",
          "type": "bool"
        },
        {
          "indexed": false,
          "internalType": "address",
          "name": "admin",
          "type": "address"
        }
      ],
      "name": "NodeStatusUpdated",
      "type": "event"
    },
    {
      "anonymous": false,
      "inputs": [
        {
          "indexed": true,
          "internalType": "bytes32",
          "name": "enodeHigh",
          "type": "bytes32"
        },
        {
          "indexed": true,
          "internalType": "bytes32",
          "name": "enodeLow",
          "type": "bytes32"
        },
        {
          "indexed": true,
          "internalType": "uint256",
          "name": "orgId",
          "type": "uint256"
        },
        {
          "indexed": false,
          "internalType": "address",
          "name": "admin",
          "type": "address"
        }
      ],
      "name": "NodeUpdated",
      "type": "event"
    },
    {
      "inputs": [],
      "name": "accountsContract",
      "outputs": [
        {
          "internalType": "contract AccountRulesV2",
          "name": "",
          "type": "address"
        }
      ],
      "stateMutability": "view",
      "type": "function"
    },
    {
      "inputs": [
        {
          "internalType": "bytes32",
          "name": "enodeHigh",
          "type": "bytes32"
        },
        {
          "internalType": "bytes32",
          "name": "enodeLow",
          "type": "bytes32"
        },
        {
          "internalType": "enum NodeRulesV2.NodeType",
          "name": "nodeType",
          "type": "uint8"
        },
        {
          "internalType": "string",
          "name": "name",
          "type": "string"
        }
      ],
      "name": "addLocalNode",
      "outputs": [],
      "stateMutability": "nonpayable",
      "type": "function"
    },
    {
      "inputs": [
        {
          "internalType": "bytes32",
          "name": "enodeHigh",
          "type": "bytes32"
        },
        {
          "internalType": "bytes32",
          "name": "enodeLow",
          "type": "bytes32"
        },
        {
          "internalType": "enum NodeRulesV2.NodeType",
          "name": "nodeType",
          "type": "uint8"
        },
        {
          "internalType": "string",
          "name": "name",
          "type": "string"
        },
        {
          "internalType": "uint256",
          "name": "orgId",
          "type": "uint256"
        }
      ],
      "name": "addNode",
      "outputs": [],
      "stateMutability": "nonpayable",
      "type": "function"
    },
    {
      "inputs": [],
      "name": "admins",
      "outputs": [
        {
          "internalType": "contract AdminProxy",
          "name": "",
          "type": "address"
        }
      ],
      "stateMutability": "view",
      "type": "function"
    },
    {
      "inputs": [
        {
          "internalType": "uint256",
          "name": "",
          "type": "uint256"
        }
      ],
      "name": "allowedNodes",
      "outputs": [
        {
          "internalType": "bytes32",
          "name": "enodeHigh",
          "type": "bytes32"
        },
        {
          "internalType": "bytes32",
          "name": "enodeLow",
          "type": "bytes32"
        },
        {
          "internalType": "enum NodeRulesV2.NodeType",
          "name": "nodeType",
          "type": "uint8"
        },
        {
          "internalType": "string",
          "name": "name",
          "type": "string"
        },
        {
          "internalType": "uint256",
          "name": "orgId",
          "type": "uint256"
        },
        {
          "internalType": "bool",
          "name": "active",
          "type": "bool"
        }
      ],
      "stateMutability": "view",
      "type": "function"
    },
    {
      "inputs": [
        {
          "internalType": "bytes32",
          "name": "sourceEnodeHigh",
          "type": "bytes32"
        },
        {
          "internalType": "bytes32",
          "name": "sourceEnodeLow",
          "type": "bytes32"
        },
        {
          "internalType": "bytes16",
          "name": "",
          "type": "bytes16"
        },
        {
          "internalType": "uint16",
          "name": "",
          "type": "uint16"
        },
        {
          "internalType": "bytes32",
          "name": "destinationEnodeHigh",
          "type": "bytes32"
        },
        {
          "internalType": "bytes32",
          "name": "destinationEnodeLow",
          "type": "bytes32"
        },
        {
          "internalType": "bytes16",
          "name": "",
          "type": "bytes16"
        },
        {
          "internalType": "uint16",
          "name": "",
          "type": "uint16"
        }
      ],
      "name": "connectionAllowed",
      "outputs": [
        {
          "internalType": "bytes32",
          "name": "",
          "type": "bytes32"
        }
      ],
      "stateMutability": "view",
      "type": "function"
    },
    {
      "inputs": [
        {
          "internalType": "bytes32",
          "name": "enodeHigh",
          "type": "bytes32"
        },
        {
          "internalType": "bytes32",
          "name": "enodeLow",
          "type": "bytes32"
        }
      ],
      "name": "deleteLocalNode",
      "outputs": [],
      "stateMutability": "nonpayable",
      "type": "function"
    },
    {
      "inputs": [
        {
          "internalType": "bytes32",
          "name": "enodeHigh",
          "type": "bytes32"
        },
        {
          "internalType": "bytes32",
          "name": "enodeLow",
          "type": "bytes32"
        }
      ],
      "name": "deleteNode",
      "outputs": [],
      "stateMutability": "nonpayable",
      "type": "function"
    },
    {
      "inputs": [
        {
          "internalType": "bytes32",
          "name": "enodeHigh",
          "type": "bytes32"
        },
        {
          "internalType": "bytes32",
          "name": "enodeLow",
          "type": "bytes32"
        }
      ],
      "name": "getNode",
      "outputs": [
        {
          "components": [
            {
              "internalType": "bytes32",
              "name": "enodeHigh",
              "type": "bytes32"
            },
            {
              "internalType": "bytes32",
              "name": "enodeLow",
              "type": "bytes32"
            },
            {
              "internalType": "enum NodeRulesV2.NodeType",
              "name": "nodeType",
              "type": "uint8"
            },
            {
              "internalType": "string",
              "name": "name",
              "type": "string"
            },
            {
              "internalType": "uint256",
              "name": "orgId",
              "type": "uint256"
            },
            {
              "internalType": "bool",
              "name": "active",
              "type": "bool"
            }
          ],
          "internalType": "struct NodeRulesV2.NodeData",
          "name": "",
          "type": "tuple"
        }
      ],
      "stateMutability": "view",
      "type": "function"
    },
    {
      "inputs": [
        {
          "internalType": "uint256",
          "name": "page",
          "type": "uint256"
        },
        {
          "internalType": "uint256",
          "name": "pageSize",
          "type": "uint256"
        }
      ],
      "name": "getNodes",
      "outputs": [
        {
          "components": [
            {
              "internalType": "bytes32",
              "name": "enodeHigh",
              "type": "bytes32"
            },
            {
              "internalType": "bytes32",
              "name": "enodeLow",
              "type": "bytes32"
            },
            {
              "internalType": "enum NodeRulesV2.NodeType",
              "name": "nodeType",
              "type": "uint8"
            },
            {
              "internalType": "string",
              "name": "name",
              "type": "string"
            },
            {
              "internalType": "uint256",
              "name": "orgId",
              "type": "uint256"
            },
            {
              "internalType": "bool",
              "name": "active",
              "type": "bool"
            }
          ],
          "internalType": "struct NodeRulesV2.NodeData[]",
          "name": "",
          "type": "tuple[]"
        }
      ],
      "stateMutability": "view",
      "type": "function"
    },
    {
      "inputs": [
        {
          "internalType": "uint256",
          "name": "orgId",
          "type": "uint256"
        },
        {
          "internalType": "uint256",
          "name": "page",
          "type": "uint256"
        },
        {
          "internalType": "uint256",
          "name": "pageSize",
          "type": "uint256"
        }
      ],
      "name": "getNodesByOrg",
      "outputs": [
        {
          "components": [
            {
              "internalType": "bytes32",
              "name": "enodeHigh",
              "type": "bytes32"
            },
            {
              "internalType": "bytes32",
              "name": "enodeLow",
              "type": "bytes32"
            },
            {
              "internalType": "enum NodeRulesV2.NodeType",
              "name": "nodeType",
              "type": "uint8"
            },
            {
              "internalType": "string",
              "name": "name",
              "type": "string"
            },
            {
              "internalType": "uint256",
              "name": "orgId",
              "type": "uint256"
            },
            {
              "internalType": "bool",
              "name": "active",
              "type": "bool"
            }
          ],
          "internalType": "struct NodeRulesV2.NodeData[]",
          "name": "",
          "type": "tuple[]"
        }
      ],
      "stateMutability": "view",
      "type": "function"
    },
    {
      "inputs": [],
      "name": "getNumberOfNodes",
      "outputs": [
        {
          "internalType": "uint256",
          "name": "",
          "type": "uint256"
        }
      ],
      "stateMutability": "view",
      "type": "function"
    },
    {
      "inputs": [
        {
          "internalType": "uint256",
          "name": "orgId",
          "type": "uint256"
        }
      ],
      "name": "getNumberOfNodesByOrg",
      "outputs": [
        {
          "internalType": "uint256",
          "name": "",
          "type": "uint256"
        }
      ],
      "stateMutability": "view",
      "type": "function"
    },
    {
      "inputs": [
        {
          "internalType": "bytes32",
          "name": "enodeHigh",
          "type": "bytes32"
        },
        {
          "internalType": "bytes32",
          "name": "enodeLow",
          "type": "bytes32"
        }
      ],
      "name": "isNodeActive",
      "outputs": [
        {
          "internalType": "bool",
          "name": "",
          "type": "bool"
        }
      ],
      "stateMutability": "view",
      "type": "function"
    },
    {
      "inputs": [],
      "name": "organizationsContract",
      "outputs": [
        {
          "internalType": "contract Organization",
          "name": "",
          "type": "address"
        }
      ],
      "stateMutability": "view",
      "type": "function"
    },
    {
      "inputs": [
        {
          "internalType": "bytes32",
          "name": "enodeHigh",
          "type": "bytes32"
        },
        {
          "internalType": "bytes32",
          "name": "enodeLow",
          "type": "bytes32"
        },
        {
          "internalType": "enum NodeRulesV2.NodeType",
          "name": "nodeType",
          "type": "uint8"
        },
        {
          "internalType": "string",
          "name": "name",
          "type": "string"
        }
      ],
      "name": "updateLocalNode",
      "outputs": [],
      "stateMutability": "nonpayable",
      "type": "function"
    },
    {
      "inputs": [
        {
          "internalType": "bytes32",
          "name": "enodeHigh",
          "type": "bytes32"
        },
        {
          "internalType": "bytes32",
          "name": "enodeLow",
          "type": "bytes32"
        },
        {
          "internalType": "bool",
          "name": "active",
          "type": "bool"
        }
      ],
      "name": "updateLocalNodeStatus",
      "outputs": [],
      "stateMutability": "nonpayable",
      "type": "function"
    }
  ],
  "bytecode": "0x60e060405234801561001057600080fd5b50604051613d48380380613d4883398181016040528101906100329190610316565b80600073ffffffffffffffffffffffffffffffffffffffff168173ffffffffffffffffffffffffffffffffffffffff16036100a2576040517f08c379a0000000000000000000000000000000000000000000000000000000008152600401610099906103ec565b60405180910390fd5b8073ffffffffffffffffffffffffffffffffffffffff1660808173ffffffffffffffffffffffffffffffffffffffff168152505050600073ffffffffffffffffffffffffffffffffffffffff168373ffffffffffffffffffffffffffffffffffffffff1603610146576040517f7ffc6cec00000000000000000000000000000000000000000000000000000000815260040161013d9061047e565b60405180910390fd5b600073ffffffffffffffffffffffffffffffffffffffff168273ffffffffffffffffffffffffffffffffffffffff16036101b5576040517f7ffc6cec0000000000000000000000000000000000000000000000000000000081526004016101ac90610510565b60405180910390fd5b8273ffffffffffffffffffffffffffffffffffffffff1660c08173ffffffffffffffffffffffffffffffffffffffff16815250508173ffffffffffffffffffffffffffffffffffffffff1660a08173ffffffffffffffffffffffffffffffffffffffff1681525050505050610530565b600080fd5b600073ffffffffffffffffffffffffffffffffffffffff82169050919050565b60006102558261022a565b9050919050565b60006102678261024a565b9050919050565b6102778161025c565b811461028257600080fd5b50565b6000815190506102948161026e565b92915050565b60006102a58261024a565b9050919050565b6102b58161029a565b81146102c057600080fd5b50565b6000815190506102d2816102ac565b92915050565b60006102e38261024a565b9050919050565b6102f3816102d8565b81146102fe57600080fd5b50565b600081519050610310816102ea565b92915050565b60008060006060848603121561032f5761032e610225565b5b600061033d86828701610285565b935050602061034e868287016102c3565b925050604061035f86828701610301565b9150509250925092565b600082825260208201905092915050565b7f496e76616c6964206164647265737320666f722041646d696e206d616e61676560008201527f6d656e7420736d61727420636f6e747261637400000000000000000000000000602082015250565b60006103d6603383610369565b91506103e18261037a565b604082019050919050565b60006020820190508181036000830152610405816103c9565b9050919050565b7f496e76616c6964206164647265737320666f72204f7267616e697a6174696f6e60008201527f206d616e6167656d656e7420736d61727420636f6e7472616374000000000000602082015250565b6000610468603a83610369565b91506104738261040c565b604082019050919050565b600060208201905081810360008301526104978161045b565b9050919050565b7f496e76616c6964206164647265737320666f72204163636f756e74206d616e6160008201527f67656d656e7420736d61727420636f6e74726163740000000000000000000000602082015250565b60006104fa603583610369565b91506105058261049e565b604082019050919050565b60006020820190508181036000830152610529816104ed565b9050919050565b60805160a05160c05161376b6105dd600039600081816105a901528181610bb20152610df00152600081816105380152818161067e01528181610742015281816108420152818161091f01528181610e4901528181610f0d0152818161100d015281816111900152818161125401528181611354015281816114790152818161153d0152818161163d0152611e1301526000818161039d015281816109d50152610ad7015261376b6000f3fe608060405234801561001057600080fd5b506004361061010b5760003560e01c8063a63ca076116100a2578063b81c806a11610071578063b81c806a146102e3578063d05f680914610301578063d90a63ff14610331578063e78004e41461034d578063ea8c0bc9146103695761010b565b8063a63ca07614610244578063a9aab5eb14610279578063af50afc714610295578063b818765f146102c55761010b565b806374d5249c116100de57806374d5249c146101aa57806376ccad21146101da57806397689f171461020a578063a5de3619146102265761010b565b8063038d67e81461011057806333aa9b2e146101405780633620b1df1461015c578063446f201e1461018c575b600080fd5b61012a600480360381019061012591906122f8565b610385565b60405161013791906125cd565b60405180910390f35b61015a6004803603810190610155919061261b565b61039b565b005b610176600480360381019061017191906126ed565b6104b5565b60405161018391906127b2565b60405180910390f35b610194610536565b6040516101a1919061284c565b60405180910390f35b6101c460048036038101906101bf9190612867565b61055a565b6040516101d191906125cd565b60405180910390f35b6101f460048036038101906101ef919061261b565b610582565b60405161020191906128c9565b60405180910390f35b610224600480360381019061021f919061296e565b61067c565b005b61022e6109d3565b60405161023b9190612a17565b60405180910390f35b61025e60048036038101906102599190612a32565b6109f7565b60405161027096959493929190612ac7565b60405180910390f35b610293600480360381019061028e9190612b2f565b610ad5565b005b6102af60048036038101906102aa919061261b565b610ca1565b6040516102bc9190612c52565b60405180910390f35b6102cd610dee565b6040516102da9190612c95565b60405180910390f35b6102eb610e12565b6040516102f89190612cb0565b60405180910390f35b61031b60048036038101906103169190612a32565b610e23565b6040516103289190612cb0565b60405180910390f35b61034b60048036038101906103469190612cf7565b610e47565b005b6103676004803603810190610362919061261b565b61118e565b005b610383600480360381019061037e919061296e565b611477565b005b6060610393600184846117fd565b905092915050565b7f000000000000000000000000000000000000000000000000000000000000000073ffffffffffffffffffffffffffffffffffffffff1663fe9fbb80336040518263ffffffff1660e01b81526004016103f49190612d6b565b602060405180830381865afa158015610411573d6000803e3d6000fd5b505050506040513d601f19601f820116820180604052508101906104359190612d9b565b61047657336040517fdccef96400000000000000000000000000000000000000000000000000000000815260040161046d9190612d6b565b60405180910390fd5b60006104828383611ad3565b905061048f838383611b09565b6104b083838360008086815260200190815260200160002060040154611b5a565b505050565b60006104c18989610582565b80156104d357506104d28585610582565b5b15610503577fffffffffffffffffffffffffffffffffffffffffffffffffffffffffffffffff60001b905061052a565b7f7fffffffffffffffffffffffffffffffffffffffffffffffffffffffffffffff60001b90505b98975050505050505050565b7f000000000000000000000000000000000000000000000000000000000000000081565b60606105796003600086815260200190815260200160002084846117fd565b90509392505050565b60008061058f8484611ad3565b9050600080600083815260200190815260200160002090507f000000000000000000000000000000000000000000000000000000000000000073ffffffffffffffffffffffffffffffffffffffff16632e9e006c82600401546040518263ffffffff1660e01b81526004016106049190612cb0565b602060405180830381865afa158015610621573d6000803e3d6000fd5b505050506040513d601f19601f820116820180604052508101906106459190612d9b565b801561065f57508060050160009054906101000a900460ff165b1561066f57600192505050610676565b6000925050505b92915050565b7f000000000000000000000000000000000000000000000000000000000000000073ffffffffffffffffffffffffffffffffffffffff166391d148547fd6e7d8560c69c7c18c2b8f3b45430215d788f128f0c04bc4a3607fe05eb5399f336040518363ffffffff1660e01b81526004016106f7929190612dc8565b602060405180830381865afa158015610714573d6000803e3d6000fd5b505050506040513d601f19601f820116820180604052508101906107389190612d9b565b1580156107fe57507f000000000000000000000000000000000000000000000000000000000000000073ffffffffffffffffffffffffffffffffffffffff166391d148547fb7f8beecafe1ad662cec1153812612581a86b9460f21b876f3ee163141203dcb336040518363ffffffff1660e01b81526004016107bb929190612dc8565b602060405180830381865afa1580156107d8573d6000803e3d6000fd5b505050506040513d601f19601f820116820180604052508101906107fc9190612d9b565b155b1561084057336040517fdccef9640000000000000000000000000000000000000000000000000000000081526004016108379190612d6b565b60405180910390fd5b7f000000000000000000000000000000000000000000000000000000000000000073ffffffffffffffffffffffffffffffffffffffff1663ab9d0cdd336040518263ffffffff1660e01b81526004016108999190612d6b565b602060405180830381865afa1580156108b6573d6000803e3d6000fd5b505050506040513d601f19601f820116820180604052508101906108da9190612d9b565b61091b57336040517ffcbe8fe50000000000000000000000000000000000000000000000000000000081526004016109129190612e63565b60405180910390fd5b60007f000000000000000000000000000000000000000000000000000000000000000073ffffffffffffffffffffffffffffffffffffffff1663fbcbc0f1336040518263ffffffff1660e01b81526004016109769190612d6b565b60a060405180830381865afa158015610993573d6000803e3d6000fd5b505050506040513d601f19601f820116820180604052508101906109b79190612ff3565b90506109cb86868686868660000151611c3a565b505050505050565b7f000000000000000000000000000000000000000000000000000000000000000081565b60006020528060005260406000206000915090508060000154908060010154908060020160009054906101000a900460ff1690806003018054610a399061304f565b80601f0160208091040260200160405190810160405280929190818152602001828054610a659061304f565b8015610ab25780601f10610a8757610100808354040283529160200191610ab2565b820191906000526020600020905b815481529060010190602001808311610a9557829003601f168201915b5050505050908060040154908060050160009054906101000a900460ff16905086565b7f000000000000000000000000000000000000000000000000000000000000000073ffffffffffffffffffffffffffffffffffffffff1663fe9fbb80336040518263ffffffff1660e01b8152600401610b2e9190612d6b565b602060405180830381865afa158015610b4b573d6000803e3d6000fd5b505050506040513d601f19601f82011682018060405250810190610b6f9190612d9b565b610bb057336040517fdccef964000000000000000000000000000000000000000000000000000000008152600401610ba79190612d6b565b60405180910390fd5b7f000000000000000000000000000000000000000000000000000000000000000073ffffffffffffffffffffffffffffffffffffffff16632e9e006c826040518263ffffffff1660e01b8152600401610c099190612cb0565b602060405180830381865afa158015610c26573d6000803e3d6000fd5b505050506040513d601f19601f82011682018060405250810190610c4a9190612d9b565b610c8b57806040517fd7a4fe32000000000000000000000000000000000000000000000000000000008152600401610c829190612cb0565b60405180910390fd5b610c99868686868686611c3a565b505050505050565b610ca9612201565b6000610cb58484611ad3565b9050610cc2848483611b09565b6000808281526020019081526020016000206040518060c001604052908160008201548152602001600182015481526020016002820160009054906101000a900460ff166006811115610d1857610d1761237d565b5b6006811115610d2a57610d2961237d565b5b8152602001600382018054610d3e9061304f565b80601f0160208091040260200160405190810160405280929190818152602001828054610d6a9061304f565b8015610db75780601f10610d8c57610100808354040283529160200191610db7565b820191906000526020600020905b815481529060010190602001808311610d9a57829003601f168201915b50505050508152602001600482015481526020016005820160009054906101000a900460ff16151515158152505091505092915050565b7f000000000000000000000000000000000000000000000000000000000000000081565b6000610e1e6001611dfa565b905090565b6000610e4060036000848152602001908152602001600020611dfa565b9050919050565b7f000000000000000000000000000000000000000000000000000000000000000073ffffffffffffffffffffffffffffffffffffffff166391d148547fd6e7d8560c69c7c18c2b8f3b45430215d788f128f0c04bc4a3607fe05eb5399f336040518363ffffffff1660e01b8152600401610ec2929190612dc8565b602060405180830381865afa158015610edf573d6000803e3d6000fd5b505050506040513d601f19601f82011682018060405250810190610f039190612d9b565b158015610fc957507f000000000000000000000000000000000000000000000000000000000000000073ffffffffffffffffffffffffffffffffffffffff166391d148547fb7f8beecafe1ad662cec1153812612581a86b9460f21b876f3ee163141203dcb336040518363ffffffff1660e01b8152600401610f86929190612dc8565b602060405180830381865afa158015610fa3573d6000803e3d6000fd5b505050506040513d601f19601f82011682018060405250810190610fc79190612d9b565b155b1561100b57336040517fdccef9640000000000000000000000000000000000000000000000000000000081526004016110029190612d6b565b60405180910390fd5b7f000000000000000000000000000000000000000000000000000000000000000073ffffffffffffffffffffffffffffffffffffffff1663ab9d0cdd336040518263ffffffff1660e01b81526004016110649190612d6b565b602060405180830381865afa158015611081573d6000803e3d6000fd5b505050506040513d601f19601f820116820180604052508101906110a59190612d9b565b6110e657336040517ffcbe8fe50000000000000000000000000000000000000000000000000000000081526004016110dd9190612e63565b60405180910390fd5b60006110f28484611ad3565b90506110ff848483611b09565b61110a848483611e0f565b8160008083815260200190815260200160002060050160006101000a81548160ff0219169083151502179055506000808281526020019081526020016000206004015483857fac0851ccfe2786016b9a762330b7e796bc2801b6d15708d736bd73fbf2c2ecc98533604051611180929190613080565b60405180910390a450505050565b7f000000000000000000000000000000000000000000000000000000000000000073ffffffffffffffffffffffffffffffffffffffff166391d148547fd6e7d8560c69c7c18c2b8f3b45430215d788f128f0c04bc4a3607fe05eb5399f336040518363ffffffff1660e01b8152600401611209929190612dc8565b602060405180830381865afa158015611226573d6000803e3d6000fd5b505050506040513d601f19601f8201168201806040525081019061124a9190612d9b565b15801561131057507f000000000000000000000000000000000000000000000000000000000000000073ffffffffffffffffffffffffffffffffffffffff166391d148547fb7f8beecafe1ad662cec1153812612581a86b9460f21b876f3ee163141203dcb336040518363ffffffff1660e01b81526004016112cd929190612dc8565b602060405180830381865afa1580156112ea573d6000803e3d6000fd5b505050506040513d601f19601f8201168201806040525081019061130e9190612d9b565b155b1561135257336040517fdccef9640000000000000000000000000000000000000000000000000000000081526004016113499190612d6b565b60405180910390fd5b7f000000000000000000000000000000000000000000000000000000000000000073ffffffffffffffffffffffffffffffffffffffff1663ab9d0cdd336040518263ffffffff1660e01b81526004016113ab9190612d6b565b602060405180830381865afa1580156113c8573d6000803e3d6000fd5b505050506040513d601f19601f820116820180604052508101906113ec9190612d9b565b61142d57336040517ffcbe8fe50000000000000000000000000000000000000000000000000000000081526004016114249190612e63565b60405180910390fd5b60006114398383611ad3565b9050611446838383611b09565b611451838383611e0f565b61147283838360008086815260200190815260200160002060040154611b5a565b505050565b7f000000000000000000000000000000000000000000000000000000000000000073ffffffffffffffffffffffffffffffffffffffff166391d148547fd6e7d8560c69c7c18c2b8f3b45430215d788f128f0c04bc4a3607fe05eb5399f336040518363ffffffff1660e01b81526004016114f2929190612dc8565b602060405180830381865afa15801561150f573d6000803e3d6000fd5b505050506040513d601f19601f820116820180604052508101906115339190612d9b565b1580156115f957507f000000000000000000000000000000000000000000000000000000000000000073ffffffffffffffffffffffffffffffffffffffff166391d148547fb7f8beecafe1ad662cec1153812612581a86b9460f21b876f3ee163141203dcb336040518363ffffffff1660e01b81526004016115b6929190612dc8565b602060405180830381865afa1580156115d3573d6000803e3d6000fd5b505050506040513d601f19601f820116820180604052508101906115f79190612d9b565b155b1561163b57336040517fdccef9640000000000000000000000000000000000000000000000000000000081526004016116329190612d6b565b60405180910390fd5b7f000000000000000000000000000000000000000000000000000000000000000073ffffffffffffffffffffffffffffffffffffffff1663ab9d0cdd336040518263ffffffff1660e01b81526004016116949190612d6b565b602060405180830381865afa1580156116b1573d6000803e3d6000fd5b505050506040513d601f19601f820116820180604052508101906116d59190612d9b565b61171657336040517ffcbe8fe500000000000000000000000000000000000000000000000000000000815260040161170d9190612e63565b60405180910390fd5b60006117228686611ad3565b905061172f868683611b09565b61173a868683611e0f565b6117448383611f12565b8360008083815260200190815260200160002060020160006101000a81548160ff0219169083600681111561177c5761177b61237d565b5b0217905550828260008084815260200190815260200160002060030191826117a5929190613256565b506000808281526020019081526020016000206004015485877f5e470e4ee365b9df80d45720dd703d05a1dbf1339fe6d29fbfeb09552b841194336040516117ed9190612d6b565b60405180910390a4505050505050565b60606001831015611843576040517f7ffc6cec00000000000000000000000000000000000000000000000000000000815260040161183a90613398565b60405180910390fd5b6001821015611887576040517f7ffc6cec00000000000000000000000000000000000000000000000000000000815260040161187e9061342a565b60405180910390fd5b6000826001856118979190613479565b6118a191906134ad565b90506118ac85611dfa565b8111156118bf576118bc85611dfa565b90505b600083826118cd91906134ef565b90506118d886611dfa565b8111156118eb576118e886611dfa565b90505b600082826118f99190613479565b67ffffffffffffffff81111561191257611911612e96565b5b60405190808252806020026020018201604052801561194b57816020015b611938612201565b8152602001906001900390816119305790505b50905060008390505b82811015611ac557600080611972838b611f5c90919063ffffffff16565b81526020019081526020016000206040518060c001604052908160008201548152602001600182015481526020016002820160009054906101000a900460ff1660068111156119c4576119c361237d565b5b60068111156119d6576119d561237d565b5b81526020016003820180546119ea9061304f565b80601f0160208091040260200160405190810160405280929190818152602001828054611a169061304f565b8015611a635780601f10611a3857610100808354040283529160200191611a63565b820191906000526020600020905b815481529060010190602001808311611a4657829003601f168201915b50505050508152602001600482015481526020016005820160009054906101000a900460ff161515151581525050828583611a9e9190613479565b81518110611aaf57611aae613523565b5b6020026020010181905250806001019050611954565b508093505050509392505050565b60008282604051602001611ae8929190613573565b6040516020818303038152906040528051906020012060001c905092915050565b611b1281611f76565b611b555782826040517f1d288f3e000000000000000000000000000000000000000000000000000000008152600401611b4c92919061359f565b60405180910390fd5b505050565b60008083815260200190815260200160002060008082016000905560018201600090556002820160006101000a81549060ff0219169055600382016000611ba19190612251565b60048201600090556005820160006101000a81549060ff02191690555050611bd3826001611f9890919063ffffffff16565b50611bf98260036000848152602001908152602001600020611f9890919063ffffffff16565b508083857f5f57be241d751c91ce22f1e2397ec0ce83feb680a7d1bf560991c637f72581cf33604051611c2c9190612d6b565b60405180910390a450505050565b6000611c468787611ad3565b9050611c53878783611fb2565b611c5d8484611f12565b6040518060c00160405280888152602001878152602001866006811115611c8757611c8661237d565b5b815260200185858080601f016020809104026020016040519081016040528093929190818152602001838380828437600081840152601f19601f82011690508083019250505050505050815260200183815260200160011515815250600080838152602001908152602001600020600082015181600001556020820151816001015560408201518160020160006101000a81548160ff02191690836006811115611d3457611d3361237d565b5b02179055506060820151816003019081611d4e91906135c8565b506080820151816004015560a08201518160050160006101000a81548160ff021916908315150217905550905050611d9081600161200490919063ffffffff16565b50611db6816003600085815260200190815260200160002061200490919063ffffffff16565b508186887f1e35ef79a100553c4d145bc99d7de04859f3011ab2ffd24dca03e79f5a73f75d33604051611de99190612d6b565b60405180910390a450505050505050565b6000611e088260000161201e565b9050919050565b60007f000000000000000000000000000000000000000000000000000000000000000073ffffffffffffffffffffffffffffffffffffffff1663fbcbc0f1336040518263ffffffff1660e01b8152600401611e6a9190612d6b565b60a060405180830381865afa158015611e87573d6000803e3d6000fd5b505050506040513d601f19601f82011682018060405250810190611eab9190612ff3565b905060008083815260200190815260200160002060040154816000015114611f0c5783836040517fbb148018000000000000000000000000000000000000000000000000000000008152600401611f0392919061359f565b60405180910390fd5b50505050565b60008282905003611f58576040517f7ffc6cec000000000000000000000000000000000000000000000000000000008152600401611f4f906136e6565b60405180910390fd5b5050565b6000611f6b836000018361202f565b60001c905092915050565b6000806000808481526020019081526020016000206004015414159050919050565b6000611faa836000018360001b61205a565b905092915050565b611fbb81611f76565b15611fff5782826040517f36f81984000000000000000000000000000000000000000000000000000000008152600401611ff692919061359f565b60405180910390fd5b505050565b6000612016836000018360001b61216e565b905092915050565b600081600001805490509050919050565b600082600001828154811061204757612046613523565b5b9060005260206000200154905092915050565b6000808360010160008481526020019081526020016000205490506000811461216257600060018261208c9190613479565b90506000600186600001805490506120a49190613479565b90508082146121135760008660000182815481106120c5576120c4613523565b5b90600052602060002001549050808760000184815481106120e9576120e8613523565b5b90600052602060002001819055508387600101600083815260200190815260200160002081905550505b8560000180548061212757612126613706565b5b600190038181906000526020600020016000905590558560010160008681526020019081526020016000206000905560019350505050612168565b60009150505b92915050565b600061217a83836121de565b6121d35782600001829080600181540180825580915050600190039060005260206000200160009091909190915055826000018054905083600101600084815260200190815260200160002081905550600190506121d8565b600090505b92915050565b600080836001016000848152602001908152602001600020541415905092915050565b6040518060c001604052806000801916815260200160008019168152602001600060068111156122345761223361237d565b5b815260200160608152602001600081526020016000151581525090565b50805461225d9061304f565b6000825580601f1061226f575061228e565b601f01602090049060005260206000209081019061228d9190612291565b5b50565b5b808211156122aa576000816000905550600101612292565b5090565b6000604051905090565b600080fd5b600080fd5b6000819050919050565b6122d5816122c2565b81146122e057600080fd5b50565b6000813590506122f2816122cc565b92915050565b6000806040838503121561230f5761230e6122b8565b5b600061231d858286016122e3565b925050602061232e858286016122e3565b9150509250929050565b600081519050919050565b600082825260208201905092915050565b6000819050602082019050919050565b6000819050919050565b61237781612364565b82525050565b7f4e487b7100000000000000000000000000000000000000000000000000000000600052602160045260246000fd5b600781106123bd576123bc61237d565b5b50565b60008190506123ce826123ac565b919050565b60006123de826123c0565b9050919050565b6123ee816123d3565b82525050565b600081519050919050565b600082825260208201905092915050565b60005b8381101561242e578082015181840152602081019050612413565b60008484015250505050565b6000601f19601f8301169050919050565b6000612456826123f4565b61246081856123ff565b9350612470818560208601612410565b6124798161243a565b840191505092915050565b61248d816122c2565b82525050565b60008115159050919050565b6124a881612493565b82525050565b600060c0830160008301516124c6600086018261236e565b5060208301516124d9602086018261236e565b5060408301516124ec60408601826123e5565b5060608301518482036060860152612504828261244b565b91505060808301516125196080860182612484565b5060a083015161252c60a086018261249f565b508091505092915050565b600061254383836124ae565b905092915050565b6000602082019050919050565b600061256382612338565b61256d8185612343565b93508360208202850161257f85612354565b8060005b858110156125bb578484038952815161259c8582612537565b94506125a78361254b565b925060208a01995050600181019050612583565b50829750879550505050505092915050565b600060208201905081810360008301526125e78184612558565b905092915050565b6125f881612364565b811461260357600080fd5b50565b600081359050612615816125ef565b92915050565b60008060408385031215612632576126316122b8565b5b600061264085828601612606565b925050602061265185828601612606565b9150509250929050565b60007fffffffffffffffffffffffffffffffff0000000000000000000000000000000082169050919050565b6126908161265b565b811461269b57600080fd5b50565b6000813590506126ad81612687565b92915050565b600061ffff82169050919050565b6126ca816126b3565b81146126d557600080fd5b50565b6000813590506126e7816126c1565b92915050565b600080600080600080600080610100898b03121561270e5761270d6122b8565b5b600061271c8b828c01612606565b985050602061272d8b828c01612606565b975050604061273e8b828c0161269e565b965050606061274f8b828c016126d8565b95505060806127608b828c01612606565b94505060a06127718b828c01612606565b93505060c06127828b828c0161269e565b92505060e06127938b828c016126d8565b9150509295985092959890939650565b6127ac81612364565b82525050565b60006020820190506127c760008301846127a3565b92915050565b600073ffffffffffffffffffffffffffffffffffffffff82169050919050565b6000819050919050565b600061281261280d612808846127cd565b6127ed565b6127cd565b9050919050565b6000612824826127f7565b9050919050565b600061283682612819565b9050919050565b6128468161282b565b82525050565b6000602082019050612861600083018461283d565b92915050565b6000806000606084860312156128805761287f6122b8565b5b600061288e868287016122e3565b935050602061289f868287016122e3565b92505060406128b0868287016122e3565b9150509250925092565b6128c381612493565b82525050565b60006020820190506128de60008301846128ba565b92915050565b600781106128f157600080fd5b50565b600081359050612903816128e4565b92915050565b600080fd5b600080fd5b600080fd5b60008083601f84011261292e5761292d612909565b5b8235905067ffffffffffffffff81111561294b5761294a61290e565b5b60208301915083600182028301111561296757612966612913565b5b9250929050565b60008060008060006080868803121561298a576129896122b8565b5b600061299888828901612606565b95505060206129a988828901612606565b94505060406129ba888289016128f4565b935050606086013567ffffffffffffffff8111156129db576129da6122bd565b5b6129e788828901612918565b92509250509295509295909350565b6000612a0182612819565b9050919050565b612a11816129f6565b82525050565b6000602082019050612a2c6000830184612a08565b92915050565b600060208284031215612a4857612a476122b8565b5b6000612a56848285016122e3565b91505092915050565b612a68816123d3565b82525050565b600082825260208201905092915050565b6000612a8a826123f4565b612a948185612a6e565b9350612aa4818560208601612410565b612aad8161243a565b840191505092915050565b612ac1816122c2565b82525050565b600060c082019050612adc60008301896127a3565b612ae960208301886127a3565b612af66040830187612a5f565b8181036060830152612b088186612a7f565b9050612b176080830185612ab8565b612b2460a08301846128ba565b979650505050505050565b60008060008060008060a08789031215612b4c57612b4b6122b8565b5b6000612b5a89828a01612606565b9650506020612b6b89828a01612606565b9550506040612b7c89828a016128f4565b945050606087013567ffffffffffffffff811115612b9d57612b9c6122bd565b5b612ba989828a01612918565b93509350506080612bbc89828a016122e3565b9150509295509295509295565b600060c083016000830151612be1600086018261236e565b506020830151612bf4602086018261236e565b506040830151612c0760408601826123e5565b5060608301518482036060860152612c1f828261244b565b9150506080830151612c346080860182612484565b5060a0830151612c4760a086018261249f565b508091505092915050565b60006020820190508181036000830152612c6c8184612bc9565b905092915050565b6000612c7f82612819565b9050919050565b612c8f81612c74565b82525050565b6000602082019050612caa6000830184612c86565b92915050565b6000602082019050612cc56000830184612ab8565b92915050565b612cd481612493565b8114612cdf57600080fd5b50565b600081359050612cf181612ccb565b92915050565b600080600060608486031215612d1057612d0f6122b8565b5b6000612d1e86828701612606565b9350506020612d2f86828701612606565b9250506040612d4086828701612ce2565b9150509250925092565b6000612d55826127cd565b9050919050565b612d6581612d4a565b82525050565b6000602082019050612d806000830184612d5c565b92915050565b600081519050612d9581612ccb565b92915050565b600060208284031215612db157612db06122b8565b5b6000612dbf84828501612d86565b91505092915050565b6000604082019050612ddd60008301856127a3565b612dea6020830184612d5c565b9392505050565b7f546865206163636f756e74206f72207468652072657370656374697665206f7260008201527f67616e697a6174696f6e206973206e6f74206163746976650000000000000000602082015250565b6000612e4d603883612a6e565b9150612e5882612df1565b604082019050919050565b6000604082019050612e786000830184612d5c565b8181036020830152612e8981612e40565b905092915050565b600080fd5b7f4e487b7100000000000000000000000000000000000000000000000000000000600052604160045260246000fd5b612ece8261243a565b810181811067ffffffffffffffff82111715612eed57612eec612e96565b5b80604052505050565b6000612f006122ae565b9050612f0c8282612ec5565b919050565b600081519050612f20816122cc565b92915050565b612f2f81612d4a565b8114612f3a57600080fd5b50565b600081519050612f4c81612f26565b92915050565b600081519050612f61816125ef565b92915050565b600060a08284031215612f7d57612f7c612e91565b5b612f8760a0612ef6565b90506000612f9784828501612f11565b6000830152506020612fab84828501612f3d565b6020830152506040612fbf84828501612f52565b6040830152506060612fd384828501612f52565b6060830152506080612fe784828501612d86565b60808301525092915050565b600060a08284031215613009576130086122b8565b5b600061301784828501612f67565b91505092915050565b7f4e487b7100000000000000000000000000000000000000000000000000000000600052602260045260246000fd5b6000600282049050600182168061306757607f821691505b60208210810361307a57613079613020565b5b50919050565b600060408201905061309560008301856128ba565b6130a26020830184612d5c565b9392505050565b600082905092915050565b60008190508160005260206000209050919050565b60006020601f8301049050919050565b600082821b905092915050565b6000600883026131167fffffffffffffffffffffffffffffffffffffffffffffffffffffffffffffffff826130d9565b61312086836130d9565b95508019841693508086168417925050509392505050565b600061315361314e613149846122c2565b6127ed565b6122c2565b9050919050565b6000819050919050565b61316d83613138565b6131816131798261315a565b8484546130e6565b825550505050565b600090565b613196613189565b6131a1818484613164565b505050565b5b818110156131c5576131ba60008261318e565b6001810190506131a7565b5050565b601f82111561320a576131db816130b4565b6131e4846130c9565b810160208510156131f3578190505b6132076131ff856130c9565b8301826131a6565b50505b505050565b600082821c905092915050565b600061322d6000198460080261320f565b1980831691505092915050565b6000613246838361321c565b9150826002028217905092915050565b61326083836130a9565b67ffffffffffffffff81111561327957613278612e96565b5b613283825461304f565b61328e8282856131c9565b6000601f8311600181146132bd57600084156132ab578287013590505b6132b5858261323a565b86555061331d565b601f1984166132cb866130b4565b60005b828110156132f3578489013582556001820191506020850194506020810190506132ce565b86831015613310578489013561330c601f89168261321c565b8355505b6001600288020188555050505b50505050505050565b7f50616765206d7573742062652067726561746572206f7220657175616c20746f60008201527f2031200000000000000000000000000000000000000000000000000000000000602082015250565b6000613382602383612a6e565b915061338d82613326565b604082019050919050565b600060208201905081810360008301526133b181613375565b9050919050565b7f506167652073697a65206d7573742062652067726561746572206f722065717560008201527f616c20746f203120000000000000000000000000000000000000000000000000602082015250565b6000613414602883612a6e565b915061341f826133b8565b604082019050919050565b6000602082019050818103600083015261344381613407565b9050919050565b7f4e487b7100000000000000000000000000000000000000000000000000000000600052601160045260246000fd5b6000613484826122c2565b915061348f836122c2565b92508282039050818111156134a7576134a661344a565b5b92915050565b60006134b8826122c2565b91506134c3836122c2565b92508282026134d1816122c2565b915082820484148315176134e8576134e761344a565b5b5092915050565b60006134fa826122c2565b9150613505836122c2565b925082820190508082111561351d5761351c61344a565b5b92915050565b7f4e487b7100000000000000000000000000000000000000000000000000000000600052603260045260246000fd5b6000819050919050565b61356d61356882612364565b613552565b82525050565b600061357f828561355c565b60208201915061358f828461355c565b6020820191508190509392505050565b60006040820190506135b460008301856127a3565b6135c160208301846127a3565b9392505050565b6135d1826123f4565b67ffffffffffffffff8111156135ea576135e9612e96565b5b6135f4825461304f565b6135ff8282856131c9565b600060209050601f8311600181146136325760008415613620578287015190505b61362a858261323a565b865550613692565b601f198416613640866130b4565b60005b8281101561366857848901518255600182019150602085019450602081019050613643565b868310156136855784890151613681601f89168261321c565b8355505b6001600288020188555050505b505050505050565b7f4e6f6465206e616d652063616e6e6f7420626520656d7074792e000000000000600082015250565b60006136d0601a83612a6e565b91506136db8261369a565b602082019050919050565b600060208201905081810360008301526136ff816136c3565b9050919050565b7f4e487b7100000000000000000000000000000000000000000000000000000000600052603160045260246000fdfea264697066735822122099825f63051e122659a14307e9572f9c26ef52c0fe1f3b85bad3da9ae8de979664736f6c634300081a0033",
  "linkReferences": {},
  "deployedLinkReferences": {}
}