{
  "_format": "hh-sol-artifact-1",
  "contractName": "NodeRulesV2Impl",
  "sourceName": "contracts/NodeRulesV2Impl.sol",
  "abi": [
    {
      "inputs": [
        {
          "internalType": "contract Organization",
          "name": "orgs",
          "type": "address"
        },
        {
          "internalType": "contract AccountRulesV2",
          "name": "accs",
          "type": "address"
        },
        {
          "internalType": "contract AdminProxy",
          "name": "adminProxy",
          "type": "address"
        }
      ],
      "stateMutability": "nonpayable",
      "type": "constructor"
    },
    {
      "inputs": [
        {
          "internalType": "bytes32",
          "name": "enodeHigh",
          "type": "bytes32"
        },
        {
          "internalType": "bytes32",
          "name": "enodeLow",
          "type": "bytes32"
        }
      ],
      "name": "DuplicateNode",
      "type": "error"
    },
    {
      "inputs": [
        {
          "internalType": "address",
          "name": "account",
          "type": "address"
        },
        {
          "internalType": "string",
          "name": "message",
          "type": "string"
        }
      ],
      "name": "InactiveAccount",
      "type": "error"
    },
    {
      "inputs": [
        {
          "internalType": "bytes32",
          "name": "enodeHigh",
          "type": "bytes32"
        },
        {
          "internalType": "bytes32",
          "name": "enodeLow",
          "type": "bytes32"
        }
      ],
      "name": "InactiveNode",
      "type": "error"
    },
    {
      "inputs": [
        {
          "internalType": "string",
          "name": "message",
          "type": "string"
        }
      ],
      "name": "InvalidArgument",
      "type": "error"
    },
    {
      "inputs": [
        {
          "internalType": "uint256",
          "name": "orgId",
          "type": "uint256"
        }
      ],
      "name": "InvalidOrganization",
      "type": "error"
    },
    {
      "inputs": [],
      "name": "InvalidPaginationParameter",
      "type": "error"
    },
    {
      "inputs": [
        {
          "internalType": "string",
          "name": "message",
          "type": "string"
        }
      ],
      "name": "InvalidState",
      "type": "error"
    },
    {
      "inputs": [
        {
          "internalType": "bytes32",
          "name": "enodeHigh",
          "type": "bytes32"
        },
        {
          "internalType": "bytes32",
          "name": "enodeLow",
          "type": "bytes32"
        }
      ],
      "name": "NodeNotFound",
      "type": "error"
    },
    {
      "inputs": [
        {
          "internalType": "bytes32",
          "name": "enodeHigh",
          "type": "bytes32"
        },
        {
          "internalType": "bytes32",
          "name": "enodeLow",
          "type": "bytes32"
        }
      ],
      "name": "NotLocalNode",
      "type": "error"
    },
    {
      "inputs": [
        {
          "internalType": "address",
          "name": "account",
          "type": "address"
        }
      ],
      "name": "UnauthorizedAccess",
      "type": "error"
    },
    {
      "anonymous": false,
      "inputs": [
        {
          "indexed": true,
          "internalType": "bytes32",
          "name": "enodeHigh",
          "type": "bytes32"
        },
        {
          "indexed": true,
          "internalType": "bytes32",
          "name": "enodeLow",
          "type": "bytes32"
        },
        {
          "indexed": true,
          "internalType": "uint256",
          "name": "orgId",
          "type": "uint256"
        },
        {
          "indexed": false,
          "internalType": "enum NodeRulesV2.NodeType",
          "name": "nodeType",
          "type": "uint8"
        },
        {
          "indexed": false,
          "internalType": "string",
          "name": "name",
          "type": "string"
        }
      ],
      "name": "NodeAdded",
      "type": "event"
    },
    {
      "anonymous": false,
      "inputs": [
        {
          "indexed": true,
          "internalType": "bytes32",
          "name": "enodeHigh",
          "type": "bytes32"
        },
        {
          "indexed": true,
          "internalType": "bytes32",
          "name": "enodeLow",
          "type": "bytes32"
        },
        {
          "indexed": true,
          "internalType": "uint256",
          "name": "orgId",
          "type": "uint256"
        }
      ],
      "name": "NodeDeleted",
      "type": "event"
    },
    {
      "anonymous": false,
      "inputs": [
        {
          "indexed": true,
          "internalType": "bytes32",
          "name": "enodeHigh",
          "type": "bytes32"
        },
        {
          "indexed": true,
          "internalType": "bytes32",
          "name": "enodeLow",
          "type": "bytes32"
        },
        {
          "indexed": true,
          "internalType": "uint256",
          "name": "orgId",
          "type": "uint256"
        },
        {
          "indexed": false,
          "internalType": "bool",
          "name": "active",
          "type": "bool"
        }
      ],
      "name": "NodeStatusUpdated",
      "type": "event"
    },
    {
      "anonymous": false,
      "inputs": [
        {
          "indexed": true,
          "internalType": "bytes32",
          "name": "enodeHigh",
          "type": "bytes32"
        },
        {
          "indexed": true,
          "internalType": "bytes32",
          "name": "enodeLow",
          "type": "bytes32"
        },
        {
          "indexed": true,
          "internalType": "uint256",
          "name": "orgId",
          "type": "uint256"
        },
        {
          "indexed": false,
          "internalType": "enum NodeRulesV2.NodeType",
          "name": "nodeType",
          "type": "uint8"
        },
        {
          "indexed": false,
          "internalType": "string",
          "name": "name",
          "type": "string"
        }
      ],
      "name": "NodeUpdated",
      "type": "event"
    },
    {
      "inputs": [],
      "name": "accountsContract",
      "outputs": [
        {
          "internalType": "contract AccountRulesV2",
          "name": "",
          "type": "address"
        }
      ],
      "stateMutability": "view",
      "type": "function"
    },
    {
      "inputs": [
        {
          "internalType": "bytes32",
          "name": "enodeHigh",
          "type": "bytes32"
        },
        {
          "internalType": "bytes32",
          "name": "enodeLow",
          "type": "bytes32"
        },
        {
          "internalType": "enum NodeRulesV2.NodeType",
          "name": "nodeType",
          "type": "uint8"
        },
        {
          "internalType": "string",
          "name": "name",
          "type": "string"
        }
      ],
      "name": "addLocalNode",
      "outputs": [],
      "stateMutability": "nonpayable",
      "type": "function"
    },
    {
      "inputs": [
        {
          "internalType": "bytes32",
          "name": "enodeHigh",
          "type": "bytes32"
        },
        {
          "internalType": "bytes32",
          "name": "enodeLow",
          "type": "bytes32"
        },
        {
          "internalType": "enum NodeRulesV2.NodeType",
          "name": "nodeType",
          "type": "uint8"
        },
        {
          "internalType": "string",
          "name": "name",
          "type": "string"
        },
        {
          "internalType": "uint256",
          "name": "orgId",
          "type": "uint256"
        }
      ],
      "name": "addNode",
      "outputs": [],
      "stateMutability": "nonpayable",
      "type": "function"
    },
    {
      "inputs": [],
      "name": "admins",
      "outputs": [
        {
          "internalType": "contract AdminProxy",
          "name": "",
          "type": "address"
        }
      ],
      "stateMutability": "view",
      "type": "function"
    },
    {
      "inputs": [
        {
          "internalType": "uint256",
          "name": "",
          "type": "uint256"
        }
      ],
      "name": "allowedNodes",
      "outputs": [
        {
          "internalType": "bytes32",
          "name": "enodeHigh",
          "type": "bytes32"
        },
        {
          "internalType": "bytes32",
          "name": "enodeLow",
          "type": "bytes32"
        },
        {
          "internalType": "enum NodeRulesV2.NodeType",
          "name": "nodeType",
          "type": "uint8"
        },
        {
          "internalType": "string",
          "name": "name",
          "type": "string"
        },
        {
          "internalType": "uint256",
          "name": "orgId",
          "type": "uint256"
        },
        {
          "internalType": "bool",
          "name": "active",
          "type": "bool"
        }
      ],
      "stateMutability": "view",
      "type": "function"
    },
    {
      "inputs": [
        {
          "internalType": "bytes32",
          "name": "sourceEnodeHigh",
          "type": "bytes32"
        },
        {
          "internalType": "bytes32",
          "name": "sourceEnodeLow",
          "type": "bytes32"
        },
        {
          "internalType": "bytes16",
          "name": "",
          "type": "bytes16"
        },
        {
          "internalType": "uint16",
          "name": "",
          "type": "uint16"
        },
        {
          "internalType": "bytes32",
          "name": "destinationEnodeHigh",
          "type": "bytes32"
        },
        {
          "internalType": "bytes32",
          "name": "destinationEnodeLow",
          "type": "bytes32"
        },
        {
          "internalType": "bytes16",
          "name": "",
          "type": "bytes16"
        },
        {
          "internalType": "uint16",
          "name": "",
          "type": "uint16"
        }
      ],
      "name": "connectionAllowed",
      "outputs": [
        {
          "internalType": "bytes32",
          "name": "",
          "type": "bytes32"
        }
      ],
      "stateMutability": "view",
      "type": "function"
    },
    {
      "inputs": [
        {
          "internalType": "bytes32",
          "name": "enodeHigh",
          "type": "bytes32"
        },
        {
          "internalType": "bytes32",
          "name": "enodeLow",
          "type": "bytes32"
        }
      ],
      "name": "deleteLocalNode",
      "outputs": [],
      "stateMutability": "nonpayable",
      "type": "function"
    },
    {
      "inputs": [
        {
          "internalType": "bytes32",
          "name": "enodeHigh",
          "type": "bytes32"
        },
        {
          "internalType": "bytes32",
          "name": "enodeLow",
          "type": "bytes32"
        }
      ],
      "name": "deleteNode",
      "outputs": [],
      "stateMutability": "nonpayable",
      "type": "function"
    },
    {
      "inputs": [
        {
          "internalType": "bytes32",
          "name": "enodeHigh",
          "type": "bytes32"
        },
        {
          "internalType": "bytes32",
          "name": "enodeLow",
          "type": "bytes32"
        }
      ],
      "name": "getNode",
      "outputs": [
        {
          "components": [
            {
              "internalType": "bytes32",
              "name": "enodeHigh",
              "type": "bytes32"
            },
            {
              "internalType": "bytes32",
              "name": "enodeLow",
              "type": "bytes32"
            },
            {
              "internalType": "enum NodeRulesV2.NodeType",
              "name": "nodeType",
              "type": "uint8"
            },
            {
              "internalType": "string",
              "name": "name",
              "type": "string"
            },
            {
              "internalType": "uint256",
              "name": "orgId",
              "type": "uint256"
            },
            {
              "internalType": "bool",
              "name": "active",
              "type": "bool"
            }
          ],
          "internalType": "struct NodeRulesV2.NodeData",
          "name": "",
          "type": "tuple"
        }
      ],
      "stateMutability": "view",
      "type": "function"
    },
    {
      "inputs": [
        {
          "internalType": "uint256",
          "name": "pageNumber",
          "type": "uint256"
        },
        {
          "internalType": "uint256",
          "name": "pageSize",
          "type": "uint256"
        }
      ],
      "name": "getNodes",
      "outputs": [
        {
          "components": [
            {
              "internalType": "bytes32",
              "name": "enodeHigh",
              "type": "bytes32"
            },
            {
              "internalType": "bytes32",
              "name": "enodeLow",
              "type": "bytes32"
            },
            {
              "internalType": "enum NodeRulesV2.NodeType",
              "name": "nodeType",
              "type": "uint8"
            },
            {
              "internalType": "string",
              "name": "name",
              "type": "string"
            },
            {
              "internalType": "uint256",
              "name": "orgId",
              "type": "uint256"
            },
            {
              "internalType": "bool",
              "name": "active",
              "type": "bool"
            }
          ],
          "internalType": "struct NodeRulesV2.NodeData[]",
          "name": "",
          "type": "tuple[]"
        }
      ],
      "stateMutability": "view",
      "type": "function"
    },
    {
      "inputs": [
        {
          "internalType": "uint256",
          "name": "orgId",
          "type": "uint256"
        },
        {
          "internalType": "uint256",
          "name": "pageNumber",
          "type": "uint256"
        },
        {
          "internalType": "uint256",
          "name": "pageSize",
          "type": "uint256"
        }
      ],
      "name": "getNodesByOrg",
      "outputs": [
        {
          "components": [
            {
              "internalType": "bytes32",
              "name": "enodeHigh",
              "type": "bytes32"
            },
            {
              "internalType": "bytes32",
              "name": "enodeLow",
              "type": "bytes32"
            },
            {
              "internalType": "enum NodeRulesV2.NodeType",
              "name": "nodeType",
              "type": "uint8"
            },
            {
              "internalType": "string",
              "name": "name",
              "type": "string"
            },
            {
              "internalType": "uint256",
              "name": "orgId",
              "type": "uint256"
            },
            {
              "internalType": "bool",
              "name": "active",
              "type": "bool"
            }
          ],
          "internalType": "struct NodeRulesV2.NodeData[]",
          "name": "",
          "type": "tuple[]"
        }
      ],
      "stateMutability": "view",
      "type": "function"
    },
    {
      "inputs": [],
      "name": "getNumberOfNodes",
      "outputs": [
        {
          "internalType": "uint256",
          "name": "",
          "type": "uint256"
        }
      ],
      "stateMutability": "view",
      "type": "function"
    },
    {
      "inputs": [
        {
          "internalType": "uint256",
          "name": "orgId",
          "type": "uint256"
        }
      ],
      "name": "getNumberOfNodesByOrg",
      "outputs": [
        {
          "internalType": "uint256",
          "name": "",
          "type": "uint256"
        }
      ],
      "stateMutability": "view",
      "type": "function"
    },
    {
      "inputs": [
        {
          "internalType": "bytes32",
          "name": "enodeHigh",
          "type": "bytes32"
        },
        {
          "internalType": "bytes32",
          "name": "enodeLow",
          "type": "bytes32"
        }
      ],
      "name": "isNodeActive",
      "outputs": [
        {
          "internalType": "bool",
          "name": "",
          "type": "bool"
        }
      ],
      "stateMutability": "view",
      "type": "function"
    },
    {
      "inputs": [],
      "name": "organizationsContract",
      "outputs": [
        {
          "internalType": "contract Organization",
          "name": "",
          "type": "address"
        }
      ],
      "stateMutability": "view",
      "type": "function"
    },
    {
      "inputs": [
        {
          "internalType": "bytes32",
          "name": "enodeHigh",
          "type": "bytes32"
        },
        {
          "internalType": "bytes32",
          "name": "enodeLow",
          "type": "bytes32"
        },
        {
          "internalType": "enum NodeRulesV2.NodeType",
          "name": "nodeType",
          "type": "uint8"
        },
        {
          "internalType": "string",
          "name": "name",
          "type": "string"
        }
      ],
      "name": "updateLocalNode",
      "outputs": [],
      "stateMutability": "nonpayable",
      "type": "function"
    },
    {
      "inputs": [
        {
          "internalType": "bytes32",
          "name": "enodeHigh",
          "type": "bytes32"
        },
        {
          "internalType": "bytes32",
          "name": "enodeLow",
          "type": "bytes32"
        },
        {
          "internalType": "bool",
          "name": "active",
          "type": "bool"
        }
      ],
      "name": "updateLocalNodeStatus",
      "outputs": [],
      "stateMutability": "nonpayable",
      "type": "function"
    }
  ],
  "bytecode": "0x60e060405234801561001057600080fd5b50604051613d57380380613d5783398181016040528101906100329190610316565b80600073ffffffffffffffffffffffffffffffffffffffff168173ffffffffffffffffffffffffffffffffffffffff16036100a2576040517f08c379a0000000000000000000000000000000000000000000000000000000008152600401610099906103ec565b60405180910390fd5b8073ffffffffffffffffffffffffffffffffffffffff1660808173ffffffffffffffffffffffffffffffffffffffff168152505050600073ffffffffffffffffffffffffffffffffffffffff168373ffffffffffffffffffffffffffffffffffffffff1603610146576040517f7ffc6cec00000000000000000000000000000000000000000000000000000000815260040161013d9061047e565b60405180910390fd5b600073ffffffffffffffffffffffffffffffffffffffff168273ffffffffffffffffffffffffffffffffffffffff16036101b5576040517f7ffc6cec0000000000000000000000000000000000000000000000000000000081526004016101ac90610510565b60405180910390fd5b8273ffffffffffffffffffffffffffffffffffffffff1660c08173ffffffffffffffffffffffffffffffffffffffff16815250508173ffffffffffffffffffffffffffffffffffffffff1660a08173ffffffffffffffffffffffffffffffffffffffff1681525050505050610530565b600080fd5b600073ffffffffffffffffffffffffffffffffffffffff82169050919050565b60006102558261022a565b9050919050565b60006102678261024a565b9050919050565b6102778161025c565b811461028257600080fd5b50565b6000815190506102948161026e565b92915050565b60006102a58261024a565b9050919050565b6102b58161029a565b81146102c057600080fd5b50565b6000815190506102d2816102ac565b92915050565b60006102e38261024a565b9050919050565b6102f3816102d8565b81146102fe57600080fd5b50565b600081519050610310816102ea565b92915050565b60008060006060848603121561032f5761032e610225565b5b600061033d86828701610285565b935050602061034e868287016102c3565b925050604061035f86828701610301565b9150509250925092565b600082825260208201905092915050565b7f496e76616c6964206164647265737320666f722041646d696e206d616e61676560008201527f6d656e7420736d61727420636f6e747261637400000000000000000000000000602082015250565b60006103d6603383610369565b91506103e18261037a565b604082019050919050565b60006020820190508181036000830152610405816103c9565b9050919050565b7f496e76616c6964206164647265737320666f72204f7267616e697a6174696f6e60008201527f206d616e6167656d656e7420736d61727420636f6e7472616374000000000000602082015250565b6000610468603a83610369565b91506104738261040c565b604082019050919050565b600060208201905081810360008301526104978161045b565b9050919050565b7f496e76616c6964206164647265737320666f72204163636f756e74206d616e6160008201527f67656d656e7420736d61727420636f6e74726163740000000000000000000000602082015250565b60006104fa603583610369565b91506105058261049e565b604082019050919050565b60006020820190508181036000830152610529816104ed565b9050919050565b60805160a05160c05161377a6105dd600039600081816105a901528181610bb20152610df00152600081816105380152818161067e01528181610742015281816108420152818161091f01528181610e4901528181610f0d0152818161100d0152818161118e0152818161125201528181611352015281816114770152818161153b0152818161163b0152611da101526000818161039d015281816109d50152610ad7015261377a6000f3fe608060405234801561001057600080fd5b506004361061010b5760003560e01c8063a63ca076116100a2578063b81c806a11610071578063b81c806a146102e3578063d05f680914610301578063d90a63ff14610331578063e78004e41461034d578063ea8c0bc9146103695761010b565b8063a63ca07614610244578063a9aab5eb14610279578063af50afc714610295578063b818765f146102c55761010b565b806374d5249c116100de57806374d5249c146101aa57806376ccad21146101da57806397689f171461020a578063a5de3619146102265761010b565b8063038d67e81461011057806333aa9b2e146101405780633620b1df1461015c578063446f201e1461018c575b600080fd5b61012a600480360381019061012591906123e6565b610385565b60405161013791906126bb565b60405180910390f35b61015a60048036038101906101559190612709565b61039b565b005b610176600480360381019061017191906127db565b6104b5565b60405161018391906128a0565b60405180910390f35b610194610536565b6040516101a1919061293a565b60405180910390f35b6101c460048036038101906101bf9190612955565b61055a565b6040516101d191906126bb565b60405180910390f35b6101f460048036038101906101ef9190612709565b610582565b60405161020191906129b7565b60405180910390f35b610224600480360381019061021f9190612a5c565b61067c565b005b61022e6109d3565b60405161023b9190612b05565b60405180910390f35b61025e60048036038101906102599190612b20565b6109f7565b60405161027096959493929190612bb5565b60405180910390f35b610293600480360381019061028e9190612c1d565b610ad5565b005b6102af60048036038101906102aa9190612709565b610ca1565b6040516102bc9190612d40565b60405180910390f35b6102cd610dee565b6040516102da9190612d83565b60405180910390f35b6102eb610e12565b6040516102f89190612d9e565b60405180910390f35b61031b60048036038101906103169190612b20565b610e23565b6040516103289190612d9e565b60405180910390f35b61034b60048036038101906103469190612de5565b610e47565b005b61036760048036038101906103629190612709565b61118c565b005b610383600480360381019061037e9190612a5c565b611475565b005b60606103936001848461183f565b905092915050565b7f000000000000000000000000000000000000000000000000000000000000000073ffffffffffffffffffffffffffffffffffffffff1663fe9fbb80336040518263ffffffff1660e01b81526004016103f49190612e59565b602060405180830381865afa158015610411573d6000803e3d6000fd5b505050506040513d601f19601f820116820180604052508101906104359190612e89565b61047657336040517fdccef96400000000000000000000000000000000000000000000000000000000815260040161046d9190612e59565b60405180910390fd5b60006104828383611a28565b905061048f838383611a5e565b6104b083838360008086815260200190815260200160002060040154611aaf565b505050565b60006104c18989610582565b80156104d357506104d28585610582565b5b15610503577fffffffffffffffffffffffffffffffffffffffffffffffffffffffffffffffff60001b905061052a565b7f7fffffffffffffffffffffffffffffffffffffffffffffffffffffffffffffff60001b90505b98975050505050505050565b7f000000000000000000000000000000000000000000000000000000000000000081565b606061057960036000868152602001908152602001600020848461183f565b90509392505050565b60008061058f8484611a28565b9050600080600083815260200190815260200160002090507f000000000000000000000000000000000000000000000000000000000000000073ffffffffffffffffffffffffffffffffffffffff16632e9e006c82600401546040518263ffffffff1660e01b81526004016106049190612d9e565b602060405180830381865afa158015610621573d6000803e3d6000fd5b505050506040513d601f19601f820116820180604052508101906106459190612e89565b801561065f57508060050160009054906101000a900460ff165b1561066f57600192505050610676565b6000925050505b92915050565b7f000000000000000000000000000000000000000000000000000000000000000073ffffffffffffffffffffffffffffffffffffffff166391d148547fd6e7d8560c69c7c18c2b8f3b45430215d788f128f0c04bc4a3607fe05eb5399f336040518363ffffffff1660e01b81526004016106f7929190612eb6565b602060405180830381865afa158015610714573d6000803e3d6000fd5b505050506040513d601f19601f820116820180604052508101906107389190612e89565b1580156107fe57507f000000000000000000000000000000000000000000000000000000000000000073ffffffffffffffffffffffffffffffffffffffff166391d148547fb7f8beecafe1ad662cec1153812612581a86b9460f21b876f3ee163141203dcb336040518363ffffffff1660e01b81526004016107bb929190612eb6565b602060405180830381865afa1580156107d8573d6000803e3d6000fd5b505050506040513d601f19601f820116820180604052508101906107fc9190612e89565b155b1561084057336040517fdccef9640000000000000000000000000000000000000000000000000000000081526004016108379190612e59565b60405180910390fd5b7f000000000000000000000000000000000000000000000000000000000000000073ffffffffffffffffffffffffffffffffffffffff1663ab9d0cdd336040518263ffffffff1660e01b81526004016108999190612e59565b602060405180830381865afa1580156108b6573d6000803e3d6000fd5b505050506040513d601f19601f820116820180604052508101906108da9190612e89565b61091b57336040517ffcbe8fe50000000000000000000000000000000000000000000000000000000081526004016109129190612f51565b60405180910390fd5b60007f000000000000000000000000000000000000000000000000000000000000000073ffffffffffffffffffffffffffffffffffffffff1663fbcbc0f1336040518263ffffffff1660e01b81526004016109769190612e59565b60a060405180830381865afa158015610993573d6000803e3d6000fd5b505050506040513d601f19601f820116820180604052508101906109b791906130e1565b90506109cb86868686868660000151611b84565b505050505050565b7f000000000000000000000000000000000000000000000000000000000000000081565b60006020528060005260406000206000915090508060000154908060010154908060020160009054906101000a900460ff1690806003018054610a399061313d565b80601f0160208091040260200160405190810160405280929190818152602001828054610a659061313d565b8015610ab25780601f10610a8757610100808354040283529160200191610ab2565b820191906000526020600020905b815481529060010190602001808311610a9557829003601f168201915b5050505050908060040154908060050160009054906101000a900460ff16905086565b7f000000000000000000000000000000000000000000000000000000000000000073ffffffffffffffffffffffffffffffffffffffff1663fe9fbb80336040518263ffffffff1660e01b8152600401610b2e9190612e59565b602060405180830381865afa158015610b4b573d6000803e3d6000fd5b505050506040513d601f19601f82011682018060405250810190610b6f9190612e89565b610bb057336040517fdccef964000000000000000000000000000000000000000000000000000000008152600401610ba79190612e59565b60405180910390fd5b7f000000000000000000000000000000000000000000000000000000000000000073ffffffffffffffffffffffffffffffffffffffff16632e9e006c826040518263ffffffff1660e01b8152600401610c099190612d9e565b602060405180830381865afa158015610c26573d6000803e3d6000fd5b505050506040513d601f19601f82011682018060405250810190610c4a9190612e89565b610c8b57806040517fd7a4fe32000000000000000000000000000000000000000000000000000000008152600401610c829190612d9e565b60405180910390fd5b610c99868686868686611b84565b505050505050565b610ca96122ef565b6000610cb58484611a28565b9050610cc2848483611a5e565b6000808281526020019081526020016000206040518060c001604052908160008201548152602001600182015481526020016002820160009054906101000a900460ff166006811115610d1857610d1761246b565b5b6006811115610d2a57610d2961246b565b5b8152602001600382018054610d3e9061313d565b80601f0160208091040260200160405190810160405280929190818152602001828054610d6a9061313d565b8015610db75780601f10610d8c57610100808354040283529160200191610db7565b820191906000526020600020905b815481529060010190602001808311610d9a57829003601f168201915b50505050508152602001600482015481526020016005820160009054906101000a900460ff16151515158152505091505092915050565b7f000000000000000000000000000000000000000000000000000000000000000081565b6000610e1e6001611d88565b905090565b6000610e4060036000848152602001908152602001600020611d88565b9050919050565b7f000000000000000000000000000000000000000000000000000000000000000073ffffffffffffffffffffffffffffffffffffffff166391d148547fd6e7d8560c69c7c18c2b8f3b45430215d788f128f0c04bc4a3607fe05eb5399f336040518363ffffffff1660e01b8152600401610ec2929190612eb6565b602060405180830381865afa158015610edf573d6000803e3d6000fd5b505050506040513d601f19601f82011682018060405250810190610f039190612e89565b158015610fc957507f000000000000000000000000000000000000000000000000000000000000000073ffffffffffffffffffffffffffffffffffffffff166391d148547fb7f8beecafe1ad662cec1153812612581a86b9460f21b876f3ee163141203dcb336040518363ffffffff1660e01b8152600401610f86929190612eb6565b602060405180830381865afa158015610fa3573d6000803e3d6000fd5b505050506040513d601f19601f82011682018060405250810190610fc79190612e89565b155b1561100b57336040517fdccef9640000000000000000000000000000000000000000000000000000000081526004016110029190612e59565b60405180910390fd5b7f000000000000000000000000000000000000000000000000000000000000000073ffffffffffffffffffffffffffffffffffffffff1663ab9d0cdd336040518263ffffffff1660e01b81526004016110649190612e59565b602060405180830381865afa158015611081573d6000803e3d6000fd5b505050506040513d601f19601f820116820180604052508101906110a59190612e89565b6110e657336040517ffcbe8fe50000000000000000000000000000000000000000000000000000000081526004016110dd9190612f51565b60405180910390fd5b60006110f28484611a28565b90506110ff848483611a5e565b61110a848483611d9d565b8160008083815260200190815260200160002060050160006101000a81548160ff0219169083151502179055506000808281526020019081526020016000206004015483857f278dc692145fa25dd89c277ffbe33bd86ecdc67b624df62d93d7e970f82b56d98560405161117e91906129b7565b60405180910390a450505050565b7f000000000000000000000000000000000000000000000000000000000000000073ffffffffffffffffffffffffffffffffffffffff166391d148547fd6e7d8560c69c7c18c2b8f3b45430215d788f128f0c04bc4a3607fe05eb5399f336040518363ffffffff1660e01b8152600401611207929190612eb6565b602060405180830381865afa158015611224573d6000803e3d6000fd5b505050506040513d601f19601f820116820180604052508101906112489190612e89565b15801561130e57507f000000000000000000000000000000000000000000000000000000000000000073ffffffffffffffffffffffffffffffffffffffff166391d148547fb7f8beecafe1ad662cec1153812612581a86b9460f21b876f3ee163141203dcb336040518363ffffffff1660e01b81526004016112cb929190612eb6565b602060405180830381865afa1580156112e8573d6000803e3d6000fd5b505050506040513d601f19601f8201168201806040525081019061130c9190612e89565b155b1561135057336040517fdccef9640000000000000000000000000000000000000000000000000000000081526004016113479190612e59565b60405180910390fd5b7f000000000000000000000000000000000000000000000000000000000000000073ffffffffffffffffffffffffffffffffffffffff1663ab9d0cdd336040518263ffffffff1660e01b81526004016113a99190612e59565b602060405180830381865afa1580156113c6573d6000803e3d6000fd5b505050506040513d601f19601f820116820180604052508101906113ea9190612e89565b61142b57336040517ffcbe8fe50000000000000000000000000000000000000000000000000000000081526004016114229190612f51565b60405180910390fd5b60006114378383611a28565b9050611444838383611a5e565b61144f838383611d9d565b61147083838360008086815260200190815260200160002060040154611aaf565b505050565b7f000000000000000000000000000000000000000000000000000000000000000073ffffffffffffffffffffffffffffffffffffffff166391d148547fd6e7d8560c69c7c18c2b8f3b45430215d788f128f0c04bc4a3607fe05eb5399f336040518363ffffffff1660e01b81526004016114f0929190612eb6565b602060405180830381865afa15801561150d573d6000803e3d6000fd5b505050506040513d601f19601f820116820180604052508101906115319190612e89565b1580156115f757507f000000000000000000000000000000000000000000000000000000000000000073ffffffffffffffffffffffffffffffffffffffff166391d148547fb7f8beecafe1ad662cec1153812612581a86b9460f21b876f3ee163141203dcb336040518363ffffffff1660e01b81526004016115b4929190612eb6565b602060405180830381865afa1580156115d1573d6000803e3d6000fd5b505050506040513d601f19601f820116820180604052508101906115f59190612e89565b155b1561163957336040517fdccef9640000000000000000000000000000000000000000000000000000000081526004016116309190612e59565b60405180910390fd5b7f000000000000000000000000000000000000000000000000000000000000000073ffffffffffffffffffffffffffffffffffffffff1663ab9d0cdd336040518263ffffffff1660e01b81526004016116929190612e59565b602060405180830381865afa1580156116af573d6000803e3d6000fd5b505050506040513d601f19601f820116820180604052508101906116d39190612e89565b61171457336040517ffcbe8fe500000000000000000000000000000000000000000000000000000000815260040161170b9190612f51565b60405180910390fd5b81816000828290500361175c576040517f7ffc6cec000000000000000000000000000000000000000000000000000000008152600401611753906131ba565b60405180910390fd5b60006117688888611a28565b9050611775888883611a5e565b611780888883611d9d565b8560008083815260200190815260200160002060020160006101000a81548160ff021916908360068111156117b8576117b761246b565b5b0217905550848460008084815260200190815260200160002060030191826117e1929190613387565b506000808281526020019081526020016000206004015487897f8e51789f93312a58d6f0679b892e3022613125aa0163a6c113e0a3cc7230164c89898960405161182d93929190613493565b60405180910390a45050505050505050565b6060600061184e858585611ea0565b90506000815167ffffffffffffffff81111561186d5761186c612f84565b5b6040519080825280602002602001820160405280156118a657816020015b6118936122ef565b81526020019060019003908161188b5790505b50905060005b8151811015611a1b576000808483815181106118cb576118ca6134c5565b5b602002602001015181526020019081526020016000206040518060c001604052908160008201548152602001600182015481526020016002820160009054906101000a900460ff1660068111156119255761192461246b565b5b60068111156119375761193661246b565b5b815260200160038201805461194b9061313d565b80601f01602080910402602001604051908101604052809291908181526020018280546119779061313d565b80156119c45780601f10611999576101008083540402835291602001916119c4565b820191906000526020600020905b8154815290600101906020018083116119a757829003601f168201915b50505050508152602001600482015481526020016005820160009054906101000a900460ff161515151581525050828281518110611a0557611a046134c5565b5b60200260200101819052508060010190506118ac565b5080925050509392505050565b60008282604051602001611a3d929190613515565b6040516020818303038152906040528051906020012060001c905092915050565b611a678161204a565b611aaa5782826040517f1d288f3e000000000000000000000000000000000000000000000000000000008152600401611aa1929190613541565b60405180910390fd5b505050565b60008083815260200190815260200160002060008082016000905560018201600090556002820160006101000a81549060ff0219169055600382016000611af6919061233f565b60048201600090556005820160006101000a81549060ff02191690555050611b2882600161206c90919063ffffffff16565b50611b4e826003600084815260200190815260200160002061206c90919063ffffffff16565b508083857f8f9a3c42d67447708d0a9572404087635f269dd7555082bcfd8a639af753d95f60405160405180910390a450505050565b828260008282905003611bcc576040517f7ffc6cec000000000000000000000000000000000000000000000000000000008152600401611bc3906131ba565b60405180910390fd5b6000611bd88989611a28565b9050611be5898983612086565b6040518060c001604052808a8152602001898152602001886006811115611c0f57611c0e61246b565b5b815260200187878080601f016020809104026020016040519081016040528093929190818152602001838380828437600081840152601f19601f82011690508083019250505050505050815260200185815260200160011515815250600080838152602001908152602001600020600082015181600001556020820151816001015560408201518160020160006101000a81548160ff02191690836006811115611cbc57611cbb61246b565b5b02179055506060820151816003019081611cd6919061356a565b506080820151816004015560a08201518160050160006101000a81548160ff021916908315150217905550905050611d188160016120d890919063ffffffff16565b50611d3e81600360008781526020019081526020016000206120d890919063ffffffff16565b5083888a7f6608feae81d682631e92102d93ef0593d86d72dd91759fc0a825fc734dea83568a8a8a604051611d7593929190613493565b60405180910390a4505050505050505050565b6000611d96826000016120f2565b9050919050565b60007f000000000000000000000000000000000000000000000000000000000000000073ffffffffffffffffffffffffffffffffffffffff1663fbcbc0f1336040518263ffffffff1660e01b8152600401611df89190612e59565b60a060405180830381865afa158015611e15573d6000803e3d6000fd5b505050506040513d601f19601f82011682018060405250810190611e3991906130e1565b905060008083815260200190815260200160002060040154816000015114611e9a5783836040517fbb148018000000000000000000000000000000000000000000000000000000008152600401611e91929190613541565b60405180910390fd5b50505050565b60606000831480611eb15750600082145b15611ee8576040517f4874a7de00000000000000000000000000000000000000000000000000000000815260040160405180910390fd5b600082600185611ef8919061366b565b611f02919061369f565b90506000611f0f86611d88565b9050808210611f6b57600067ffffffffffffffff811115611f3357611f32612f84565b5b604051908082528060200260200182016040528015611f615781602001602082028036833780820191505090505b5092505050612043565b60008483611f7991906136e1565b905081811115611f87578190505b60008382611f95919061366b565b905060008167ffffffffffffffff811115611fb357611fb2612f84565b5b604051908082528060200260200182016040528015611fe15781602001602082028036833780820191505090505b50905060005b828110156120395761200d8187611ffe91906136e1565b8b61210390919063ffffffff16565b8282815181106120205761201f6134c5565b5b6020026020010181815250508080600101915050611fe7565b5080955050505050505b9392505050565b6000806000808481526020019081526020016000206004015414159050919050565b600061207e836000018360001b61211d565b905092915050565b61208f8161204a565b156120d35782826040517f36f819840000000000000000000000000000000000000000000000000000000081526004016120ca929190613541565b60405180910390fd5b505050565b60006120ea836000018360001b612231565b905092915050565b600081600001805490509050919050565b600061211283600001836122a1565b60001c905092915050565b6000808360010160008481526020019081526020016000205490506000811461222557600060018261214f919061366b565b9050600060018660000180549050612167919061366b565b90508082146121d6576000866000018281548110612188576121876134c5565b5b90600052602060002001549050808760000184815481106121ac576121ab6134c5565b5b90600052602060002001819055508387600101600083815260200190815260200160002081905550505b856000018054806121ea576121e9613715565b5b60019003818190600052602060002001600090559055856001016000868152602001908152602001600020600090556001935050505061222b565b60009150505b92915050565b600061223d83836122cc565b61229657826000018290806001815401808255809150506001900390600052602060002001600090919091909150558260000180549050836001016000848152602001908152602001600020819055506001905061229b565b600090505b92915050565b60008260000182815481106122b9576122b86134c5565b5b9060005260206000200154905092915050565b600080836001016000848152602001908152602001600020541415905092915050565b6040518060c001604052806000801916815260200160008019168152602001600060068111156123225761232161246b565b5b815260200160608152602001600081526020016000151581525090565b50805461234b9061313d565b6000825580601f1061235d575061237c565b601f01602090049060005260206000209081019061237b919061237f565b5b50565b5b80821115612398576000816000905550600101612380565b5090565b6000604051905090565b600080fd5b600080fd5b6000819050919050565b6123c3816123b0565b81146123ce57600080fd5b50565b6000813590506123e0816123ba565b92915050565b600080604083850312156123fd576123fc6123a6565b5b600061240b858286016123d1565b925050602061241c858286016123d1565b9150509250929050565b600081519050919050565b600082825260208201905092915050565b6000819050602082019050919050565b6000819050919050565b61246581612452565b82525050565b7f4e487b7100000000000000000000000000000000000000000000000000000000600052602160045260246000fd5b600781106124ab576124aa61246b565b5b50565b60008190506124bc8261249a565b919050565b60006124cc826124ae565b9050919050565b6124dc816124c1565b82525050565b600081519050919050565b600082825260208201905092915050565b60005b8381101561251c578082015181840152602081019050612501565b60008484015250505050565b6000601f19601f8301169050919050565b6000612544826124e2565b61254e81856124ed565b935061255e8185602086016124fe565b61256781612528565b840191505092915050565b61257b816123b0565b82525050565b60008115159050919050565b61259681612581565b82525050565b600060c0830160008301516125b4600086018261245c565b5060208301516125c7602086018261245c565b5060408301516125da60408601826124d3565b50606083015184820360608601526125f28282612539565b91505060808301516126076080860182612572565b5060a083015161261a60a086018261258d565b508091505092915050565b6000612631838361259c565b905092915050565b6000602082019050919050565b600061265182612426565b61265b8185612431565b93508360208202850161266d85612442565b8060005b858110156126a9578484038952815161268a8582612625565b945061269583612639565b925060208a01995050600181019050612671565b50829750879550505050505092915050565b600060208201905081810360008301526126d58184612646565b905092915050565b6126e681612452565b81146126f157600080fd5b50565b600081359050612703816126dd565b92915050565b600080604083850312156127205761271f6123a6565b5b600061272e858286016126f4565b925050602061273f858286016126f4565b9150509250929050565b60007fffffffffffffffffffffffffffffffff0000000000000000000000000000000082169050919050565b61277e81612749565b811461278957600080fd5b50565b60008135905061279b81612775565b92915050565b600061ffff82169050919050565b6127b8816127a1565b81146127c357600080fd5b50565b6000813590506127d5816127af565b92915050565b600080600080600080600080610100898b0312156127fc576127fb6123a6565b5b600061280a8b828c016126f4565b985050602061281b8b828c016126f4565b975050604061282c8b828c0161278c565b965050606061283d8b828c016127c6565b955050608061284e8b828c016126f4565b94505060a061285f8b828c016126f4565b93505060c06128708b828c0161278c565b92505060e06128818b828c016127c6565b9150509295985092959890939650565b61289a81612452565b82525050565b60006020820190506128b56000830184612891565b92915050565b600073ffffffffffffffffffffffffffffffffffffffff82169050919050565b6000819050919050565b60006129006128fb6128f6846128bb565b6128db565b6128bb565b9050919050565b6000612912826128e5565b9050919050565b600061292482612907565b9050919050565b61293481612919565b82525050565b600060208201905061294f600083018461292b565b92915050565b60008060006060848603121561296e5761296d6123a6565b5b600061297c868287016123d1565b935050602061298d868287016123d1565b925050604061299e868287016123d1565b9150509250925092565b6129b181612581565b82525050565b60006020820190506129cc60008301846129a8565b92915050565b600781106129df57600080fd5b50565b6000813590506129f1816129d2565b92915050565b600080fd5b600080fd5b600080fd5b60008083601f840112612a1c57612a1b6129f7565b5b8235905067ffffffffffffffff811115612a3957612a386129fc565b5b602083019150836001820283011115612a5557612a54612a01565b5b9250929050565b600080600080600060808688031215612a7857612a776123a6565b5b6000612a86888289016126f4565b9550506020612a97888289016126f4565b9450506040612aa8888289016129e2565b935050606086013567ffffffffffffffff811115612ac957612ac86123ab565b5b612ad588828901612a06565b92509250509295509295909350565b6000612aef82612907565b9050919050565b612aff81612ae4565b82525050565b6000602082019050612b1a6000830184612af6565b92915050565b600060208284031215612b3657612b356123a6565b5b6000612b44848285016123d1565b91505092915050565b612b56816124c1565b82525050565b600082825260208201905092915050565b6000612b78826124e2565b612b828185612b5c565b9350612b928185602086016124fe565b612b9b81612528565b840191505092915050565b612baf816123b0565b82525050565b600060c082019050612bca6000830189612891565b612bd76020830188612891565b612be46040830187612b4d565b8181036060830152612bf68186612b6d565b9050612c056080830185612ba6565b612c1260a08301846129a8565b979650505050505050565b60008060008060008060a08789031215612c3a57612c396123a6565b5b6000612c4889828a016126f4565b9650506020612c5989828a016126f4565b9550506040612c6a89828a016129e2565b945050606087013567ffffffffffffffff811115612c8b57612c8a6123ab565b5b612c9789828a01612a06565b93509350506080612caa89828a016123d1565b9150509295509295509295565b600060c083016000830151612ccf600086018261245c565b506020830151612ce2602086018261245c565b506040830151612cf560408601826124d3565b5060608301518482036060860152612d0d8282612539565b9150506080830151612d226080860182612572565b5060a0830151612d3560a086018261258d565b508091505092915050565b60006020820190508181036000830152612d5a8184612cb7565b905092915050565b6000612d6d82612907565b9050919050565b612d7d81612d62565b82525050565b6000602082019050612d986000830184612d74565b92915050565b6000602082019050612db36000830184612ba6565b92915050565b612dc281612581565b8114612dcd57600080fd5b50565b600081359050612ddf81612db9565b92915050565b600080600060608486031215612dfe57612dfd6123a6565b5b6000612e0c868287016126f4565b9350506020612e1d868287016126f4565b9250506040612e2e86828701612dd0565b9150509250925092565b6000612e43826128bb565b9050919050565b612e5381612e38565b82525050565b6000602082019050612e6e6000830184612e4a565b92915050565b600081519050612e8381612db9565b92915050565b600060208284031215612e9f57612e9e6123a6565b5b6000612ead84828501612e74565b91505092915050565b6000604082019050612ecb6000830185612891565b612ed86020830184612e4a565b9392505050565b7f546865206163636f756e74206f72207468652072657370656374697665206f7260008201527f67616e697a6174696f6e206973206e6f74206163746976650000000000000000602082015250565b6000612f3b603883612b5c565b9150612f4682612edf565b604082019050919050565b6000604082019050612f666000830184612e4a565b8181036020830152612f7781612f2e565b905092915050565b600080fd5b7f4e487b7100000000000000000000000000000000000000000000000000000000600052604160045260246000fd5b612fbc82612528565b810181811067ffffffffffffffff82111715612fdb57612fda612f84565b5b80604052505050565b6000612fee61239c565b9050612ffa8282612fb3565b919050565b60008151905061300e816123ba565b92915050565b61301d81612e38565b811461302857600080fd5b50565b60008151905061303a81613014565b92915050565b60008151905061304f816126dd565b92915050565b600060a0828403121561306b5761306a612f7f565b5b61307560a0612fe4565b9050600061308584828501612fff565b60008301525060206130998482850161302b565b60208301525060406130ad84828501613040565b60408301525060606130c184828501613040565b60608301525060806130d584828501612e74565b60808301525092915050565b600060a082840312156130f7576130f66123a6565b5b600061310584828501613055565b91505092915050565b7f4e487b7100000000000000000000000000000000000000000000000000000000600052602260045260246000fd5b6000600282049050600182168061315557607f821691505b6020821081036131685761316761310e565b5b50919050565b7f4e6f6465206e616d652063616e6e6f7420626520656d7074792e000000000000600082015250565b60006131a4601a83612b5c565b91506131af8261316e565b602082019050919050565b600060208201905081810360008301526131d381613197565b9050919050565b600082905092915050565b60008190508160005260206000209050919050565b60006020601f8301049050919050565b600082821b905092915050565b6000600883026132477fffffffffffffffffffffffffffffffffffffffffffffffffffffffffffffffff8261320a565b613251868361320a565b95508019841693508086168417925050509392505050565b600061328461327f61327a846123b0565b6128db565b6123b0565b9050919050565b6000819050919050565b61329e83613269565b6132b26132aa8261328b565b848454613217565b825550505050565b600090565b6132c76132ba565b6132d2818484613295565b505050565b5b818110156132f6576132eb6000826132bf565b6001810190506132d8565b5050565b601f82111561333b5761330c816131e5565b613315846131fa565b81016020851015613324578190505b613338613330856131fa565b8301826132d7565b50505b505050565b600082821c905092915050565b600061335e60001984600802613340565b1980831691505092915050565b6000613377838361334d565b9150826002028217905092915050565b61339183836131da565b67ffffffffffffffff8111156133aa576133a9612f84565b5b6133b4825461313d565b6133bf8282856132fa565b6000601f8311600181146133ee57600084156133dc578287013590505b6133e6858261336b565b86555061344e565b601f1984166133fc866131e5565b60005b82811015613424578489013582556001820191506020850194506020810190506133ff565b86831015613441578489013561343d601f89168261334d565b8355505b6001600288020188555050505b50505050505050565b82818337600083830152505050565b60006134728385612b5c565b935061347f838584613457565b61348883612528565b840190509392505050565b60006040820190506134a86000830186612b4d565b81810360208301526134bb818486613466565b9050949350505050565b7f4e487b7100000000000000000000000000000000000000000000000000000000600052603260045260246000fd5b6000819050919050565b61350f61350a82612452565b6134f4565b82525050565b600061352182856134fe565b60208201915061353182846134fe565b6020820191508190509392505050565b60006040820190506135566000830185612891565b6135636020830184612891565b9392505050565b613573826124e2565b67ffffffffffffffff81111561358c5761358b612f84565b5b613596825461313d565b6135a18282856132fa565b600060209050601f8311600181146135d457600084156135c2578287015190505b6135cc858261336b565b865550613634565b601f1984166135e2866131e5565b60005b8281101561360a578489015182556001820191506020850194506020810190506135e5565b868310156136275784890151613623601f89168261334d565b8355505b6001600288020188555050505b505050505050565b7f4e487b7100000000000000000000000000000000000000000000000000000000600052601160045260246000fd5b6000613676826123b0565b9150613681836123b0565b92508282039050818111156136995761369861363c565b5b92915050565b60006136aa826123b0565b91506136b5836123b0565b92508282026136c3816123b0565b915082820484148315176136da576136d961363c565b5b5092915050565b60006136ec826123b0565b91506136f7836123b0565b925082820190508082111561370f5761370e61363c565b5b92915050565b7f4e487b7100000000000000000000000000000000000000000000000000000000600052603160045260246000fdfea2646970667358221220b587f7be7d9c808e1ce92098e634ade0d19d4935e8fb4a7ba418268d440bf0e264736f6c634300081c0033",
  "linkReferences": {},
  "deployedLinkReferences": {}
}