{
  "_format": "hh-sol-artifact-1",
  "contractName": "OrganizationImpl",
  "sourceName": "contracts/OrganizationImpl.sol",
  "abi": [
    {
      "inputs": [
        {
          "components": [
            {
              "internalType": "uint256",
              "name": "id",
              "type": "uint256"
            },
            {
              "internalType": "string",
              "name": "name",
              "type": "string"
            },
            {
              "internalType": "bool",
              "name": "canVote",
              "type": "bool"
            }
          ],
          "internalType": "struct Organization.OrganizationData[]",
          "name": "orgs",
          "type": "tuple[]"
        },
        {
          "internalType": "contract AdminProxy",
          "name": "adminsProxy",
          "type": "address"
        }
      ],
      "stateMutability": "nonpayable",
      "type": "constructor"
    },
    {
      "inputs": [
        {
          "internalType": "string",
          "name": "message",
          "type": "string"
        }
      ],
      "name": "IllegalState",
      "type": "error"
    },
    {
      "inputs": [
        {
          "internalType": "uint256",
          "name": "orgId",
          "type": "uint256"
        }
      ],
      "name": "OrganizationNotFound",
      "type": "error"
    },
    {
      "inputs": [
        {
          "internalType": "address",
          "name": "account",
          "type": "address"
        }
      ],
      "name": "UnauthorizedAccess",
      "type": "error"
    },
    {
      "anonymous": false,
      "inputs": [
        {
          "indexed": true,
          "internalType": "uint256",
          "name": "orgId",
          "type": "uint256"
        }
      ],
      "name": "OrganizationAdded",
      "type": "event"
    },
    {
      "anonymous": false,
      "inputs": [
        {
          "indexed": true,
          "internalType": "uint256",
          "name": "orgId",
          "type": "uint256"
        }
      ],
      "name": "OrganizationDeleted",
      "type": "event"
    },
    {
      "anonymous": false,
      "inputs": [
        {
          "indexed": true,
          "internalType": "uint256",
          "name": "orgId",
          "type": "uint256"
        }
      ],
      "name": "OrganizationUpdated",
      "type": "event"
    },
    {
      "inputs": [
        {
          "internalType": "string",
          "name": "name",
          "type": "string"
        },
        {
          "internalType": "bool",
          "name": "canVote",
          "type": "bool"
        }
      ],
      "name": "addOrganization",
      "outputs": [
        {
          "internalType": "uint256",
          "name": "",
          "type": "uint256"
        }
      ],
      "stateMutability": "nonpayable",
      "type": "function"
    },
    {
      "inputs": [],
      "name": "admins",
      "outputs": [
        {
          "internalType": "contract AdminProxy",
          "name": "",
          "type": "address"
        }
      ],
      "stateMutability": "view",
      "type": "function"
    },
    {
      "inputs": [
        {
          "internalType": "uint256",
          "name": "orgId",
          "type": "uint256"
        }
      ],
      "name": "deleteOrganization",
      "outputs": [],
      "stateMutability": "nonpayable",
      "type": "function"
    },
    {
      "inputs": [
        {
          "internalType": "uint256",
          "name": "orgId",
          "type": "uint256"
        }
      ],
      "name": "getOrganization",
      "outputs": [
        {
          "components": [
            {
              "internalType": "uint256",
              "name": "id",
              "type": "uint256"
            },
            {
              "internalType": "string",
              "name": "name",
              "type": "string"
            },
            {
              "internalType": "bool",
              "name": "canVote",
              "type": "bool"
            }
          ],
          "internalType": "struct Organization.OrganizationData",
          "name": "",
          "type": "tuple"
        }
      ],
      "stateMutability": "view",
      "type": "function"
    },
    {
      "inputs": [],
      "name": "getOrganizations",
      "outputs": [
        {
          "components": [
            {
              "internalType": "uint256",
              "name": "id",
              "type": "uint256"
            },
            {
              "internalType": "string",
              "name": "name",
              "type": "string"
            },
            {
              "internalType": "bool",
              "name": "canVote",
              "type": "bool"
            }
          ],
          "internalType": "struct Organization.OrganizationData[]",
          "name": "",
          "type": "tuple[]"
        }
      ],
      "stateMutability": "view",
      "type": "function"
    },
    {
      "inputs": [],
      "name": "idSeed",
      "outputs": [
        {
          "internalType": "uint256",
          "name": "",
          "type": "uint256"
        }
      ],
      "stateMutability": "view",
      "type": "function"
    },
    {
      "inputs": [
        {
          "internalType": "uint256",
          "name": "orgId",
          "type": "uint256"
        }
      ],
      "name": "isOrganizationActive",
      "outputs": [
        {
          "internalType": "bool",
          "name": "",
          "type": "bool"
        }
      ],
      "stateMutability": "view",
      "type": "function"
    },
    {
      "inputs": [],
      "name": "organizationIds",
      "outputs": [
        {
          "internalType": "uint256[]",
          "name": "",
          "type": "uint256[]"
        }
      ],
      "stateMutability": "view",
      "type": "function"
    },
    {
      "inputs": [
        {
          "internalType": "uint256",
          "name": "",
          "type": "uint256"
        }
      ],
      "name": "organizations",
      "outputs": [
        {
          "internalType": "uint256",
          "name": "id",
          "type": "uint256"
        },
        {
          "internalType": "string",
          "name": "name",
          "type": "string"
        },
        {
          "internalType": "bool",
          "name": "canVote",
          "type": "bool"
        }
      ],
      "stateMutability": "view",
      "type": "function"
    },
    {
      "inputs": [
        {
          "internalType": "uint256",
          "name": "orgId",
          "type": "uint256"
        },
        {
          "internalType": "string",
          "name": "name",
          "type": "string"
        },
        {
          "internalType": "bool",
          "name": "canVote",
          "type": "bool"
        }
      ],
      "name": "updateOrganization",
      "outputs": [],
      "stateMutability": "nonpayable",
      "type": "function"
    }
  ],
  "bytecode": "0x60a06040526000805534801561001457600080fd5b506040516127f23803806127f2833981810160405281019061003691906106e6565b80600073ffffffffffffffffffffffffffffffffffffffff168173ffffffffffffffffffffffffffffffffffffffff16036100a6576040517f08c379a000000000000000000000000000000000000000000000000000000000815260040161009d906107c5565b60405180910390fd5b8073ffffffffffffffffffffffffffffffffffffffff1660808173ffffffffffffffffffffffffffffffffffffffff168152505050600282511015610120576040517f08c379a000000000000000000000000000000000000000000000000000000000815260040161011790610857565b60405180910390fd5b60005b82518110156101845761017883828151811061014257610141610877565b5b60200260200101516020015184838151811061016157610160610877565b5b60200260200101516040015161018c60201b60201c565b50806001019050610123565b505050610c06565b600080600080815461019d906108d5565b919050819055905060006040518060600160405280838152602001868152602001851515815250905080600160008481526020019081526020016000206000820151816000015560208201518160010190816101f99190610b34565b5060408201518160020160006101000a81548160ff02191690831515021790555090505061023182600261026a60201b90919060201c565b50817f1c508b973454c46b1f870f73c657746ab38950030ec436dab31acbbca450537c60405160405180910390a2819250505092915050565b6000610282836000018360001b61028a60201b60201c565b905092915050565b600061029c838361030060201b60201c565b6102f55782600001829080600181540180825580915050600190039060005260206000200160009091909190915055826000018054905083600101600084815260200190815260200160002081905550600190506102fa565b600090505b92915050565b600080836001016000848152602001908152602001600020541415905092915050565b6000604051905090565b600080fd5b600080fd5b600080fd5b6000601f19601f8301169050919050565b7f4e487b7100000000000000000000000000000000000000000000000000000000600052604160045260246000fd5b6103858261033c565b810181811067ffffffffffffffff821117156103a4576103a361034d565b5b80604052505050565b60006103b7610323565b90506103c3828261037c565b919050565b600067ffffffffffffffff8211156103e3576103e261034d565b5b602082029050602081019050919050565b600080fd5b600080fd5b600080fd5b6000819050919050565b61041681610403565b811461042157600080fd5b50565b6000815190506104338161040d565b92915050565b600080fd5b600067ffffffffffffffff8211156104595761045861034d565b5b6104628261033c565b9050602081019050919050565b60005b8381101561048d578082015181840152602081019050610472565b60008484015250505050565b60006104ac6104a78461043e565b6103ad565b9050828152602081018484840111156104c8576104c7610439565b5b6104d384828561046f565b509392505050565b600082601f8301126104f0576104ef610337565b5b8151610500848260208601610499565b91505092915050565b60008115159050919050565b61051e81610509565b811461052957600080fd5b50565b60008151905061053b81610515565b92915050565b600060608284031215610557576105566103f9565b5b61056160606103ad565b9050600061057184828501610424565b600083015250602082015167ffffffffffffffff811115610595576105946103fe565b5b6105a1848285016104db565b60208301525060406105b58482850161052c565b60408301525092915050565b60006105d46105cf846103c8565b6103ad565b905080838252602082019050602084028301858111156105f7576105f66103f4565b5b835b8181101561063e57805167ffffffffffffffff81111561061c5761061b610337565b5b8086016106298982610541565b855260208501945050506020810190506105f9565b5050509392505050565b600082601f83011261065d5761065c610337565b5b815161066d8482602086016105c1565b91505092915050565b600073ffffffffffffffffffffffffffffffffffffffff82169050919050565b60006106a182610676565b9050919050565b60006106b382610696565b9050919050565b6106c3816106a8565b81146106ce57600080fd5b50565b6000815190506106e0816106ba565b92915050565b600080604083850312156106fd576106fc61032d565b5b600083015167ffffffffffffffff81111561071b5761071a610332565b5b61072785828601610648565b9250506020610738858286016106d1565b9150509250929050565b600082825260208201905092915050565b7f496e76616c6964206164647265737320666f722041646d696e206d616e61676560008201527f6d656e7420736d61727420636f6e747261637400000000000000000000000000602082015250565b60006107af603383610742565b91506107ba82610753565b604082019050919050565b600060208201905081810360008301526107de816107a2565b9050919050565b7f4174206c656173742032206f7267616e697a6174696f6e73206d75737420657860008201527f6973740000000000000000000000000000000000000000000000000000000000602082015250565b6000610841602383610742565b915061084c826107e5565b604082019050919050565b6000602082019050818103600083015261087081610834565b9050919050565b7f4e487b7100000000000000000000000000000000000000000000000000000000600052603260045260246000fd5b7f4e487b7100000000000000000000000000000000000000000000000000000000600052601160045260246000fd5b60006108e082610403565b91507fffffffffffffffffffffffffffffffffffffffffffffffffffffffffffffffff8203610912576109116108a6565b5b600182019050919050565b600081519050919050565b7f4e487b7100000000000000000000000000000000000000000000000000000000600052602260045260246000fd5b6000600282049050600182168061096f57607f821691505b60208210810361098257610981610928565b5b50919050565b60008190508160005260206000209050919050565b60006020601f8301049050919050565b600082821b905092915050565b6000600883026109ea7fffffffffffffffffffffffffffffffffffffffffffffffffffffffffffffffff826109ad565b6109f486836109ad565b95508019841693508086168417925050509392505050565b6000819050919050565b6000610a31610a2c610a2784610403565b610a0c565b610403565b9050919050565b6000819050919050565b610a4b83610a16565b610a5f610a5782610a38565b8484546109ba565b825550505050565b600090565b610a74610a67565b610a7f818484610a42565b505050565b5b81811015610aa357610a98600082610a6c565b600181019050610a85565b5050565b601f821115610ae857610ab981610988565b610ac28461099d565b81016020851015610ad1578190505b610ae5610add8561099d565b830182610a84565b50505b505050565b600082821c905092915050565b6000610b0b60001984600802610aed565b1980831691505092915050565b6000610b248383610afa565b9150826002028217905092915050565b610b3d8261091d565b67ffffffffffffffff811115610b5657610b5561034d565b5b610b608254610957565b610b6b828285610aa7565b600060209050601f831160018114610b9e5760008415610b8c578287015190505b610b968582610b18565b865550610bfe565b601f198416610bac86610988565b60005b82811015610bd457848901518255600182019150602085019450602081019050610baf565b86831015610bf15784890151610bed601f891682610afa565b8355505b6001600288020188555050505b505050505050565b608051611bbc610c366000396000818161023f015281816106c3015281816106e9015261081b0152611bbc6000f3fe608060405234801561001057600080fd5b506004361061009e5760003560e01c8063a5de361911610066578063a5de36191461015b578063aac271bf14610179578063dc1301af146101a9578063dd67826e146101c5578063e792dd8a146101e35761009e565b8063136cf162146100a35780632e9e006c146100c157806337c55052146100f15780634526f6901461010d5780639754a3a81461013d575b600080fd5b6100ab610215565b6040516100b89190610f2f565b60405180910390f35b6100db60048036038101906100d69190610f80565b61021b565b6040516100e89190610fc8565b60405180910390f35b61010b60048036038101906101069190611074565b61023d565b005b61012760048036038101906101229190610f80565b6103f0565b60405161013491906111e6565b60405180910390f35b610145610531565b604051610152919061131a565b60405180910390f35b6101636106c1565b60405161017091906113bb565b60405180910390f35b610193600480360381019061018e91906113d6565b6106e5565b6040516101a09190610f2f565b60405180910390f35b6101c360048036038101906101be9190610f80565b610819565b005b6101cd610a25565b6040516101da91906114e5565b60405180910390f35b6101fd60048036038101906101f89190610f80565b610a36565b60405161020c93929190611551565b60405180910390f35b60005481565b6000806001600084815260200190815260200160002060000154119050919050565b7f000000000000000000000000000000000000000000000000000000000000000073ffffffffffffffffffffffffffffffffffffffff1663fe9fbb80336040518263ffffffff1660e01b815260040161029691906115b0565b602060405180830381865afa1580156102b3573d6000803e3d6000fd5b505050506040513d601f19601f820116820180604052508101906102d791906115e0565b61031857336040517fdccef96400000000000000000000000000000000000000000000000000000000815260040161030f91906115b0565b60405180910390fd5b83600060016000838152602001908152602001600020600001540361037457806040517fd54d626300000000000000000000000000000000000000000000000000000000815260040161036b9190610f2f565b60405180910390fd5b6000600160008781526020019081526020016000209050848482600101918261039e929190611849565b50828160020160006101000a81548160ff021916908315150217905550857fb619b969b88056dab57b92c01194a5221e4ff05980a472fc02f852eaa5f0900960405160405180910390a2505050505050565b6103f8610e96565b81600060016000838152602001908152602001600020600001540361045457806040517fd54d626300000000000000000000000000000000000000000000000000000000815260040161044b9190610f2f565b60405180910390fd5b600160008481526020019081526020016000206040518060600160405290816000820154815260200160018201805461048c90611676565b80601f01602080910402602001604051908101604052809291908181526020018280546104b890611676565b80156105055780601f106104da57610100808354040283529160200191610505565b820191906000526020600020905b8154815290600101906020018083116104e857829003601f168201915b505050505081526020016002820160009054906101000a900460ff161515151581525050915050919050565b6060600061053f6002610af5565b67ffffffffffffffff81111561055857610557611618565b5b60405190808252806020026020018201604052801561059157816020015b61057e610e96565b8152602001906001900390816105765790505b50905060005b6105a16002610af5565b8110156106b957600160006105c0836002610b0a90919063ffffffff16565b8152602001908152602001600020604051806060016040529081600082015481526020016001820180546105f390611676565b80601f016020809104026020016040519081016040528092919081815260200182805461061f90611676565b801561066c5780601f106106415761010080835404028352916020019161066c565b820191906000526020600020905b81548152906001019060200180831161064f57829003601f168201915b505050505081526020016002820160009054906101000a900460ff1615151515815250508282815181106106a3576106a2611919565b5b6020026020010181905250806001019050610597565b508091505090565b7f000000000000000000000000000000000000000000000000000000000000000081565b60007f000000000000000000000000000000000000000000000000000000000000000073ffffffffffffffffffffffffffffffffffffffff1663fe9fbb80336040518263ffffffff1660e01b815260040161074091906115b0565b602060405180830381865afa15801561075d573d6000803e3d6000fd5b505050506040513d601f19601f8201168201806040525081019061078191906115e0565b6107c257336040517fdccef9640000000000000000000000000000000000000000000000000000000081526004016107b991906115b0565b60405180910390fd5b61081084848080601f016020809104026020016040519081016040528093929190818152602001838380828437600081840152601f19601f8201169050808301925050505050505083610b24565b90509392505050565b7f000000000000000000000000000000000000000000000000000000000000000073ffffffffffffffffffffffffffffffffffffffff1663fe9fbb80336040518263ffffffff1660e01b815260040161087291906115b0565b602060405180830381865afa15801561088f573d6000803e3d6000fd5b505050506040513d601f19601f820116820180604052508101906108b391906115e0565b6108f457336040517fdccef9640000000000000000000000000000000000000000000000000000000081526004016108eb91906115b0565b60405180910390fd5b80600060016000838152602001908152602001600020600001540361095057806040517fd54d62630000000000000000000000000000000000000000000000000000000081526004016109479190610f2f565b60405180910390fd5b600361095c6002610af5565b101561099d576040517fc50656df000000000000000000000000000000000000000000000000000000008152600401610994906119ba565b60405180910390fd5b600160008381526020019081526020016000206000808201600090556001820160006109c99190610eb9565b6002820160006101000a81549060ff021916905550506109f3826002610c0290919063ffffffff16565b50817ff27d25b655cb03d0ed4d8ec4d8052f4e032e323945fd003c8a41818acbfabcbb60405160405180910390a25050565b6060610a316002610c1c565b905090565b6001602052806000526040600020600091509050806000015490806001018054610a5f90611676565b80601f0160208091040260200160405190810160405280929190818152602001828054610a8b90611676565b8015610ad85780601f10610aad57610100808354040283529160200191610ad8565b820191906000526020600020905b815481529060010190602001808311610abb57829003601f168201915b5050505050908060020160009054906101000a900460ff16905083565b6000610b0382600001610c3d565b9050919050565b6000610b198360000183610c4e565b60001c905092915050565b6000806000808154610b3590611a09565b91905081905590506000604051806060016040528083815260200186815260200185151581525090508060016000848152602001908152602001600020600082015181600001556020820151816001019081610b919190611a51565b5060408201518160020160006101000a81548160ff021916908315150217905550905050610bc9826002610c7990919063ffffffff16565b50817f1c508b973454c46b1f870f73c657746ab38950030ec436dab31acbbca450537c60405160405180910390a2819250505092915050565b6000610c14836000018360001b610c93565b905092915050565b60606000610c2c83600001610da7565b905060608190508092505050919050565b600081600001805490509050919050565b6000826000018281548110610c6657610c65611919565b5b9060005260206000200154905092915050565b6000610c8b836000018360001b610e03565b905092915050565b60008083600101600084815260200190815260200160002054905060008114610d9b576000600182610cc59190611b23565b9050600060018660000180549050610cdd9190611b23565b9050808214610d4c576000866000018281548110610cfe57610cfd611919565b5b9060005260206000200154905080876000018481548110610d2257610d21611919565b5b90600052602060002001819055508387600101600083815260200190815260200160002081905550505b85600001805480610d6057610d5f611b57565b5b600190038181906000526020600020016000905590558560010160008681526020019081526020016000206000905560019350505050610da1565b60009150505b92915050565b606081600001805480602002602001604051908101604052809291908181526020018280548015610df757602002820191906000526020600020905b815481526020019060010190808311610de3575b50505050509050919050565b6000610e0f8383610e73565b610e68578260000182908060018154018082558091505060019003906000526020600020016000909190919091505582600001805490508360010160008481526020019081526020016000208190555060019050610e6d565b600090505b92915050565b600080836001016000848152602001908152602001600020541415905092915050565b604051806060016040528060008152602001606081526020016000151581525090565b508054610ec590611676565b6000825580601f10610ed75750610ef6565b601f016020900490600052602060002090810190610ef59190610ef9565b5b50565b5b80821115610f12576000816000905550600101610efa565b5090565b6000819050919050565b610f2981610f16565b82525050565b6000602082019050610f446000830184610f20565b92915050565b600080fd5b600080fd5b610f5d81610f16565b8114610f6857600080fd5b50565b600081359050610f7a81610f54565b92915050565b600060208284031215610f9657610f95610f4a565b5b6000610fa484828501610f6b565b91505092915050565b60008115159050919050565b610fc281610fad565b82525050565b6000602082019050610fdd6000830184610fb9565b92915050565b600080fd5b600080fd5b600080fd5b60008083601f84011261100857611007610fe3565b5b8235905067ffffffffffffffff81111561102557611024610fe8565b5b60208301915083600182028301111561104157611040610fed565b5b9250929050565b61105181610fad565b811461105c57600080fd5b50565b60008135905061106e81611048565b92915050565b6000806000806060858703121561108e5761108d610f4a565b5b600061109c87828801610f6b565b945050602085013567ffffffffffffffff8111156110bd576110bc610f4f565b5b6110c987828801610ff2565b935093505060406110dc8782880161105f565b91505092959194509250565b6110f181610f16565b82525050565b600081519050919050565b600082825260208201905092915050565b60005b83811015611131578082015181840152602081019050611116565b60008484015250505050565b6000601f19601f8301169050919050565b6000611159826110f7565b6111638185611102565b9350611173818560208601611113565b61117c8161113d565b840191505092915050565b61119081610fad565b82525050565b60006060830160008301516111ae60008601826110e8565b50602083015184820360208601526111c6828261114e565b91505060408301516111db6040860182611187565b508091505092915050565b600060208201905081810360008301526112008184611196565b905092915050565b600081519050919050565b600082825260208201905092915050565b6000819050602082019050919050565b600060608301600083015161124c60008601826110e8565b5060208301518482036020860152611264828261114e565b91505060408301516112796040860182611187565b508091505092915050565b60006112908383611234565b905092915050565b6000602082019050919050565b60006112b082611208565b6112ba8185611213565b9350836020820285016112cc85611224565b8060005b8581101561130857848403895281516112e98582611284565b94506112f483611298565b925060208a019950506001810190506112d0565b50829750879550505050505092915050565b6000602082019050818103600083015261133481846112a5565b905092915050565b600073ffffffffffffffffffffffffffffffffffffffff82169050919050565b6000819050919050565b600061138161137c6113778461133c565b61135c565b61133c565b9050919050565b600061139382611366565b9050919050565b60006113a582611388565b9050919050565b6113b58161139a565b82525050565b60006020820190506113d060008301846113ac565b92915050565b6000806000604084860312156113ef576113ee610f4a565b5b600084013567ffffffffffffffff81111561140d5761140c610f4f565b5b61141986828701610ff2565b9350935050602061142c8682870161105f565b9150509250925092565b600081519050919050565b600082825260208201905092915050565b6000819050602082019050919050565b600061146e83836110e8565b60208301905092915050565b6000602082019050919050565b600061149282611436565b61149c8185611441565b93506114a783611452565b8060005b838110156114d85781516114bf8882611462565b97506114ca8361147a565b9250506001810190506114ab565b5085935050505092915050565b600060208201905081810360008301526114ff8184611487565b905092915050565b600082825260208201905092915050565b6000611523826110f7565b61152d8185611507565b935061153d818560208601611113565b6115468161113d565b840191505092915050565b60006060820190506115666000830186610f20565b81810360208301526115788185611518565b90506115876040830184610fb9565b949350505050565b600061159a8261133c565b9050919050565b6115aa8161158f565b82525050565b60006020820190506115c560008301846115a1565b92915050565b6000815190506115da81611048565b92915050565b6000602082840312156115f6576115f5610f4a565b5b6000611604848285016115cb565b91505092915050565b600082905092915050565b7f4e487b7100000000000000000000000000000000000000000000000000000000600052604160045260246000fd5b7f4e487b7100000000000000000000000000000000000000000000000000000000600052602260045260246000fd5b6000600282049050600182168061168e57607f821691505b6020821081036116a1576116a0611647565b5b50919050565b60008190508160005260206000209050919050565b60006020601f8301049050919050565b600082821b905092915050565b6000600883026117097fffffffffffffffffffffffffffffffffffffffffffffffffffffffffffffffff826116cc565b61171386836116cc565b95508019841693508086168417925050509392505050565b600061174661174161173c84610f16565b61135c565b610f16565b9050919050565b6000819050919050565b6117608361172b565b61177461176c8261174d565b8484546116d9565b825550505050565b600090565b61178961177c565b611794818484611757565b505050565b5b818110156117b8576117ad600082611781565b60018101905061179a565b5050565b601f8211156117fd576117ce816116a7565b6117d7846116bc565b810160208510156117e6578190505b6117fa6117f2856116bc565b830182611799565b50505b505050565b600082821c905092915050565b600061182060001984600802611802565b1980831691505092915050565b6000611839838361180f565b9150826002028217905092915050565b611853838361160d565b67ffffffffffffffff81111561186c5761186b611618565b5b6118768254611676565b6118818282856117bc565b6000601f8311600181146118b0576000841561189e578287013590505b6118a8858261182d565b865550611910565b601f1984166118be866116a7565b60005b828110156118e6578489013582556001820191506020850194506020810190506118c1565b8683101561190357848901356118ff601f89168261180f565b8355505b6001600288020188555050505b50505050505050565b7f4e487b7100000000000000000000000000000000000000000000000000000000600052603260045260246000fd5b7f4174206c656173742032206f7267616e697a6174696f6e73206d75737420626560008201527f2061637469766500000000000000000000000000000000000000000000000000602082015250565b60006119a4602783611507565b91506119af82611948565b604082019050919050565b600060208201905081810360008301526119d381611997565b9050919050565b7f4e487b7100000000000000000000000000000000000000000000000000000000600052601160045260246000fd5b6000611a1482610f16565b91507fffffffffffffffffffffffffffffffffffffffffffffffffffffffffffffffff8203611a4657611a456119da565b5b600182019050919050565b611a5a826110f7565b67ffffffffffffffff811115611a7357611a72611618565b5b611a7d8254611676565b611a888282856117bc565b600060209050601f831160018114611abb5760008415611aa9578287015190505b611ab3858261182d565b865550611b1b565b601f198416611ac9866116a7565b60005b82811015611af157848901518255600182019150602085019450602081019050611acc565b86831015611b0e5784890151611b0a601f89168261180f565b8355505b6001600288020188555050505b505050505050565b6000611b2e82610f16565b9150611b3983610f16565b9250828203905081811115611b5157611b506119da565b5b92915050565b7f4e487b7100000000000000000000000000000000000000000000000000000000600052603160045260246000fdfea2646970667358221220feeb65552e6391df65f8355c2b58b8a447f35442434062f8c02865974e8c379364736f6c634300081a0033",
  "linkReferences": {},
  "deployedLinkReferences": {}
}