{
  "_format": "hh-sol-artifact-1",
  "contractName": "OrganizationImpl",
  "sourceName": "contracts/OrganizationImpl.sol",
  "abi": [
    {
      "inputs": [
        {
          "components": [
            {
              "internalType": "uint256",
              "name": "id",
              "type": "uint256"
            },
            {
              "internalType": "string",
              "name": "cnpj",
              "type": "string"
            },
            {
              "internalType": "string",
              "name": "name",
              "type": "string"
            },
            {
              "internalType": "enum Organization.OrganizationType",
              "name": "orgType",
              "type": "uint8"
            },
            {
              "internalType": "bool",
              "name": "canVote",
              "type": "bool"
            }
          ],
          "internalType": "struct Organization.OrganizationData[]",
          "name": "orgs",
          "type": "tuple[]"
        },
        {
          "internalType": "contract AdminProxy",
          "name": "adminsProxy",
          "type": "address"
        }
      ],
      "stateMutability": "nonpayable",
      "type": "constructor"
    },
    {
      "inputs": [
        {
          "internalType": "string",
          "name": "message",
          "type": "string"
        }
      ],
      "name": "IllegalState",
      "type": "error"
    },
    {
      "inputs": [
        {
          "internalType": "string",
          "name": "message",
          "type": "string"
        }
      ],
      "name": "InvalidArgument",
      "type": "error"
    },
    {
      "inputs": [
        {
          "internalType": "uint256",
          "name": "orgId",
          "type": "uint256"
        }
      ],
      "name": "OrganizationNotFound",
      "type": "error"
    },
    {
      "inputs": [
        {
          "internalType": "address",
          "name": "account",
          "type": "address"
        }
      ],
      "name": "UnauthorizedAccess",
      "type": "error"
    },
    {
      "anonymous": false,
      "inputs": [
        {
          "indexed": true,
          "internalType": "uint256",
          "name": "orgId",
          "type": "uint256"
        },
        {
          "indexed": false,
          "internalType": "string",
          "name": "cnpj",
          "type": "string"
        },
        {
          "indexed": false,
          "internalType": "string",
          "name": "name",
          "type": "string"
        },
        {
          "indexed": false,
          "internalType": "enum Organization.OrganizationType",
          "name": "orgType",
          "type": "uint8"
        },
        {
          "indexed": false,
          "internalType": "bool",
          "name": "canVote",
          "type": "bool"
        }
      ],
      "name": "OrganizationAdded",
      "type": "event"
    },
    {
      "anonymous": false,
      "inputs": [
        {
          "indexed": true,
          "internalType": "uint256",
          "name": "orgId",
          "type": "uint256"
        }
      ],
      "name": "OrganizationDeleted",
      "type": "event"
    },
    {
      "anonymous": false,
      "inputs": [
        {
          "indexed": true,
          "internalType": "uint256",
          "name": "orgId",
          "type": "uint256"
        },
        {
          "indexed": false,
          "internalType": "string",
          "name": "cnpj",
          "type": "string"
        },
        {
          "indexed": false,
          "internalType": "string",
          "name": "name",
          "type": "string"
        },
        {
          "indexed": false,
          "internalType": "enum Organization.OrganizationType",
          "name": "orgType",
          "type": "uint8"
        },
        {
          "indexed": false,
          "internalType": "bool",
          "name": "canVote",
          "type": "bool"
        }
      ],
      "name": "OrganizationUpdated",
      "type": "event"
    },
    {
      "inputs": [
        {
          "internalType": "string",
          "name": "cnpj",
          "type": "string"
        },
        {
          "internalType": "string",
          "name": "name",
          "type": "string"
        },
        {
          "internalType": "enum Organization.OrganizationType",
          "name": "orgType",
          "type": "uint8"
        },
        {
          "internalType": "bool",
          "name": "canVote",
          "type": "bool"
        }
      ],
      "name": "addOrganization",
      "outputs": [
        {
          "internalType": "uint256",
          "name": "",
          "type": "uint256"
        }
      ],
      "stateMutability": "nonpayable",
      "type": "function"
    },
    {
      "inputs": [],
      "name": "admins",
      "outputs": [
        {
          "internalType": "contract AdminProxy",
          "name": "",
          "type": "address"
        }
      ],
      "stateMutability": "view",
      "type": "function"
    },
    {
      "inputs": [
        {
          "internalType": "uint256",
          "name": "orgId",
          "type": "uint256"
        }
      ],
      "name": "deleteOrganization",
      "outputs": [],
      "stateMutability": "nonpayable",
      "type": "function"
    },
    {
      "inputs": [
        {
          "internalType": "uint256",
          "name": "orgId",
          "type": "uint256"
        }
      ],
      "name": "getOrganization",
      "outputs": [
        {
          "components": [
            {
              "internalType": "uint256",
              "name": "id",
              "type": "uint256"
            },
            {
              "internalType": "string",
              "name": "cnpj",
              "type": "string"
            },
            {
              "internalType": "string",
              "name": "name",
              "type": "string"
            },
            {
              "internalType": "enum Organization.OrganizationType",
              "name": "orgType",
              "type": "uint8"
            },
            {
              "internalType": "bool",
              "name": "canVote",
              "type": "bool"
            }
          ],
          "internalType": "struct Organization.OrganizationData",
          "name": "",
          "type": "tuple"
        }
      ],
      "stateMutability": "view",
      "type": "function"
    },
    {
      "inputs": [],
      "name": "getOrganizations",
      "outputs": [
        {
          "components": [
            {
              "internalType": "uint256",
              "name": "id",
              "type": "uint256"
            },
            {
              "internalType": "string",
              "name": "cnpj",
              "type": "string"
            },
            {
              "internalType": "string",
              "name": "name",
              "type": "string"
            },
            {
              "internalType": "enum Organization.OrganizationType",
              "name": "orgType",
              "type": "uint8"
            },
            {
              "internalType": "bool",
              "name": "canVote",
              "type": "bool"
            }
          ],
          "internalType": "struct Organization.OrganizationData[]",
          "name": "",
          "type": "tuple[]"
        }
      ],
      "stateMutability": "view",
      "type": "function"
    },
    {
      "inputs": [],
      "name": "idSeed",
      "outputs": [
        {
          "internalType": "uint256",
          "name": "",
          "type": "uint256"
        }
      ],
      "stateMutability": "view",
      "type": "function"
    },
    {
      "inputs": [
        {
          "internalType": "uint256",
          "name": "orgId",
          "type": "uint256"
        }
      ],
      "name": "isOrganizationActive",
      "outputs": [
        {
          "internalType": "bool",
          "name": "",
          "type": "bool"
        }
      ],
      "stateMutability": "view",
      "type": "function"
    },
    {
      "inputs": [],
      "name": "organizationIds",
      "outputs": [
        {
          "internalType": "uint256[]",
          "name": "",
          "type": "uint256[]"
        }
      ],
      "stateMutability": "view",
      "type": "function"
    },
    {
      "inputs": [
        {
          "internalType": "uint256",
          "name": "",
          "type": "uint256"
        }
      ],
      "name": "organizations",
      "outputs": [
        {
          "internalType": "uint256",
          "name": "id",
          "type": "uint256"
        },
        {
          "internalType": "string",
          "name": "cnpj",
          "type": "string"
        },
        {
          "internalType": "string",
          "name": "name",
          "type": "string"
        },
        {
          "internalType": "enum Organization.OrganizationType",
          "name": "orgType",
          "type": "uint8"
        },
        {
          "internalType": "bool",
          "name": "canVote",
          "type": "bool"
        }
      ],
      "stateMutability": "view",
      "type": "function"
    },
    {
      "inputs": [
        {
          "internalType": "uint256",
          "name": "orgId",
          "type": "uint256"
        },
        {
          "internalType": "string",
          "name": "cnpj",
          "type": "string"
        },
        {
          "internalType": "string",
          "name": "name",
          "type": "string"
        },
        {
          "internalType": "enum Organization.OrganizationType",
          "name": "orgType",
          "type": "uint8"
        },
        {
          "internalType": "bool",
          "name": "canVote",
          "type": "bool"
        }
      ],
      "name": "updateOrganization",
      "outputs": [],
      "stateMutability": "nonpayable",
      "type": "function"
    }
  ],
  "bytecode": "0x60a06040526000805534801561001457600080fd5b5060405161375138038061375183398181016040528101906100369190610906565b80600073ffffffffffffffffffffffffffffffffffffffff168173ffffffffffffffffffffffffffffffffffffffff16036100a6576040517f08c379a000000000000000000000000000000000000000000000000000000000815260040161009d906109e5565b60405180910390fd5b8073ffffffffffffffffffffffffffffffffffffffff1660808173ffffffffffffffffffffffffffffffffffffffff168152505050600282511015610120576040517f08c379a000000000000000000000000000000000000000000000000000000000815260040161011790610a77565b60405180910390fd5b60005b82518110156101c2576101b683828151811061014257610141610a97565b5b60200260200101516020015184838151811061016157610160610a97565b5b6020026020010151604001518584815181106101805761017f610a97565b5b60200260200101516060015186858151811061019f5761019e610a97565b5b6020026020010151608001516101ca60201b60201c565b50806001019050610123565b5050506110ee565b6000846000815103610211576040517f7ffc6cec00000000000000000000000000000000000000000000000000000000815260040161020890610b38565b60405180910390fd5b846000815103610256576040517f7ffc6cec00000000000000000000000000000000000000000000000000000000815260040161024d90610bca565b60405180910390fd5b848480801561028957506000600281111561027457610273610bea565b5b82600281111561028757610286610bea565b5b145b156102c9576040517f7ffc6cec0000000000000000000000000000000000000000000000000000000081526004016102c090610c8b565b60405180910390fd5b600080600081546102d990610cda565b919050819055905060006040518060a001604052808381526020018c81526020018b81526020018a600281111561031357610312610bea565b5b8152602001891515815250905080600160008481526020019081526020016000206000820151816000015560208201518160010190816103539190610f39565b5060408201518160020190816103699190610f39565b5060608201518160030160006101000a81548160ff0219169083600281111561039557610394610bea565b5b021790555060808201518160030160016101000a81548160ff0219169083151502179055509050506103d182600261042160201b90919060201c565b50817fec0cb196eb284ede8914a46d8febb79d7e859720bc044181a9ce9f1cd1b56ade8c8c8c8c604051610408949392919061109b565b60405180910390a2819650505050505050949350505050565b6000610439836000018360001b61044160201b60201c565b905092915050565b600061045383836104b760201b60201c565b6104ac5782600001829080600181540180825580915050600190039060005260206000200160009091909190915055826000018054905083600101600084815260200190815260200160002081905550600190506104b1565b600090505b92915050565b600080836001016000848152602001908152602001600020541415905092915050565b6000604051905090565b600080fd5b600080fd5b600080fd5b6000601f19601f8301169050919050565b7f4e487b7100000000000000000000000000000000000000000000000000000000600052604160045260246000fd5b61053c826104f3565b810181811067ffffffffffffffff8211171561055b5761055a610504565b5b80604052505050565b600061056e6104da565b905061057a8282610533565b919050565b600067ffffffffffffffff82111561059a57610599610504565b5b602082029050602081019050919050565b600080fd5b600080fd5b600080fd5b6000819050919050565b6105cd816105ba565b81146105d857600080fd5b50565b6000815190506105ea816105c4565b92915050565b600080fd5b600067ffffffffffffffff8211156106105761060f610504565b5b610619826104f3565b9050602081019050919050565b60005b83811015610644578082015181840152602081019050610629565b60008484015250505050565b600061066361065e846105f5565b610564565b90508281526020810184848401111561067f5761067e6105f0565b5b61068a848285610626565b509392505050565b600082601f8301126106a7576106a66104ee565b5b81516106b7848260208601610650565b91505092915050565b600381106106cd57600080fd5b50565b6000815190506106df816106c0565b92915050565b60008115159050919050565b6106fa816106e5565b811461070557600080fd5b50565b600081519050610717816106f1565b92915050565b600060a08284031215610733576107326105b0565b5b61073d60a0610564565b9050600061074d848285016105db565b600083015250602082015167ffffffffffffffff811115610771576107706105b5565b5b61077d84828501610692565b602083015250604082015167ffffffffffffffff8111156107a1576107a06105b5565b5b6107ad84828501610692565b60408301525060606107c1848285016106d0565b60608301525060806107d584828501610708565b60808301525092915050565b60006107f46107ef8461057f565b610564565b90508083825260208201905060208402830185811115610817576108166105ab565b5b835b8181101561085e57805167ffffffffffffffff81111561083c5761083b6104ee565b5b808601610849898261071d565b85526020850194505050602081019050610819565b5050509392505050565b600082601f83011261087d5761087c6104ee565b5b815161088d8482602086016107e1565b91505092915050565b600073ffffffffffffffffffffffffffffffffffffffff82169050919050565b60006108c182610896565b9050919050565b60006108d3826108b6565b9050919050565b6108e3816108c8565b81146108ee57600080fd5b50565b600081519050610900816108da565b92915050565b6000806040838503121561091d5761091c6104e4565b5b600083015167ffffffffffffffff81111561093b5761093a6104e9565b5b61094785828601610868565b9250506020610958858286016108f1565b9150509250929050565b600082825260208201905092915050565b7f496e76616c6964206164647265737320666f722041646d696e206d616e61676560008201527f6d656e7420736d61727420636f6e747261637400000000000000000000000000602082015250565b60006109cf603383610962565b91506109da82610973565b604082019050919050565b600060208201905081810360008301526109fe816109c2565b9050919050565b7f4174206c656173742032206f7267616e697a6174696f6e73206d75737420657860008201527f6973740000000000000000000000000000000000000000000000000000000000602082015250565b6000610a61602383610962565b9150610a6c82610a05565b604082019050919050565b60006020820190508181036000830152610a9081610a54565b9050919050565b7f4e487b7100000000000000000000000000000000000000000000000000000000600052603260045260246000fd5b7f4f7267616e697a6174696f6e20434e504a2063616e6e6f7420626520656d707460008201527f792e000000000000000000000000000000000000000000000000000000000000602082015250565b6000610b22602283610962565b9150610b2d82610ac6565b604082019050919050565b60006020820190508181036000830152610b5181610b15565b9050919050565b7f4f7267616e697a6174696f6e206e616d652063616e6e6f7420626520656d707460008201527f792e000000000000000000000000000000000000000000000000000000000000602082015250565b6000610bb4602283610962565b9150610bbf82610b58565b604082019050919050565b60006020820190508181036000830152610be381610ba7565b9050919050565b7f4e487b7100000000000000000000000000000000000000000000000000000000600052602160045260246000fd5b7f506172746e6572206f7267616e697a6174696f6e732063616e6e6f7420766f7460008201527f6500000000000000000000000000000000000000000000000000000000000000602082015250565b6000610c75602183610962565b9150610c8082610c19565b604082019050919050565b60006020820190508181036000830152610ca481610c68565b9050919050565b7f4e487b7100000000000000000000000000000000000000000000000000000000600052601160045260246000fd5b6000610ce5826105ba565b91507fffffffffffffffffffffffffffffffffffffffffffffffffffffffffffffffff8203610d1757610d16610cab565b5b600182019050919050565b600081519050919050565b7f4e487b7100000000000000000000000000000000000000000000000000000000600052602260045260246000fd5b60006002820490506001821680610d7457607f821691505b602082108103610d8757610d86610d2d565b5b50919050565b60008190508160005260206000209050919050565b60006020601f8301049050919050565b600082821b905092915050565b600060088302610def7fffffffffffffffffffffffffffffffffffffffffffffffffffffffffffffffff82610db2565b610df98683610db2565b95508019841693508086168417925050509392505050565b6000819050919050565b6000610e36610e31610e2c846105ba565b610e11565b6105ba565b9050919050565b6000819050919050565b610e5083610e1b565b610e64610e5c82610e3d565b848454610dbf565b825550505050565b600090565b610e79610e6c565b610e84818484610e47565b505050565b5b81811015610ea857610e9d600082610e71565b600181019050610e8a565b5050565b601f821115610eed57610ebe81610d8d565b610ec784610da2565b81016020851015610ed6578190505b610eea610ee285610da2565b830182610e89565b50505b505050565b600082821c905092915050565b6000610f1060001984600802610ef2565b1980831691505092915050565b6000610f298383610eff565b9150826002028217905092915050565b610f4282610d22565b67ffffffffffffffff811115610f5b57610f5a610504565b5b610f658254610d5c565b610f70828285610eac565b600060209050601f831160018114610fa35760008415610f91578287015190505b610f9b8582610f1d565b865550611003565b601f198416610fb186610d8d565b60005b82811015610fd957848901518255600182019150602085019450602081019050610fb4565b86831015610ff65784890151610ff2601f891682610eff565b8355505b6001600288020188555050505b505050505050565b600061101682610d22565b6110208185610962565b9350611030818560208601610626565b611039816104f3565b840191505092915050565b6003811061105557611054610bea565b5b50565b600081905061106682611044565b919050565b600061107682611058565b9050919050565b6110868161106b565b82525050565b611095816106e5565b82525050565b600060808201905081810360008301526110b5818761100b565b905081810360208301526110c9818661100b565b90506110d8604083018561107d565b6110e5606083018461108c565b95945050505050565b60805161263361111e60003960008181610221015281816108290152818161084d0152610be101526126336000f3fe608060405234801561001057600080fd5b506004361061009e5760003560e01c8063a5de361911610066578063a5de36191461016f578063d924b3ee1461018d578063dc1301af146101a9578063dd67826e146101c5578063e792dd8a146101e35761009e565b8063136cf162146100a357806321c074b8146100c15780632e9e006c146100f15780634526f690146101215780639754a3a814610151575b600080fd5b6100ab610217565b6040516100b89190611553565b60405180910390f35b6100db60048036038101906100d6919061163a565b61021d565b6040516100e89190611553565b60405180910390f35b61010b6004803603810190610106919061170d565b61039a565b6040516101189190611749565b60405180910390f35b61013b6004803603810190610136919061170d565b6103bc565b6040516101489190611906565b60405180910390f35b6101596105ca565b6040516101669190611a67565b60405180910390f35b610177610827565b6040516101849190611b08565b60405180910390f35b6101a760048036038101906101a29190611b23565b61084b565b005b6101c360048036038101906101be919061170d565b610bdf565b005b6101cd610e0f565b6040516101da9190611c8e565b60405180910390f35b6101fd60048036038101906101f8919061170d565b610e20565b60405161020e959493929190611d09565b60405180910390f35b60005481565b60007f000000000000000000000000000000000000000000000000000000000000000073ffffffffffffffffffffffffffffffffffffffff1663fe9fbb80336040518263ffffffff1660e01b81526004016102789190611d8b565b602060405180830381865afa158015610295573d6000803e3d6000fd5b505050506040513d601f19601f820116820180604052508101906102b99190611dbb565b6102fa57336040517fdccef9640000000000000000000000000000000000000000000000000000000081526004016102f19190611d8b565b60405180910390fd5b61038e87878080601f016020809104026020016040519081016040528093929190818152602001838380828437600081840152601f19601f8201169050808301925050505050505086868080601f016020809104026020016040519081016040528093929190818152602001838380828437600081840152601f19601f820116905080830192505050505050508585610f80565b90509695505050505050565b6000806001600084815260200190815260200160002060000154119050919050565b6103c461149a565b81600060016000838152602001908152602001600020600001540361042057806040517fd54d62630000000000000000000000000000000000000000000000000000000081526004016104179190611553565b60405180910390fd5b600160008481526020019081526020016000206040518060a00160405290816000820154815260200160018201805461045890611e17565b80601f016020809104026020016040519081016040528092919081815260200182805461048490611e17565b80156104d15780601f106104a6576101008083540402835291602001916104d1565b820191906000526020600020905b8154815290600101906020018083116104b457829003601f168201915b505050505081526020016002820180546104ea90611e17565b80601f016020809104026020016040519081016040528092919081815260200182805461051690611e17565b80156105635780601f1061053857610100808354040283529160200191610563565b820191906000526020600020905b81548152906001019060200180831161054657829003601f168201915b505050505081526020016003820160009054906101000a900460ff16600281111561059157610590611803565b5b60028111156105a3576105a2611803565b5b81526020016003820160019054906101000a900460ff161515151581525050915050919050565b606060006105d860026111d7565b67ffffffffffffffff8111156105f1576105f0611e48565b5b60405190808252806020026020018201604052801561062a57816020015b61061761149a565b81526020019060019003908161060f5790505b50905060005b61063a60026111d7565b81101561081f57600160006106598360026111ec90919063ffffffff16565b81526020019081526020016000206040518060a00160405290816000820154815260200160018201805461068c90611e17565b80601f01602080910402602001604051908101604052809291908181526020018280546106b890611e17565b80156107055780601f106106da57610100808354040283529160200191610705565b820191906000526020600020905b8154815290600101906020018083116106e857829003601f168201915b5050505050815260200160028201805461071e90611e17565b80601f016020809104026020016040519081016040528092919081815260200182805461074a90611e17565b80156107975780601f1061076c57610100808354040283529160200191610797565b820191906000526020600020905b81548152906001019060200180831161077a57829003601f168201915b505050505081526020016003820160009054906101000a900460ff1660028111156107c5576107c4611803565b5b60028111156107d7576107d6611803565b5b81526020016003820160019054906101000a900460ff16151515158152505082828151811061080957610808611e77565b5b6020026020010181905250806001019050610630565b508091505090565b7f000000000000000000000000000000000000000000000000000000000000000081565b7f000000000000000000000000000000000000000000000000000000000000000073ffffffffffffffffffffffffffffffffffffffff1663fe9fbb80336040518263ffffffff1660e01b81526004016108a49190611d8b565b602060405180830381865afa1580156108c1573d6000803e3d6000fd5b505050506040513d601f19601f820116820180604052508101906108e59190611dbb565b61092657336040517fdccef96400000000000000000000000000000000000000000000000000000000815260040161091d9190611d8b565b60405180910390fd5b86600060016000838152602001908152602001600020600001540361098257806040517fd54d62630000000000000000000000000000000000000000000000000000000081526004016109799190611553565b60405180910390fd5b86868080601f016020809104026020016040519081016040528093929190818152602001838380828437600081840152601f19601f820116905080830192505050505050506000815103610a0b576040517f7ffc6cec000000000000000000000000000000000000000000000000000000008152600401610a0290611f18565b60405180910390fd5b85858080601f016020809104026020016040519081016040528093929190818152602001838380828437600081840152601f19601f820116905080830192505050505050506000815103610a94576040517f7ffc6cec000000000000000000000000000000000000000000000000000000008152600401610a8b90611faa565b60405180910390fd5b8484808015610ac7575060006002811115610ab257610ab1611803565b5b826002811115610ac557610ac4611803565b5b145b15610b07576040517f7ffc6cec000000000000000000000000000000000000000000000000000000008152600401610afe9061203c565b60405180910390fd5b6000600160008e815260200190815260200160002090508b8b826001019182610b31929190612209565b508989826002019182610b45929190612209565b50878160030160006101000a81548160ff02191690836002811115610b6d57610b6c611803565b5b0217905550868160030160016101000a81548160ff0219169083151502179055508c7ffab9a138676e695e0c058a2a5f4ebd971b699639ba2f6beb240ce670e32fcca18d8d8d8d8d8d604051610bc896959493929190612315565b60405180910390a250505050505050505050505050565b7f000000000000000000000000000000000000000000000000000000000000000073ffffffffffffffffffffffffffffffffffffffff1663fe9fbb80336040518263ffffffff1660e01b8152600401610c389190611d8b565b602060405180830381865afa158015610c55573d6000803e3d6000fd5b505050506040513d601f19601f82011682018060405250810190610c799190611dbb565b610cba57336040517fdccef964000000000000000000000000000000000000000000000000000000008152600401610cb19190611d8b565b60405180910390fd5b806000600160008381526020019081526020016000206000015403610d1657806040517fd54d6263000000000000000000000000000000000000000000000000000000008152600401610d0d9190611553565b60405180910390fd5b6003610d2260026111d7565b1015610d63576040517fc50656df000000000000000000000000000000000000000000000000000000008152600401610d5a906123de565b60405180910390fd5b60016000838152602001908152602001600020600080820160009055600182016000610d8f91906114dd565b600282016000610d9f91906114dd565b6003820160006101000a81549060ff02191690556003820160016101000a81549060ff02191690555050610ddd82600261120690919063ffffffff16565b50817ff27d25b655cb03d0ed4d8ec4d8052f4e032e323945fd003c8a41818acbfabcbb60405160405180910390a25050565b6060610e1b6002611220565b905090565b6001602052806000526040600020600091509050806000015490806001018054610e4990611e17565b80601f0160208091040260200160405190810160405280929190818152602001828054610e7590611e17565b8015610ec25780601f10610e9757610100808354040283529160200191610ec2565b820191906000526020600020905b815481529060010190602001808311610ea557829003601f168201915b505050505090806002018054610ed790611e17565b80601f0160208091040260200160405190810160405280929190818152602001828054610f0390611e17565b8015610f505780601f10610f2557610100808354040283529160200191610f50565b820191906000526020600020905b815481529060010190602001808311610f3357829003601f168201915b5050505050908060030160009054906101000a900460ff16908060030160019054906101000a900460ff16905085565b6000846000815103610fc7576040517f7ffc6cec000000000000000000000000000000000000000000000000000000008152600401610fbe90611f18565b60405180910390fd5b84600081510361100c576040517f7ffc6cec00000000000000000000000000000000000000000000000000000000815260040161100390611faa565b60405180910390fd5b848480801561103f57506000600281111561102a57611029611803565b5b82600281111561103d5761103c611803565b5b145b1561107f576040517f7ffc6cec0000000000000000000000000000000000000000000000000000000081526004016110769061203c565b60405180910390fd5b6000806000815461108f9061242d565b919050819055905060006040518060a001604052808381526020018c81526020018b81526020018a60028111156110c9576110c8611803565b5b8152602001891515815250905080600160008481526020019081526020016000206000820151816000015560208201518160010190816111099190612475565b50604082015181600201908161111f9190612475565b5060608201518160030160006101000a81548160ff0219169083600281111561114b5761114a611803565b5b021790555060808201518160030160016101000a81548160ff02191690831515021790555090505061118782600261124190919063ffffffff16565b50817fec0cb196eb284ede8914a46d8febb79d7e859720bc044181a9ce9f1cd1b56ade8c8c8c8c6040516111be9493929190612547565b60405180910390a2819650505050505050949350505050565b60006111e58260000161125b565b9050919050565b60006111fb836000018361126c565b60001c905092915050565b6000611218836000018360001b611297565b905092915050565b60606000611230836000016113ab565b905060608190508092505050919050565b6000611253836000018360001b611407565b905092915050565b600081600001805490509050919050565b600082600001828154811061128457611283611e77565b5b9060005260206000200154905092915050565b6000808360010160008481526020019081526020016000205490506000811461139f5760006001826112c9919061259a565b90506000600186600001805490506112e1919061259a565b905080821461135057600086600001828154811061130257611301611e77565b5b906000526020600020015490508087600001848154811061132657611325611e77565b5b90600052602060002001819055508387600101600083815260200190815260200160002081905550505b85600001805480611364576113636125ce565b5b6001900381819060005260206000200160009055905585600101600086815260200190815260200160002060009055600193505050506113a5565b60009150505b92915050565b6060816000018054806020026020016040519081016040528092919081815260200182805480156113fb57602002820191906000526020600020905b8154815260200190600101908083116113e7575b50505050509050919050565b60006114138383611477565b61146c578260000182908060018154018082558091505060019003906000526020600020016000909190919091505582600001805490508360010160008481526020019081526020016000208190555060019050611471565b600090505b92915050565b600080836001016000848152602001908152602001600020541415905092915050565b6040518060a00160405280600081526020016060815260200160608152602001600060028111156114ce576114cd611803565b5b81526020016000151581525090565b5080546114e990611e17565b6000825580601f106114fb575061151a565b601f016020900490600052602060002090810190611519919061151d565b5b50565b5b8082111561153657600081600090555060010161151e565b5090565b6000819050919050565b61154d8161153a565b82525050565b60006020820190506115686000830184611544565b92915050565b600080fd5b600080fd5b600080fd5b600080fd5b600080fd5b60008083601f84011261159d5761159c611578565b5b8235905067ffffffffffffffff8111156115ba576115b961157d565b5b6020830191508360018202830111156115d6576115d5611582565b5b9250929050565b600381106115ea57600080fd5b50565b6000813590506115fc816115dd565b92915050565b60008115159050919050565b61161781611602565b811461162257600080fd5b50565b6000813590506116348161160e565b92915050565b600080600080600080608087890312156116575761165661156e565b5b600087013567ffffffffffffffff81111561167557611674611573565b5b61168189828a01611587565b9650965050602087013567ffffffffffffffff8111156116a4576116a3611573565b5b6116b089828a01611587565b945094505060406116c389828a016115ed565b92505060606116d489828a01611625565b9150509295509295509295565b6116ea8161153a565b81146116f557600080fd5b50565b600081359050611707816116e1565b92915050565b6000602082840312156117235761172261156e565b5b6000611731848285016116f8565b91505092915050565b61174381611602565b82525050565b600060208201905061175e600083018461173a565b92915050565b61176d8161153a565b82525050565b600081519050919050565b600082825260208201905092915050565b60005b838110156117ad578082015181840152602081019050611792565b60008484015250505050565b6000601f19601f8301169050919050565b60006117d582611773565b6117df818561177e565b93506117ef81856020860161178f565b6117f8816117b9565b840191505092915050565b7f4e487b7100000000000000000000000000000000000000000000000000000000600052602160045260246000fd5b6003811061184357611842611803565b5b50565b600081905061185482611832565b919050565b600061186482611846565b9050919050565b61187481611859565b82525050565b61188381611602565b82525050565b600060a0830160008301516118a16000860182611764565b50602083015184820360208601526118b982826117ca565b915050604083015184820360408601526118d382826117ca565b91505060608301516118e8606086018261186b565b5060808301516118fb608086018261187a565b508091505092915050565b600060208201905081810360008301526119208184611889565b905092915050565b600081519050919050565b600082825260208201905092915050565b6000819050602082019050919050565b600060a08301600083015161196c6000860182611764565b506020830151848203602086015261198482826117ca565b9150506040830151848203604086015261199e82826117ca565b91505060608301516119b3606086018261186b565b5060808301516119c6608086018261187a565b508091505092915050565b60006119dd8383611954565b905092915050565b6000602082019050919050565b60006119fd82611928565b611a078185611933565b935083602082028501611a1985611944565b8060005b85811015611a555784840389528151611a3685826119d1565b9450611a41836119e5565b925060208a01995050600181019050611a1d565b50829750879550505050505092915050565b60006020820190508181036000830152611a8181846119f2565b905092915050565b600073ffffffffffffffffffffffffffffffffffffffff82169050919050565b6000819050919050565b6000611ace611ac9611ac484611a89565b611aa9565b611a89565b9050919050565b6000611ae082611ab3565b9050919050565b6000611af282611ad5565b9050919050565b611b0281611ae7565b82525050565b6000602082019050611b1d6000830184611af9565b92915050565b600080600080600080600060a0888a031215611b4257611b4161156e565b5b6000611b508a828b016116f8565b975050602088013567ffffffffffffffff811115611b7157611b70611573565b5b611b7d8a828b01611587565b9650965050604088013567ffffffffffffffff811115611ba057611b9f611573565b5b611bac8a828b01611587565b94509450506060611bbf8a828b016115ed565b9250506080611bd08a828b01611625565b91505092959891949750929550565b600081519050919050565b600082825260208201905092915050565b6000819050602082019050919050565b6000611c178383611764565b60208301905092915050565b6000602082019050919050565b6000611c3b82611bdf565b611c458185611bea565b9350611c5083611bfb565b8060005b83811015611c81578151611c688882611c0b565b9750611c7383611c23565b925050600181019050611c54565b5085935050505092915050565b60006020820190508181036000830152611ca88184611c30565b905092915050565b600082825260208201905092915050565b6000611ccc82611773565b611cd68185611cb0565b9350611ce681856020860161178f565b611cef816117b9565b840191505092915050565b611d0381611859565b82525050565b600060a082019050611d1e6000830188611544565b8181036020830152611d308187611cc1565b90508181036040830152611d448186611cc1565b9050611d536060830185611cfa565b611d60608083018461173a565b9695505050505050565b6000611d7582611a89565b9050919050565b611d8581611d6a565b82525050565b6000602082019050611da06000830184611d7c565b92915050565b600081519050611db58161160e565b92915050565b600060208284031215611dd157611dd061156e565b5b6000611ddf84828501611da6565b91505092915050565b7f4e487b7100000000000000000000000000000000000000000000000000000000600052602260045260246000fd5b60006002820490506001821680611e2f57607f821691505b602082108103611e4257611e41611de8565b5b50919050565b7f4e487b7100000000000000000000000000000000000000000000000000000000600052604160045260246000fd5b7f4e487b7100000000000000000000000000000000000000000000000000000000600052603260045260246000fd5b7f4f7267616e697a6174696f6e20434e504a2063616e6e6f7420626520656d707460008201527f792e000000000000000000000000000000000000000000000000000000000000602082015250565b6000611f02602283611cb0565b9150611f0d82611ea6565b604082019050919050565b60006020820190508181036000830152611f3181611ef5565b9050919050565b7f4f7267616e697a6174696f6e206e616d652063616e6e6f7420626520656d707460008201527f792e000000000000000000000000000000000000000000000000000000000000602082015250565b6000611f94602283611cb0565b9150611f9f82611f38565b604082019050919050565b60006020820190508181036000830152611fc381611f87565b9050919050565b7f506172746e6572206f7267616e697a6174696f6e732063616e6e6f7420766f7460008201527f6500000000000000000000000000000000000000000000000000000000000000602082015250565b6000612026602183611cb0565b915061203182611fca565b604082019050919050565b6000602082019050818103600083015261205581612019565b9050919050565b600082905092915050565b60008190508160005260206000209050919050565b60006020601f8301049050919050565b600082821b905092915050565b6000600883026120c97fffffffffffffffffffffffffffffffffffffffffffffffffffffffffffffffff8261208c565b6120d3868361208c565b95508019841693508086168417925050509392505050565b60006121066121016120fc8461153a565b611aa9565b61153a565b9050919050565b6000819050919050565b612120836120eb565b61213461212c8261210d565b848454612099565b825550505050565b600090565b61214961213c565b612154818484612117565b505050565b5b818110156121785761216d600082612141565b60018101905061215a565b5050565b601f8211156121bd5761218e81612067565b6121978461207c565b810160208510156121a6578190505b6121ba6121b28561207c565b830182612159565b50505b505050565b600082821c905092915050565b60006121e0600019846008026121c2565b1980831691505092915050565b60006121f983836121cf565b9150826002028217905092915050565b612213838361205c565b67ffffffffffffffff81111561222c5761222b611e48565b5b6122368254611e17565b61224182828561217c565b6000601f831160018114612270576000841561225e578287013590505b61226885826121ed565b8655506122d0565b601f19841661227e86612067565b60005b828110156122a657848901358255600182019150602085019450602081019050612281565b868310156122c357848901356122bf601f8916826121cf565b8355505b6001600288020188555050505b50505050505050565b82818337600083830152505050565b60006122f48385611cb0565b93506123018385846122d9565b61230a836117b9565b840190509392505050565b6000608082019050818103600083015261233081888a6122e8565b905081810360208301526123458186886122e8565b90506123546040830185611cfa565b612361606083018461173a565b979650505050505050565b7f4174206c656173742032206f7267616e697a6174696f6e73206d75737420626560008201527f2061637469766500000000000000000000000000000000000000000000000000602082015250565b60006123c8602783611cb0565b91506123d38261236c565b604082019050919050565b600060208201905081810360008301526123f7816123bb565b9050919050565b7f4e487b7100000000000000000000000000000000000000000000000000000000600052601160045260246000fd5b60006124388261153a565b91507fffffffffffffffffffffffffffffffffffffffffffffffffffffffffffffffff820361246a576124696123fe565b5b600182019050919050565b61247e82611773565b67ffffffffffffffff81111561249757612496611e48565b5b6124a18254611e17565b6124ac82828561217c565b600060209050601f8311600181146124df57600084156124cd578287015190505b6124d785826121ed565b86555061253f565b601f1984166124ed86612067565b60005b82811015612515578489015182556001820191506020850194506020810190506124f0565b86831015612532578489015161252e601f8916826121cf565b8355505b6001600288020188555050505b505050505050565b600060808201905081810360008301526125618187611cc1565b905081810360208301526125758186611cc1565b90506125846040830185611cfa565b612591606083018461173a565b95945050505050565b60006125a58261153a565b91506125b08361153a565b92508282039050818111156125c8576125c76123fe565b5b92915050565b7f4e487b7100000000000000000000000000000000000000000000000000000000600052603160045260246000fdfea26469706673582212207564afc4d580863d49ca66e2412a04ee502883f22b3da4bae9ecf5bde261771264736f6c634300081c0033",
  "linkReferences": {},
  "deployedLinkReferences": {}
}