{
  "_format": "hh-sol-artifact-1",
  "contractName": "OrganizationImpl",
  "sourceName": "contracts/OrganizationImpl.sol",
  "abi": [
    {
      "inputs": [
        {
          "components": [
            {
              "internalType": "uint256",
              "name": "id",
              "type": "uint256"
            },
            {
              "internalType": "string",
              "name": "name",
              "type": "string"
            },
            {
              "internalType": "bool",
              "name": "canVote",
              "type": "bool"
            }
          ],
          "internalType": "struct Organization.OrganizationData[]",
          "name": "orgs",
          "type": "tuple[]"
        },
        {
          "internalType": "contract AdminProxy",
          "name": "adminsProxy",
          "type": "address"
        }
      ],
      "stateMutability": "nonpayable",
      "type": "constructor"
    },
    {
      "inputs": [
        {
          "internalType": "string",
          "name": "message",
          "type": "string"
        }
      ],
      "name": "IllegalState",
      "type": "error"
    },
    {
      "inputs": [
        {
          "internalType": "string",
          "name": "message",
          "type": "string"
        }
      ],
      "name": "InvalidArgument",
      "type": "error"
    },
    {
      "inputs": [
        {
          "internalType": "uint256",
          "name": "orgId",
          "type": "uint256"
        }
      ],
      "name": "OrganizationNotFound",
      "type": "error"
    },
    {
      "inputs": [
        {
          "internalType": "address",
          "name": "account",
          "type": "address"
        }
      ],
      "name": "UnauthorizedAccess",
      "type": "error"
    },
    {
      "anonymous": false,
      "inputs": [
        {
          "indexed": true,
          "internalType": "uint256",
          "name": "orgId",
          "type": "uint256"
        },
        {
          "indexed": false,
          "internalType": "string",
          "name": "name",
          "type": "string"
        },
        {
          "indexed": false,
          "internalType": "bool",
          "name": "canVote",
          "type": "bool"
        }
      ],
      "name": "OrganizationAdded",
      "type": "event"
    },
    {
      "anonymous": false,
      "inputs": [
        {
          "indexed": true,
          "internalType": "uint256",
          "name": "orgId",
          "type": "uint256"
        }
      ],
      "name": "OrganizationDeleted",
      "type": "event"
    },
    {
      "anonymous": false,
      "inputs": [
        {
          "indexed": true,
          "internalType": "uint256",
          "name": "orgId",
          "type": "uint256"
        },
        {
          "indexed": false,
          "internalType": "string",
          "name": "name",
          "type": "string"
        },
        {
          "indexed": false,
          "internalType": "bool",
          "name": "canVote",
          "type": "bool"
        }
      ],
      "name": "OrganizationUpdated",
      "type": "event"
    },
    {
      "inputs": [
        {
          "internalType": "string",
          "name": "name",
          "type": "string"
        },
        {
          "internalType": "bool",
          "name": "canVote",
          "type": "bool"
        }
      ],
      "name": "addOrganization",
      "outputs": [
        {
          "internalType": "uint256",
          "name": "",
          "type": "uint256"
        }
      ],
      "stateMutability": "nonpayable",
      "type": "function"
    },
    {
      "inputs": [],
      "name": "admins",
      "outputs": [
        {
          "internalType": "contract AdminProxy",
          "name": "",
          "type": "address"
        }
      ],
      "stateMutability": "view",
      "type": "function"
    },
    {
      "inputs": [
        {
          "internalType": "uint256",
          "name": "orgId",
          "type": "uint256"
        }
      ],
      "name": "deleteOrganization",
      "outputs": [],
      "stateMutability": "nonpayable",
      "type": "function"
    },
    {
      "inputs": [
        {
          "internalType": "uint256",
          "name": "orgId",
          "type": "uint256"
        }
      ],
      "name": "getOrganization",
      "outputs": [
        {
          "components": [
            {
              "internalType": "uint256",
              "name": "id",
              "type": "uint256"
            },
            {
              "internalType": "string",
              "name": "name",
              "type": "string"
            },
            {
              "internalType": "bool",
              "name": "canVote",
              "type": "bool"
            }
          ],
          "internalType": "struct Organization.OrganizationData",
          "name": "",
          "type": "tuple"
        }
      ],
      "stateMutability": "view",
      "type": "function"
    },
    {
      "inputs": [],
      "name": "getOrganizations",
      "outputs": [
        {
          "components": [
            {
              "internalType": "uint256",
              "name": "id",
              "type": "uint256"
            },
            {
              "internalType": "string",
              "name": "name",
              "type": "string"
            },
            {
              "internalType": "bool",
              "name": "canVote",
              "type": "bool"
            }
          ],
          "internalType": "struct Organization.OrganizationData[]",
          "name": "",
          "type": "tuple[]"
        }
      ],
      "stateMutability": "view",
      "type": "function"
    },
    {
      "inputs": [],
      "name": "idSeed",
      "outputs": [
        {
          "internalType": "uint256",
          "name": "",
          "type": "uint256"
        }
      ],
      "stateMutability": "view",
      "type": "function"
    },
    {
      "inputs": [
        {
          "internalType": "uint256",
          "name": "orgId",
          "type": "uint256"
        }
      ],
      "name": "isOrganizationActive",
      "outputs": [
        {
          "internalType": "bool",
          "name": "",
          "type": "bool"
        }
      ],
      "stateMutability": "view",
      "type": "function"
    },
    {
      "inputs": [],
      "name": "organizationIds",
      "outputs": [
        {
          "internalType": "uint256[]",
          "name": "",
          "type": "uint256[]"
        }
      ],
      "stateMutability": "view",
      "type": "function"
    },
    {
      "inputs": [
        {
          "internalType": "uint256",
          "name": "",
          "type": "uint256"
        }
      ],
      "name": "organizations",
      "outputs": [
        {
          "internalType": "uint256",
          "name": "id",
          "type": "uint256"
        },
        {
          "internalType": "string",
          "name": "name",
          "type": "string"
        },
        {
          "internalType": "bool",
          "name": "canVote",
          "type": "bool"
        }
      ],
      "stateMutability": "view",
      "type": "function"
    },
    {
      "inputs": [
        {
          "internalType": "uint256",
          "name": "orgId",
          "type": "uint256"
        },
        {
          "internalType": "string",
          "name": "name",
          "type": "string"
        },
        {
          "internalType": "bool",
          "name": "canVote",
          "type": "bool"
        }
      ],
      "name": "updateOrganization",
      "outputs": [],
      "stateMutability": "nonpayable",
      "type": "function"
    }
  ],
  "bytecode": "0x60a06040526000805534801561001457600080fd5b50604051612b21380380612b218339818101604052810190610036919061073a565b80600073ffffffffffffffffffffffffffffffffffffffff168173ffffffffffffffffffffffffffffffffffffffff16036100a6576040517f08c379a000000000000000000000000000000000000000000000000000000000815260040161009d90610819565b60405180910390fd5b8073ffffffffffffffffffffffffffffffffffffffff1660808173ffffffffffffffffffffffffffffffffffffffff168152505050600282511015610120576040517f08c379a0000000000000000000000000000000000000000000000000000000008152600401610117906108ab565b60405180910390fd5b60005b825181101561018457610178838281518110610142576101416108cb565b5b602002602001015160200151848381518110610161576101606108cb565b5b60200260200101516040015161018c60201b60201c565b50806001019050610123565b505050610d3e565b60008260008151036101d3576040517f7ffc6cec0000000000000000000000000000000000000000000000000000000081526004016101ca90610946565b60405180910390fd5b600080600081546101e390610995565b9190508190559050600060405180606001604052808381526020018781526020018615158152509050806001600084815260200190815260200160002060008201518160000155602082015181600101908161023f9190610bf4565b5060408201518160020160006101000a81548160ff0219169083151502179055509050506102778260026102be60201b90919060201c565b50817f4dad03b1061978f376a9ac9d5b3957eba0a96407252f23c6fe707d65631a5bd587876040516102aa929190610d0e565b60405180910390a281935050505092915050565b60006102d6836000018360001b6102de60201b60201c565b905092915050565b60006102f0838361035460201b60201c565b61034957826000018290806001815401808255809150506001900390600052602060002001600090919091909150558260000180549050836001016000848152602001908152602001600020819055506001905061034e565b600090505b92915050565b600080836001016000848152602001908152602001600020541415905092915050565b6000604051905090565b600080fd5b600080fd5b600080fd5b6000601f19601f8301169050919050565b7f4e487b7100000000000000000000000000000000000000000000000000000000600052604160045260246000fd5b6103d982610390565b810181811067ffffffffffffffff821117156103f8576103f76103a1565b5b80604052505050565b600061040b610377565b905061041782826103d0565b919050565b600067ffffffffffffffff821115610437576104366103a1565b5b602082029050602081019050919050565b600080fd5b600080fd5b600080fd5b6000819050919050565b61046a81610457565b811461047557600080fd5b50565b60008151905061048781610461565b92915050565b600080fd5b600067ffffffffffffffff8211156104ad576104ac6103a1565b5b6104b682610390565b9050602081019050919050565b60005b838110156104e15780820151818401526020810190506104c6565b60008484015250505050565b60006105006104fb84610492565b610401565b90508281526020810184848401111561051c5761051b61048d565b5b6105278482856104c3565b509392505050565b600082601f8301126105445761054361038b565b5b81516105548482602086016104ed565b91505092915050565b60008115159050919050565b6105728161055d565b811461057d57600080fd5b50565b60008151905061058f81610569565b92915050565b6000606082840312156105ab576105aa61044d565b5b6105b56060610401565b905060006105c584828501610478565b600083015250602082015167ffffffffffffffff8111156105e9576105e8610452565b5b6105f58482850161052f565b602083015250604061060984828501610580565b60408301525092915050565b60006106286106238461041c565b610401565b9050808382526020820190506020840283018581111561064b5761064a610448565b5b835b8181101561069257805167ffffffffffffffff8111156106705761066f61038b565b5b80860161067d8982610595565b8552602085019450505060208101905061064d565b5050509392505050565b600082601f8301126106b1576106b061038b565b5b81516106c1848260208601610615565b91505092915050565b600073ffffffffffffffffffffffffffffffffffffffff82169050919050565b60006106f5826106ca565b9050919050565b6000610707826106ea565b9050919050565b610717816106fc565b811461072257600080fd5b50565b6000815190506107348161070e565b92915050565b6000806040838503121561075157610750610381565b5b600083015167ffffffffffffffff81111561076f5761076e610386565b5b61077b8582860161069c565b925050602061078c85828601610725565b9150509250929050565b600082825260208201905092915050565b7f496e76616c6964206164647265737320666f722041646d696e206d616e61676560008201527f6d656e7420736d61727420636f6e747261637400000000000000000000000000602082015250565b6000610803603383610796565b915061080e826107a7565b604082019050919050565b60006020820190508181036000830152610832816107f6565b9050919050565b7f4174206c656173742032206f7267616e697a6174696f6e73206d75737420657860008201527f6973740000000000000000000000000000000000000000000000000000000000602082015250565b6000610895602383610796565b91506108a082610839565b604082019050919050565b600060208201905081810360008301526108c481610888565b9050919050565b7f4e487b7100000000000000000000000000000000000000000000000000000000600052603260045260246000fd5b7f4e6f6465206e616d652063616e6e6f7420626520656d7074792e000000000000600082015250565b6000610930601a83610796565b915061093b826108fa565b602082019050919050565b6000602082019050818103600083015261095f81610923565b9050919050565b7f4e487b7100000000000000000000000000000000000000000000000000000000600052601160045260246000fd5b60006109a082610457565b91507fffffffffffffffffffffffffffffffffffffffffffffffffffffffffffffffff82036109d2576109d1610966565b5b600182019050919050565b600081519050919050565b7f4e487b7100000000000000000000000000000000000000000000000000000000600052602260045260246000fd5b60006002820490506001821680610a2f57607f821691505b602082108103610a4257610a416109e8565b5b50919050565b60008190508160005260206000209050919050565b60006020601f8301049050919050565b600082821b905092915050565b600060088302610aaa7fffffffffffffffffffffffffffffffffffffffffffffffffffffffffffffffff82610a6d565b610ab48683610a6d565b95508019841693508086168417925050509392505050565b6000819050919050565b6000610af1610aec610ae784610457565b610acc565b610457565b9050919050565b6000819050919050565b610b0b83610ad6565b610b1f610b1782610af8565b848454610a7a565b825550505050565b600090565b610b34610b27565b610b3f818484610b02565b505050565b5b81811015610b6357610b58600082610b2c565b600181019050610b45565b5050565b601f821115610ba857610b7981610a48565b610b8284610a5d565b81016020851015610b91578190505b610ba5610b9d85610a5d565b830182610b44565b50505b505050565b600082821c905092915050565b6000610bcb60001984600802610bad565b1980831691505092915050565b6000610be48383610bba565b9150826002028217905092915050565b610bfd826109dd565b67ffffffffffffffff811115610c1657610c156103a1565b5b610c208254610a17565b610c2b828285610b67565b600060209050601f831160018114610c5e5760008415610c4c578287015190505b610c568582610bd8565b865550610cbe565b601f198416610c6c86610a48565b60005b82811015610c9457848901518255600182019150602085019450602081019050610c6f565b86831015610cb15784890151610cad601f891682610bba565b8355505b6001600288020188555050505b505050505050565b6000610cd1826109dd565b610cdb8185610796565b9350610ceb8185602086016104c3565b610cf481610390565b840191505092915050565b610d088161055d565b82525050565b60006040820190508181036000830152610d288185610cc6565b9050610d376020830184610cff565b9392505050565b608051611db3610d6e6000396000818161023f0152818161075c0152818161078201526108b40152611db36000f3fe608060405234801561001057600080fd5b506004361061009e5760003560e01c8063a5de361911610066578063a5de36191461015b578063aac271bf14610179578063dc1301af146101a9578063dd67826e146101c5578063e792dd8a146101e35761009e565b8063136cf162146100a35780632e9e006c146100c157806337c55052146100f15780634526f6901461010d5780639754a3a81461013d575b600080fd5b6100ab610215565b6040516100b8919061101c565b60405180910390f35b6100db60048036038101906100d6919061106d565b61021b565b6040516100e891906110b5565b60405180910390f35b61010b60048036038101906101069190611161565b61023d565b005b6101276004803603810190610122919061106d565b610489565b60405161013491906112d3565b60405180910390f35b6101456105ca565b6040516101529190611407565b60405180910390f35b61016361075a565b60405161017091906114a8565b60405180910390f35b610193600480360381019061018e91906114c3565b61077e565b6040516101a0919061101c565b60405180910390f35b6101c360048036038101906101be919061106d565b6108b2565b005b6101cd610abe565b6040516101da91906115d2565b60405180910390f35b6101fd60048036038101906101f8919061106d565b610acf565b60405161020c9392919061163e565b60405180910390f35b60005481565b6000806001600084815260200190815260200160002060000154119050919050565b7f000000000000000000000000000000000000000000000000000000000000000073ffffffffffffffffffffffffffffffffffffffff1663fe9fbb80336040518263ffffffff1660e01b8152600401610296919061169d565b602060405180830381865afa1580156102b3573d6000803e3d6000fd5b505050506040513d601f19601f820116820180604052508101906102d791906116cd565b61031857336040517fdccef96400000000000000000000000000000000000000000000000000000000815260040161030f919061169d565b60405180910390fd5b83600060016000838152602001908152602001600020600001540361037457806040517fd54d626300000000000000000000000000000000000000000000000000000000815260040161036b919061101c565b60405180910390fd5b83838080601f016020809104026020016040519081016040528093929190818152602001838380828437600081840152601f19601f8201169050808301925050505050505060008151036103fd576040517f7ffc6cec0000000000000000000000000000000000000000000000000000000081526004016103f490611746565b60405180910390fd5b600060016000888152602001908152602001600020905085858260010191826104279291906119a2565b50838160020160006101000a81548160ff021916908315150217905550867f474ecb9a635a2caa43d0179379d8776bdbc4cbf4a43b44a3bdf4c26eba367d3e87878760405161047893929190611aae565b60405180910390a250505050505050565b610491610f83565b8160006001600083815260200190815260200160002060000154036104ed57806040517fd54d62630000000000000000000000000000000000000000000000000000000081526004016104e4919061101c565b60405180910390fd5b6001600084815260200190815260200160002060405180606001604052908160008201548152602001600182018054610525906117cf565b80601f0160208091040260200160405190810160405280929190818152602001828054610551906117cf565b801561059e5780601f106105735761010080835404028352916020019161059e565b820191906000526020600020905b81548152906001019060200180831161058157829003601f168201915b505050505081526020016002820160009054906101000a900460ff161515151581525050915050919050565b606060006105d86002610b8e565b67ffffffffffffffff8111156105f1576105f0611771565b5b60405190808252806020026020018201604052801561062a57816020015b610617610f83565b81526020019060019003908161060f5790505b50905060005b61063a6002610b8e565b8110156107525760016000610659836002610ba390919063ffffffff16565b81526020019081526020016000206040518060600160405290816000820154815260200160018201805461068c906117cf565b80601f01602080910402602001604051908101604052809291908181526020018280546106b8906117cf565b80156107055780601f106106da57610100808354040283529160200191610705565b820191906000526020600020905b8154815290600101906020018083116106e857829003601f168201915b505050505081526020016002820160009054906101000a900460ff16151515158152505082828151811061073c5761073b611ae0565b5b6020026020010181905250806001019050610630565b508091505090565b7f000000000000000000000000000000000000000000000000000000000000000081565b60007f000000000000000000000000000000000000000000000000000000000000000073ffffffffffffffffffffffffffffffffffffffff1663fe9fbb80336040518263ffffffff1660e01b81526004016107d9919061169d565b602060405180830381865afa1580156107f6573d6000803e3d6000fd5b505050506040513d601f19601f8201168201806040525081019061081a91906116cd565b61085b57336040517fdccef964000000000000000000000000000000000000000000000000000000008152600401610852919061169d565b60405180910390fd5b6108a984848080601f016020809104026020016040519081016040528093929190818152602001838380828437600081840152601f19601f8201169050808301925050505050505083610bbd565b90509392505050565b7f000000000000000000000000000000000000000000000000000000000000000073ffffffffffffffffffffffffffffffffffffffff1663fe9fbb80336040518263ffffffff1660e01b815260040161090b919061169d565b602060405180830381865afa158015610928573d6000803e3d6000fd5b505050506040513d601f19601f8201168201806040525081019061094c91906116cd565b61098d57336040517fdccef964000000000000000000000000000000000000000000000000000000008152600401610984919061169d565b60405180910390fd5b8060006001600083815260200190815260200160002060000154036109e957806040517fd54d62630000000000000000000000000000000000000000000000000000000081526004016109e0919061101c565b60405180910390fd5b60036109f56002610b8e565b1015610a36576040517fc50656df000000000000000000000000000000000000000000000000000000008152600401610a2d90611b81565b60405180910390fd5b60016000838152602001908152602001600020600080820160009055600182016000610a629190610fa6565b6002820160006101000a81549060ff02191690555050610a8c826002610cef90919063ffffffff16565b50817ff27d25b655cb03d0ed4d8ec4d8052f4e032e323945fd003c8a41818acbfabcbb60405160405180910390a25050565b6060610aca6002610d09565b905090565b6001602052806000526040600020600091509050806000015490806001018054610af8906117cf565b80601f0160208091040260200160405190810160405280929190818152602001828054610b24906117cf565b8015610b715780601f10610b4657610100808354040283529160200191610b71565b820191906000526020600020905b815481529060010190602001808311610b5457829003601f168201915b5050505050908060020160009054906101000a900460ff16905083565b6000610b9c82600001610d2a565b9050919050565b6000610bb28360000183610d3b565b60001c905092915050565b6000826000815103610c04576040517f7ffc6cec000000000000000000000000000000000000000000000000000000008152600401610bfb90611746565b60405180910390fd5b60008060008154610c1490611bd0565b91905081905590506000604051806060016040528083815260200187815260200186151581525090508060016000848152602001908152602001600020600082015181600001556020820151816001019081610c709190611c18565b5060408201518160020160006101000a81548160ff021916908315150217905550905050610ca8826002610d6690919063ffffffff16565b50817f4dad03b1061978f376a9ac9d5b3957eba0a96407252f23c6fe707d65631a5bd58787604051610cdb929190611cea565b60405180910390a281935050505092915050565b6000610d01836000018360001b610d80565b905092915050565b60606000610d1983600001610e94565b905060608190508092505050919050565b600081600001805490509050919050565b6000826000018281548110610d5357610d52611ae0565b5b9060005260206000200154905092915050565b6000610d78836000018360001b610ef0565b905092915050565b60008083600101600084815260200190815260200160002054905060008114610e88576000600182610db29190611d1a565b9050600060018660000180549050610dca9190611d1a565b9050808214610e39576000866000018281548110610deb57610dea611ae0565b5b9060005260206000200154905080876000018481548110610e0f57610e0e611ae0565b5b90600052602060002001819055508387600101600083815260200190815260200160002081905550505b85600001805480610e4d57610e4c611d4e565b5b600190038181906000526020600020016000905590558560010160008681526020019081526020016000206000905560019350505050610e8e565b60009150505b92915050565b606081600001805480602002602001604051908101604052809291908181526020018280548015610ee457602002820191906000526020600020905b815481526020019060010190808311610ed0575b50505050509050919050565b6000610efc8383610f60565b610f55578260000182908060018154018082558091505060019003906000526020600020016000909190919091505582600001805490508360010160008481526020019081526020016000208190555060019050610f5a565b600090505b92915050565b600080836001016000848152602001908152602001600020541415905092915050565b604051806060016040528060008152602001606081526020016000151581525090565b508054610fb2906117cf565b6000825580601f10610fc45750610fe3565b601f016020900490600052602060002090810190610fe29190610fe6565b5b50565b5b80821115610fff576000816000905550600101610fe7565b5090565b6000819050919050565b61101681611003565b82525050565b6000602082019050611031600083018461100d565b92915050565b600080fd5b600080fd5b61104a81611003565b811461105557600080fd5b50565b60008135905061106781611041565b92915050565b60006020828403121561108357611082611037565b5b600061109184828501611058565b91505092915050565b60008115159050919050565b6110af8161109a565b82525050565b60006020820190506110ca60008301846110a6565b92915050565b600080fd5b600080fd5b600080fd5b60008083601f8401126110f5576110f46110d0565b5b8235905067ffffffffffffffff811115611112576111116110d5565b5b60208301915083600182028301111561112e5761112d6110da565b5b9250929050565b61113e8161109a565b811461114957600080fd5b50565b60008135905061115b81611135565b92915050565b6000806000806060858703121561117b5761117a611037565b5b600061118987828801611058565b945050602085013567ffffffffffffffff8111156111aa576111a961103c565b5b6111b6878288016110df565b935093505060406111c98782880161114c565b91505092959194509250565b6111de81611003565b82525050565b600081519050919050565b600082825260208201905092915050565b60005b8381101561121e578082015181840152602081019050611203565b60008484015250505050565b6000601f19601f8301169050919050565b6000611246826111e4565b61125081856111ef565b9350611260818560208601611200565b6112698161122a565b840191505092915050565b61127d8161109a565b82525050565b600060608301600083015161129b60008601826111d5565b50602083015184820360208601526112b3828261123b565b91505060408301516112c86040860182611274565b508091505092915050565b600060208201905081810360008301526112ed8184611283565b905092915050565b600081519050919050565b600082825260208201905092915050565b6000819050602082019050919050565b600060608301600083015161133960008601826111d5565b5060208301518482036020860152611351828261123b565b91505060408301516113666040860182611274565b508091505092915050565b600061137d8383611321565b905092915050565b6000602082019050919050565b600061139d826112f5565b6113a78185611300565b9350836020820285016113b985611311565b8060005b858110156113f557848403895281516113d68582611371565b94506113e183611385565b925060208a019950506001810190506113bd565b50829750879550505050505092915050565b600060208201905081810360008301526114218184611392565b905092915050565b600073ffffffffffffffffffffffffffffffffffffffff82169050919050565b6000819050919050565b600061146e61146961146484611429565b611449565b611429565b9050919050565b600061148082611453565b9050919050565b600061149282611475565b9050919050565b6114a281611487565b82525050565b60006020820190506114bd6000830184611499565b92915050565b6000806000604084860312156114dc576114db611037565b5b600084013567ffffffffffffffff8111156114fa576114f961103c565b5b611506868287016110df565b935093505060206115198682870161114c565b9150509250925092565b600081519050919050565b600082825260208201905092915050565b6000819050602082019050919050565b600061155b83836111d5565b60208301905092915050565b6000602082019050919050565b600061157f82611523565b611589818561152e565b93506115948361153f565b8060005b838110156115c55781516115ac888261154f565b97506115b783611567565b925050600181019050611598565b5085935050505092915050565b600060208201905081810360008301526115ec8184611574565b905092915050565b600082825260208201905092915050565b6000611610826111e4565b61161a81856115f4565b935061162a818560208601611200565b6116338161122a565b840191505092915050565b6000606082019050611653600083018661100d565b81810360208301526116658185611605565b905061167460408301846110a6565b949350505050565b600061168782611429565b9050919050565b6116978161167c565b82525050565b60006020820190506116b2600083018461168e565b92915050565b6000815190506116c781611135565b92915050565b6000602082840312156116e3576116e2611037565b5b60006116f1848285016116b8565b91505092915050565b7f4e6f6465206e616d652063616e6e6f7420626520656d7074792e000000000000600082015250565b6000611730601a836115f4565b915061173b826116fa565b602082019050919050565b6000602082019050818103600083015261175f81611723565b9050919050565b600082905092915050565b7f4e487b7100000000000000000000000000000000000000000000000000000000600052604160045260246000fd5b7f4e487b7100000000000000000000000000000000000000000000000000000000600052602260045260246000fd5b600060028204905060018216806117e757607f821691505b6020821081036117fa576117f96117a0565b5b50919050565b60008190508160005260206000209050919050565b60006020601f8301049050919050565b600082821b905092915050565b6000600883026118627fffffffffffffffffffffffffffffffffffffffffffffffffffffffffffffffff82611825565b61186c8683611825565b95508019841693508086168417925050509392505050565b600061189f61189a61189584611003565b611449565b611003565b9050919050565b6000819050919050565b6118b983611884565b6118cd6118c5826118a6565b848454611832565b825550505050565b600090565b6118e26118d5565b6118ed8184846118b0565b505050565b5b81811015611911576119066000826118da565b6001810190506118f3565b5050565b601f8211156119565761192781611800565b61193084611815565b8101602085101561193f578190505b61195361194b85611815565b8301826118f2565b50505b505050565b600082821c905092915050565b60006119796000198460080261195b565b1980831691505092915050565b60006119928383611968565b9150826002028217905092915050565b6119ac8383611766565b67ffffffffffffffff8111156119c5576119c4611771565b5b6119cf82546117cf565b6119da828285611915565b6000601f831160018114611a0957600084156119f7578287013590505b611a018582611986565b865550611a69565b601f198416611a1786611800565b60005b82811015611a3f57848901358255600182019150602085019450602081019050611a1a565b86831015611a5c5784890135611a58601f891682611968565b8355505b6001600288020188555050505b50505050505050565b82818337600083830152505050565b6000611a8d83856115f4565b9350611a9a838584611a72565b611aa38361122a565b840190509392505050565b60006040820190508181036000830152611ac9818587611a81565b9050611ad860208301846110a6565b949350505050565b7f4e487b7100000000000000000000000000000000000000000000000000000000600052603260045260246000fd5b7f4174206c656173742032206f7267616e697a6174696f6e73206d75737420626560008201527f2061637469766500000000000000000000000000000000000000000000000000602082015250565b6000611b6b6027836115f4565b9150611b7682611b0f565b604082019050919050565b60006020820190508181036000830152611b9a81611b5e565b9050919050565b7f4e487b7100000000000000000000000000000000000000000000000000000000600052601160045260246000fd5b6000611bdb82611003565b91507fffffffffffffffffffffffffffffffffffffffffffffffffffffffffffffffff8203611c0d57611c0c611ba1565b5b600182019050919050565b611c21826111e4565b67ffffffffffffffff811115611c3a57611c39611771565b5b611c4482546117cf565b611c4f828285611915565b600060209050601f831160018114611c825760008415611c70578287015190505b611c7a8582611986565b865550611ce2565b601f198416611c9086611800565b60005b82811015611cb857848901518255600182019150602085019450602081019050611c93565b86831015611cd55784890151611cd1601f891682611968565b8355505b6001600288020188555050505b505050505050565b60006040820190508181036000830152611d048185611605565b9050611d1360208301846110a6565b9392505050565b6000611d2582611003565b9150611d3083611003565b9250828203905081811115611d4857611d47611ba1565b5b92915050565b7f4e487b7100000000000000000000000000000000000000000000000000000000600052603160045260246000fdfea2646970667358221220e3102a9fabaada5df61c1a4f45a9dd89e2066d96633b4fb05ff3c8bf961f548564736f6c634300081a0033",
  "linkReferences": {},
  "deployedLinkReferences": {}
}